{"contracts/CertificateRegistry.sol":{"CertificateRegistry":{"abi":[{"anonymous":false,"inputs":[{"indexed":true,"internalType":"address","name":"institution","type":"address"},{"indexed":false,"internalType":"uint256","name":"totalIssued","type":"uint256"},{"indexed":false,"internalType":"uint256","name":"dateIssued","type":"uint256"}],"name":"CertificateBulkIssued","type":"event"},{"anonymous":false,"inputs":[{"indexed":true,"internalType":"address","name":"institution","type":"address"},{"indexed":true,"internalType":"address","name":"student","type":"address"},{"indexed":false,"internalType":"string","name":"nameOfCert","type":"string"},{"indexed":false,"internalType":"uint256","name":"dateIssued","type":"uint256"}],"name":"CertificateIssued","type":"event"},{"inputs":[{"internalType":"address","name":"_studentWallet","type":"address"},{"internalType":"string","name":"_certHash","type":"string"}],"name":"getCertificateByHash","outputs":[{"components":[{"internalType":"string","name":"nameOfInstitution","type":"string"},{"internalType":"string","name":"nameOfCert","type":"string"},{"internalType":"string","name":"nameOfStudent","type":"string"},{"internalType":"string","name":"college","type":"string"},{"internalType":"string","name":"course","type":"string"},{"internalType":"string","name":"major","type":"string"},{"internalType":"string","name":"certStatus","type":"string"},{"internalType":"string","name":"certHash","type":"string"},{"internalType":"address","name":"walletAddressOfStudent","type":"address"},{"internalType":"address","name":"walletAddressOfInstitution","type":"address"},{"internalType":"string","name":"imageOfCertificate","type":"string"},{"internalType":"uint256","name":"dateIssued","type":"uint256"}],"internalType":"struct CertificateRegistry.Certificate","name":"","type":"tuple"}],"stateMutability":"view","type":"function"},{"inputs":[{"internalType":"address","name":"_studentWallet","type":"address"},{"internalType":"uint256","name":"index","type":"uint256"}],"name":"getCertificateByIndex","outputs":[{"components":[{"internalType":"string","name":"nameOfInstitution","type":"string"},{"internalType":"string","name":"nameOfCert","type":"string"},{"internalType":"string","name":"nameOfStudent","type":"string"},{"internalType":"string","name":"college","type":"string"},{"internalType":"string","name":"course","type":"string"},{"internalType":"string","name":"major","type":"string"},{"internalType":"string","name":"certStatus","type":"string"},{"internalType":"string","name":"certHash","type":"string"},{"internalType":"address","name":"walletAddressOfStudent","type":"address"},{"internalType":"address","name":"walletAddressOfInstitution","type":"address"},{"internalType":"string","name":"imageOfCertificate","type":"string"},{"internalType":"uint256","name":"dateIssued","type":"uint256"}],"internalType":"struct CertificateRegistry.Certificate","name":"","type":"tuple"}],"stateMutability":"view","type":"function"},{"inputs":[{"internalType":"address","name":"_studentWallet","type":"address"}],"name":"getCertificateCount","outputs":[{"internalType":"uint256","name":"","type":"uint256"}],"stateMutability":"view","type":"function"},{"inputs":[{"internalType":"address","name":"_studentWallet","type":"address"}],"name":"getCertificates","outputs":[{"components":[{"internalType":"string","name":"nameOfInstitution","type":"string"},{"internalType":"string","name":"nameOfCert","type":"string"},{"internalType":"string","name":"nameOfStudent","type":"string"},{"internalType":"string","name":"college","type":"string"},{"internalType":"string","name":"course","type":"string"},{"internalType":"string","name":"major","type":"string"},{"internalType":"string","name":"certStatus","type":"string"},{"internalType":"string","name":"certHash","type":"string"},{"internalType":"address","name":"walletAddressOfStudent","type":"address"},{"internalType":"address","name":"walletAddressOfInstitution","type":"address"},{"internalType":"string","name":"imageOfCertificate","type":"string"},{"internalType":"uint256","name":"dateIssued","type":"uint256"}],"internalType":"struct CertificateRegistry.Certificate[]","name":"","type":"tuple[]"}],"stateMutability":"view","type":"function"},{"inputs":[{"internalType":"address","name":"_studentWallet","type":"address"},{"internalType":"string","name":"_nameOfInstitution","type":"string"},{"internalType":"string","name":"_nameOfCert","type":"string"},{"internalType":"string","name":"_nameOfStudent","type":"string"},{"internalType":"string","name":"_college","type":"string"},{"internalType":"string","name":"_course","type":"string"},{"internalType":"string","name":"_major","type":"string"},{"internalType":"string","name":"_certStatus","type":"string"},{"internalType":"string","name":"_certHash","type":"string"},{"internalType":"string","name":"_imageOfCertificate","type":"string"}],"name":"issueCertificate","outputs":[],"stateMutability":"nonpayable","type":"function"},{"inputs":[{"internalType":"address[]","name":"_studentWallets","type":"address[]"},{"internalType":"string","name":"_nameOfInstitution","type":"string"},{"internalType":"string","name":"_nameOfCert","type":"string"},{"internalType":"string[]","name":"_nameOfStudents","type":"string[]"},{"internalType":"string","name":"_college","type":"string"},{"internalType":"string","name":"_course","type":"string"},{"internalType":"string","name":"_major","type":"string"},{"internalType":"string","name":"_certStatus","type":"string"},{"internalType":"string[]","name":"_certHashes","type":"string[]"},{"internalType":"string[]","name":"_imageOfCertificates","type":"string[]"}],"name":"issueCertificatesBulk","outputs":[],"stateMutability":"nonpayable","type":"function"}],"evm":{"bytecode":{"linkReferences":{},"object":"608080604052346015576118e7908161001b8239f35b600080fdfe6080604052600436101561001257600080fd5b60003560e01c80630886f007146104715780634e39e6981461042c578063a29bad4d14610242578063b1d5ccf814610208578063c50ae4711461014d5763f1c49c621461005e57600080fd5b34610148576020366003190112610148576001600160a01b0361007f610848565b166000526000602052604060002080549061009982610831565b916100a76040519384610810565b80835260208301809260005260206000206000915b83831061012a57848660405191829160208301906020845251809152604083019060408160051b85010192916000905b8282106100fb57505050500390f35b9193600191939550602061011a8192603f198a82030186528851610973565b96019201920185949391926100ec565b600c602060019261013a856116e0565b8152019201920191906100bc565b600080fd5b3461014857604036600319011261014857610166610848565b602435906101726115db565b5060018060a01b0316908160005260006020526040600020548110156101cd576101af6101b5916101c99360005260006020526040600020610adf565b506116e0565b604051918291602083526020830190610973565b0390f35b60405162461bcd60e51b8152602060048201526013602482015272496e646578206f7574206f6620626f756e647360681b6044820152606490fd5b34610148576020366003190112610148576001600160a01b03610229610848565b1660005260006020526020604060002054604051908152f35b34610148576101403660031901126101485761025c610848565b6024356001600160401b0381116101485761027b90369060040161085e565b906044356001600160401b0381116101485761029b90369060040161085e565b906064356001600160401b038111610148576102bb90369060040161085e565b926084356001600160401b038111610148576102db90369060040161085e565b9160a4356001600160401b038111610148576102fb90369060040161085e565b60c4356001600160401b0381116101485761031a90369060040161085e565b60e4356001600160401b0381116101485761033990369060040161085e565b90610104356001600160401b0381116101485761035a90369060040161085e565b9261012435966001600160401b0388116101485761037f6103f598369060040161085e565b9961038b331515610a69565b60405197610398896107de565b885289602089015260408801526060870152608086015260a085015260c084015260e083015260018060a01b0316938461010083015233610120830152610140820152426101608201528360005260006020526040600020610b35565b7f0d4c8b54bb811347956d50e4e7ada18786723b008c84b0d9be92f77312c8d4a86040518061042733944290836115bf565b0390a3005b3461014857604036600319011261014857610445610848565b6024356001600160401b038111610148576101c99161046b6101b592369060040161085e565b906117b1565b3461014857610140366003190112610148576004356001600160401b03811161014857366023820112156101485780600401356104ad81610831565b916104bb6040519384610810565b8183526024602084019260051b8201019036821161014857602401915b8183106107be57836024356001600160401b038111610148576104ff90369060040161085e565b906044356001600160401b0381116101485761051f90369060040161085e565b916064356001600160401b0381116101485761053f9036906004016108b4565b926084356001600160401b0381116101485761055f90369060040161085e565b9260a4356001600160401b0381116101485761057f90369060040161085e565b9260c4356001600160401b0381116101485761059f90369060040161085e565b9460e4356001600160401b038111610148576105bf90369060040161085e565b610104356001600160401b038111610148576105df9036906004016108b4565b91610124356001600160401b038111610148576106009036906004016108b4565b9161060c331515610a69565b85518a51811490816107b3575b816107a8575b501561076b5785519860005b8a8110610667578a6040519081524260208201527faa4d034a3afc743ea3d35836e771f0693bd6c9386f7cf4a42c56b246c4dc12e160403392a2005b8061071d888b8f8c8f8c6106a88861068e8f969b6106878160019e610ab5565b5194610ab5565b51946106a0828d8060a01b0392610ab5565b511695610ab5565b5194604051966106b7886107de565b8752602087015260408601528a606086015260808501528760a08501528860c085015260e08401526101008301523361012083015261014082015242610160820152838060a01b03610709848d610ab5565b511660005260006020526040600020610b35565b818060a01b0361072d828b610ab5565b51168a7f0d4c8b54bb811347956d50e4e7ada18786723b008c84b0d9be92f77312c8d4a86040518061076233944290836115bf565b0390a30161062b565b60405162461bcd60e51b8152602060048201526015602482015274082e4e4c2f240d8cadccee8d040dad2e6dac2e8c6d605b1b6044820152606490fd5b90508351148b61061f565b855181149150610619565b82356001600160a01b0381168103610148578152602092830192016104d8565b61018081019081106001600160401b038211176107fa57604052565b634e487b7160e01b600052604160045260246000fd5b90601f801991011681019081106001600160401b038211176107fa57604052565b6001600160401b0381116107fa5760051b60200190565b600435906001600160a01b038216820361014857565b81601f82011215610148578035906001600160401b0382116107fa5760405192610892601f8401601f191660200185610810565b8284526020838301011161014857816000926020809301838601378301015290565b9080601f830112156101485781356108cb81610831565b926108d96040519485610810565b81845260208085019260051b820101918383116101485760208201905b83821061090557505050505090565b81356001600160401b038111610148576020916109278784809488010161085e565b8152019101906108f6565b919082519283825260005b84811061095e575050826000602080949584010152601f8019910116010190565b8060208092840101518282860101520161093d565b9061016080610a60610a24610a12610a006109ee6109dc6109ca6109b86109a58c516101808d526101808d0190610932565b60208d01518c6020818403910152610932565b60408c01518b820360408d0152610932565b60608b01518a820360608c0152610932565b60808a015189820360808b0152610932565b60a089015188820360a08a0152610932565b60c088015187820360c0890152610932565b60e087015186820360e0880152610932565b60018060a01b036101008701511661010086015260018060a01b0361012087015116610120860152610140860151858203610140870152610932565b93015191015290565b15610a7057565b60405162461bcd60e51b815260206004820152601b60248201527f496e76616c696420696e737469747574696f6e206164647265737300000000006044820152606490fd5b8051821015610ac95760209160051b010190565b634e487b7160e01b600052603260045260246000fd5b8054821015610ac957600052600c602060002091020190600090565b90600182811c92168015610b2b575b6020831014610b1557565b634e487b7160e01b600052602260045260246000fd5b91607f1691610b0a565b9190918054680100000000000000008110156107fa57610b5a91600182018155610adf565b6115a95782519283516001600160401b0381116107fa57610b7b8354610afb565b601f8111611561575b50602094601f82116001146114fc579481929394956000926114f1575b50508160011b916000199060031b1c19161782555b6001820160208201518051906001600160401b0382116107fa578190610bdc8454610afb565b601f811161149e575b50602090601f83116001146114395760009261142e575b50508160011b916000199060031b1c19161790555b6002820160408201518051906001600160401b0382116107fa578190610c378454610afb565b601f81116113db575b50602090601f83116001146113765760009261136b575b50508160011b916000199060031b1c19161790555b6003820160608201518051906001600160401b0382116107fa578190610c928454610afb565b601f8111611318575b50602090601f83116001146112b3576000926112a8575b50508160011b916000199060031b1c19161790555b6004820160808201518051906001600160401b0382116107fa578190610ced8454610afb565b601f8111611255575b50602090601f83116001146111f0576000926111e5575b50508160011b916000199060031b1c19161790555b6005820160a08201518051906001600160401b0382116107fa578190610d488454610afb565b601f8111611192575b50602090601f831160011461112d57600092611122575b50508160011b916000199060031b1c19161790555b6006820160c08201518051906001600160401b0382116107fa578190610da38454610afb565b601f81116110cf575b50602090601f831160011461106a5760009261105f575b50508160011b916000199060031b1c19161790555b6007820160e08201518051906001600160401b0382116107fa578190610dfe8454610afb565b601f811161100c575b50602090601f8311600114610fa757600092610f9c575b50508160011b916000199060031b1c19161790555b6101008101516008830180546001600160a01b039283166001600160a01b0319918216179091556101208301516009850180549190931691161790556101408101518051600a8401916001600160401b0382116107fa57610e948354610afb565b601f8111610f54575b50602090601f8311600114610ee65791806101609492600b9694600092610edb575b50508160011b916000199060031b1c19161790555b0151910155565b015190503880610ebf565b90601f1983169184600052816000209260005b818110610f3c5750926001928592600b9896610160989610610f23575b505050811b019055610ed4565b015160001960f88460031b161c19169055388080610f16565b92936020600181928786015181550195019301610ef9565b836000526020600020601f840160051c81019160208510610f92575b601f0160051c01905b818110610f865750610e9d565b60008155600101610f79565b9091508190610f70565b015190503880610e1e565b60008581528281209350601f198516905b818110610ff45750908460019594939210610fdb575b505050811b019055610e33565b015160001960f88460031b161c19169055388080610fce565b92936020600181928786015181550195019301610fb8565b909150836000526020600020601f840160051c81019160208510611055575b90601f859493920160051c01905b8181106110465750610e07565b60008155849350600101611039565b909150819061102b565b015190503880610dc3565b60008581528281209350601f198516905b8181106110b7575090846001959493921061109e575b505050811b019055610dd8565b015160001960f88460031b161c19169055388080611091565b9293602060018192878601518155019501930161107b565b909150836000526020600020601f840160051c81019160208510611118575b90601f859493920160051c01905b8181106111095750610dac565b600081558493506001016110fc565b90915081906110ee565b015190503880610d68565b60008581528281209350601f198516905b81811061117a5750908460019594939210611161575b505050811b019055610d7d565b015160001960f88460031b161c19169055388080611154565b9293602060018192878601518155019501930161113e565b909150836000526020600020601f840160051c810191602085106111db575b90601f859493920160051c01905b8181106111cc5750610d51565b600081558493506001016111bf565b90915081906111b1565b015190503880610d0d565b60008581528281209350601f198516905b81811061123d5750908460019594939210611224575b505050811b019055610d22565b015160001960f88460031b161c19169055388080611217565b92936020600181928786015181550195019301611201565b909150836000526020600020601f840160051c8101916020851061129e575b90601f859493920160051c01905b81811061128f5750610cf6565b60008155849350600101611282565b9091508190611274565b015190503880610cb2565b60008581528281209350601f198516905b81811061130057509084600195949392106112e7575b505050811b019055610cc7565b015160001960f88460031b161c191690553880806112da565b929360206001819287860151815501950193016112c4565b909150836000526020600020601f840160051c81019160208510611361575b90601f859493920160051c01905b8181106113525750610c9b565b60008155849350600101611345565b9091508190611337565b015190503880610c57565b60008581528281209350601f198516905b8181106113c357509084600195949392106113aa575b505050811b019055610c6c565b015160001960f88460031b161c1916905538808061139d565b92936020600181928786015181550195019301611387565b909150836000526020600020601f840160051c81019160208510611424575b90601f859493920160051c01905b8181106114155750610c40565b60008155849350600101611408565b90915081906113fa565b015190503880610bfc565b60008581528281209350601f198516905b818110611486575090846001959493921061146d575b505050811b019055610c11565b015160001960f88460031b161c19169055388080611460565b9293602060018192878601518155019501930161144a565b909150836000526020600020601f840160051c810191602085106114e7575b90601f859493920160051c01905b8181106114d85750610be5565b600081558493506001016114cb565b90915081906114bd565b015190503880610ba1565b601f1982169584600052806000209160005b88811061154957508360019596979810611530575b505050811b018255610bb6565b015160001960f88460031b161c19169055388080611523565b9192602060018192868501518155019401920161150e565b836000526020600020601f830160051c8101916020841061159f575b601f0160051c01905b8181106115935750610b84565b60008155600101611586565b909150819061157d565b634e487b7160e01b600052600060045260246000fd5b9291906115d6602091604086526040860190610932565b930152565b604051906115e8826107de565b60006101608360608152606060208201526060604082015260608082015260606080820152606060a0820152606060c0820152606060e0820152826101008201528261012082015260606101408201520152565b906040519182600082549261165084610afb565b80845293600181169081156116be5750600114611677575b5061167592500383610810565b565b90506000929192526020600020906000915b8183106116a25750509060206116759282010138611668565b6020919350806001915483858901015201910190918492611689565b90506020925061167594915060ff191682840152151560051b82010138611668565b906040516116ed816107de565b610160600b82946116fd8161163c565b845261170b6001820161163c565b602085015261171c6002820161163c565b604085015261172d6003820161163c565b606085015261173e6004820161163c565b608085015261174f6005820161163c565b60a08501526117606006820161163c565b60c08501526117716007820161163c565b60e085015260088101546001600160a01b039081166101008601526009820154166101208501526117a4600a820161163c565b6101408501520154910152565b6117b96115db565b506001600160a01b0316600090815260208190526040902080546117dc81610831565b916117ea6040519384610810565b818352602083019060005260206000206000915b838310611893575050505060005b815181101561184e5760e06118218284610ab5565b51015160208151910120835160208501201461183f5760010161180c565b9061184a9250610ab5565b5190565b60405162461bcd60e51b815260206004820152601a60248201527f436572746966696361746520646f6573206e6f742065786973740000000000006044820152606490fd5b600c60206001926118a3856116e0565b8152019201920191906117fe56fea2646970667358221220dbf08b39d46f46233c05003b64d24b9efacff5f3589b39856dce9cef59f54cd164736f6c634300081c0033","opcodes":"PUSH1 0x80 DUP1 PUSH1 0x40 MSTORE CALLVALUE PUSH1 0x15 JUMPI PUSH2 0x18E7 SWAP1 DUP2 PUSH2 0x1B DUP3 CODECOPY RETURN JUMPDEST PUSH1 0x0 DUP1 REVERT INVALID PUSH1 0x80 PUSH1 0x40 MSTORE PUSH1 0x4 CALLDATASIZE LT ISZERO PUSH2 0x12 JUMPI PUSH1 0x0 DUP1 REVERT JUMPDEST PUSH1 0x0 CALLDATALOAD PUSH1 0xE0 SHR DUP1 PUSH4 0x886F007 EQ PUSH2 0x471 JUMPI DUP1 PUSH4 0x4E39E698 EQ PUSH2 0x42C JUMPI DUP1 PUSH4 0xA29BAD4D EQ PUSH2 0x242 JUMPI DUP1 PUSH4 0xB1D5CCF8 EQ PUSH2 0x208 JUMPI DUP1 PUSH4 0xC50AE471 EQ PUSH2 0x14D JUMPI PUSH4 0xF1C49C62 EQ PUSH2 0x5E JUMPI PUSH1 0x0 DUP1 REVERT JUMPDEST CALLVALUE PUSH2 0x148 JUMPI PUSH1 0x20 CALLDATASIZE PUSH1 0x3 NOT ADD SLT PUSH2 0x148 JUMPI PUSH1 0x1 PUSH1 0x1 PUSH1 0xA0 SHL SUB PUSH2 0x7F PUSH2 0x848 JUMP JUMPDEST AND PUSH1 0x0 MSTORE PUSH1 0x0 PUSH1 0x20 MSTORE PUSH1 0x40 PUSH1 0x0 KECCAK256 DUP1 SLOAD SWAP1 PUSH2 0x99 DUP3 PUSH2 0x831 JUMP JUMPDEST SWAP2 PUSH2 0xA7 PUSH1 0x40 MLOAD SWAP4 DUP5 PUSH2 0x810 JUMP JUMPDEST DUP1 DUP4 MSTORE PUSH1 0x20 DUP4 ADD DUP1 SWAP3 PUSH1 0x0 MSTORE PUSH1 0x20 PUSH1 0x0 KECCAK256 PUSH1 0x0 SWAP2 JUMPDEST DUP4 DUP4 LT PUSH2 0x12A JUMPI DUP5 DUP7 PUSH1 0x40 MLOAD SWAP2 DUP3 SWAP2 PUSH1 0x20 DUP4 ADD SWAP1 PUSH1 0x20 DUP5 MSTORE MLOAD DUP1 SWAP2 MSTORE PUSH1 0x40 DUP4 ADD SWAP1 PUSH1 0x40 DUP2 PUSH1 0x5 SHL DUP6 ADD ADD SWAP3 SWAP2 PUSH1 0x0 SWAP1 JUMPDEST DUP3 DUP3 LT PUSH2 0xFB JUMPI POP POP POP POP SUB SWAP1 RETURN JUMPDEST SWAP2 SWAP4 PUSH1 0x1 SWAP2 SWAP4 SWAP6 POP PUSH1 0x20 PUSH2 0x11A DUP2 SWAP3 PUSH1 0x3F NOT DUP11 DUP3 SUB ADD DUP7 MSTORE DUP9 MLOAD PUSH2 0x973 JUMP JUMPDEST SWAP7 ADD SWAP3 ADD SWAP3 ADD DUP6 SWAP5 SWAP4 SWAP2 SWAP3 PUSH2 0xEC JUMP JUMPDEST PUSH1 0xC PUSH1 0x20 PUSH1 0x1 SWAP3 PUSH2 0x13A DUP6 PUSH2 0x16E0 JUMP JUMPDEST DUP2 MSTORE ADD SWAP3 ADD SWAP3 ADD SWAP2 SWAP1 PUSH2 0xBC JUMP JUMPDEST PUSH1 0x0 DUP1 REVERT JUMPDEST CALLVALUE PUSH2 0x148 JUMPI PUSH1 0x40 CALLDATASIZE PUSH1 0x3 NOT ADD SLT PUSH2 0x148 JUMPI PUSH2 0x166 PUSH2 0x848 JUMP JUMPDEST PUSH1 0x24 CALLDATALOAD SWAP1 PUSH2 0x172 PUSH2 0x15DB JUMP JUMPDEST POP PUSH1 0x1 DUP1 PUSH1 0xA0 SHL SUB AND SWAP1 DUP2 PUSH1 0x0 MSTORE PUSH1 0x0 PUSH1 0x20 MSTORE PUSH1 0x40 PUSH1 0x0 KECCAK256 SLOAD DUP2 LT ISZERO PUSH2 0x1CD JUMPI PUSH2 0x1AF PUSH2 0x1B5 SWAP2 PUSH2 0x1C9 SWAP4 PUSH1 0x0 MSTORE PUSH1 0x0 PUSH1 0x20 MSTORE PUSH1 0x40 PUSH1 0x0 KECCAK256 PUSH2 0xADF JUMP JUMPDEST POP PUSH2 0x16E0 JUMP JUMPDEST PUSH1 0x40 MLOAD SWAP2 DUP3 SWAP2 PUSH1 0x20 DUP4 MSTORE PUSH1 0x20 DUP4 ADD SWAP1 PUSH2 0x973 JUMP JUMPDEST SUB SWAP1 RETURN JUMPDEST PUSH1 0x40 MLOAD PUSH3 0x461BCD PUSH1 0xE5 SHL DUP2 MSTORE PUSH1 0x20 PUSH1 0x4 DUP3 ADD MSTORE PUSH1 0x13 PUSH1 0x24 DUP3 ADD MSTORE PUSH19 0x496E646578206F7574206F6620626F756E6473 PUSH1 0x68 SHL PUSH1 0x44 DUP3 ADD MSTORE PUSH1 0x64 SWAP1 REVERT JUMPDEST CALLVALUE PUSH2 0x148 JUMPI PUSH1 0x20 CALLDATASIZE PUSH1 0x3 NOT ADD SLT PUSH2 0x148 JUMPI PUSH1 0x1 PUSH1 0x1 PUSH1 0xA0 SHL SUB PUSH2 0x229 PUSH2 0x848 JUMP JUMPDEST AND PUSH1 0x0 MSTORE PUSH1 0x0 PUSH1 0x20 MSTORE PUSH1 0x20 PUSH1 0x40 PUSH1 0x0 KECCAK256 SLOAD PUSH1 0x40 MLOAD SWAP1 DUP2 MSTORE RETURN JUMPDEST CALLVALUE PUSH2 0x148 JUMPI PUSH2 0x140 CALLDATASIZE PUSH1 0x3 NOT ADD SLT PUSH2 0x148 JUMPI PUSH2 0x25C PUSH2 0x848 JUMP JUMPDEST PUSH1 0x24 CALLDATALOAD PUSH1 0x1 PUSH1 0x1 PUSH1 0x40 SHL SUB DUP2 GT PUSH2 0x148 JUMPI PUSH2 0x27B SWAP1 CALLDATASIZE SWAP1 PUSH1 0x4 ADD PUSH2 0x85E JUMP JUMPDEST SWAP1 PUSH1 0x44 CALLDATALOAD PUSH1 0x1 PUSH1 0x1 PUSH1 0x40 SHL SUB DUP2 GT PUSH2 0x148 JUMPI PUSH2 0x29B SWAP1 CALLDATASIZE SWAP1 PUSH1 0x4 ADD PUSH2 0x85E JUMP JUMPDEST SWAP1 PUSH1 0x64 CALLDATALOAD PUSH1 0x1 PUSH1 0x1 PUSH1 0x40 SHL SUB DUP2 GT PUSH2 0x148 JUMPI PUSH2 0x2BB SWAP1 CALLDATASIZE SWAP1 PUSH1 0x4 ADD PUSH2 0x85E JUMP JUMPDEST SWAP3 PUSH1 0x84 CALLDATALOAD PUSH1 0x1 PUSH1 0x1 PUSH1 0x40 SHL SUB DUP2 GT PUSH2 0x148 JUMPI PUSH2 0x2DB SWAP1 CALLDATASIZE SWAP1 PUSH1 0x4 ADD PUSH2 0x85E JUMP JUMPDEST SWAP2 PUSH1 0xA4 CALLDATALOAD PUSH1 0x1 PUSH1 0x1 PUSH1 0x40 SHL SUB DUP2 GT PUSH2 0x148 JUMPI PUSH2 0x2FB SWAP1 CALLDATASIZE SWAP1 PUSH1 0x4 ADD PUSH2 0x85E JUMP JUMPDEST PUSH1 0xC4 CALLDATALOAD PUSH1 0x1 PUSH1 0x1 PUSH1 0x40 SHL SUB DUP2 GT PUSH2 0x148 JUMPI PUSH2 0x31A SWAP1 CALLDATASIZE SWAP1 PUSH1 0x4 ADD PUSH2 0x85E JUMP JUMPDEST PUSH1 0xE4 CALLDATALOAD PUSH1 0x1 PUSH1 0x1 PUSH1 0x40 SHL SUB DUP2 GT PUSH2 0x148 JUMPI PUSH2 0x339 SWAP1 CALLDATASIZE SWAP1 PUSH1 0x4 ADD PUSH2 0x85E JUMP JUMPDEST SWAP1 PUSH2 0x104 CALLDATALOAD PUSH1 0x1 PUSH1 0x1 PUSH1 0x40 SHL SUB DUP2 GT PUSH2 0x148 JUMPI PUSH2 0x35A SWAP1 CALLDATASIZE SWAP1 PUSH1 0x4 ADD PUSH2 0x85E JUMP JUMPDEST SWAP3 PUSH2 0x124 CALLDATALOAD SWAP7 PUSH1 0x1 PUSH1 0x1 PUSH1 0x40 SHL SUB DUP9 GT PUSH2 0x148 JUMPI PUSH2 0x37F PUSH2 0x3F5 SWAP9 CALLDATASIZE SWAP1 PUSH1 0x4 ADD PUSH2 0x85E JUMP JUMPDEST SWAP10 PUSH2 0x38B CALLER ISZERO ISZERO PUSH2 0xA69 JUMP JUMPDEST PUSH1 0x40 MLOAD SWAP8 PUSH2 0x398 DUP10 PUSH2 0x7DE JUMP JUMPDEST DUP9 MSTORE DUP10 PUSH1 0x20 DUP10 ADD MSTORE PUSH1 0x40 DUP9 ADD MSTORE PUSH1 0x60 DUP8 ADD MSTORE PUSH1 0x80 DUP7 ADD MSTORE PUSH1 0xA0 DUP6 ADD MSTORE PUSH1 0xC0 DUP5 ADD MSTORE PUSH1 0xE0 DUP4 ADD MSTORE PUSH1 0x1 DUP1 PUSH1 0xA0 SHL SUB AND SWAP4 DUP5 PUSH2 0x100 DUP4 ADD MSTORE CALLER PUSH2 0x120 DUP4 ADD MSTORE PUSH2 0x140 DUP3 ADD MSTORE TIMESTAMP PUSH2 0x160 DUP3 ADD MSTORE DUP4 PUSH1 0x0 MSTORE PUSH1 0x0 PUSH1 0x20 MSTORE PUSH1 0x40 PUSH1 0x0 KECCAK256 PUSH2 0xB35 JUMP JUMPDEST PUSH32 0xD4C8B54BB811347956D50E4E7ADA18786723B008C84B0D9BE92F77312C8D4A8 PUSH1 0x40 MLOAD DUP1 PUSH2 0x427 CALLER SWAP5 TIMESTAMP SWAP1 DUP4 PUSH2 0x15BF JUMP JUMPDEST SUB SWAP1 LOG3 STOP JUMPDEST CALLVALUE PUSH2 0x148 JUMPI PUSH1 0x40 CALLDATASIZE PUSH1 0x3 NOT ADD SLT PUSH2 0x148 JUMPI PUSH2 0x445 PUSH2 0x848 JUMP JUMPDEST PUSH1 0x24 CALLDATALOAD PUSH1 0x1 PUSH1 0x1 PUSH1 0x40 SHL SUB DUP2 GT PUSH2 0x148 JUMPI PUSH2 0x1C9 SWAP2 PUSH2 0x46B PUSH2 0x1B5 SWAP3 CALLDATASIZE SWAP1 PUSH1 0x4 ADD PUSH2 0x85E JUMP JUMPDEST SWAP1 PUSH2 0x17B1 JUMP JUMPDEST CALLVALUE PUSH2 0x148 JUMPI PUSH2 0x140 CALLDATASIZE PUSH1 0x3 NOT ADD SLT PUSH2 0x148 JUMPI PUSH1 0x4 CALLDATALOAD PUSH1 0x1 PUSH1 0x1 PUSH1 0x40 SHL SUB DUP2 GT PUSH2 0x148 JUMPI CALLDATASIZE PUSH1 0x23 DUP3 ADD SLT ISZERO PUSH2 0x148 JUMPI DUP1 PUSH1 0x4 ADD CALLDATALOAD PUSH2 0x4AD DUP2 PUSH2 0x831 JUMP JUMPDEST SWAP2 PUSH2 0x4BB PUSH1 0x40 MLOAD SWAP4 DUP5 PUSH2 0x810 JUMP JUMPDEST DUP2 DUP4 MSTORE PUSH1 0x24 PUSH1 0x20 DUP5 ADD SWAP3 PUSH1 0x5 SHL DUP3 ADD ADD SWAP1 CALLDATASIZE DUP3 GT PUSH2 0x148 JUMPI PUSH1 0x24 ADD SWAP2 JUMPDEST DUP2 DUP4 LT PUSH2 0x7BE JUMPI DUP4 PUSH1 0x24 CALLDATALOAD PUSH1 0x1 PUSH1 0x1 PUSH1 0x40 SHL SUB DUP2 GT PUSH2 0x148 JUMPI PUSH2 0x4FF SWAP1 CALLDATASIZE SWAP1 PUSH1 0x4 ADD PUSH2 0x85E JUMP JUMPDEST SWAP1 PUSH1 0x44 CALLDATALOAD PUSH1 0x1 PUSH1 0x1 PUSH1 0x40 SHL SUB DUP2 GT PUSH2 0x148 JUMPI PUSH2 0x51F SWAP1 CALLDATASIZE SWAP1 PUSH1 0x4 ADD PUSH2 0x85E JUMP JUMPDEST SWAP2 PUSH1 0x64 CALLDATALOAD PUSH1 0x1 PUSH1 0x1 PUSH1 0x40 SHL SUB DUP2 GT PUSH2 0x148 JUMPI PUSH2 0x53F SWAP1 CALLDATASIZE SWAP1 PUSH1 0x4 ADD PUSH2 0x8B4 JUMP JUMPDEST SWAP3 PUSH1 0x84 CALLDATALOAD PUSH1 0x1 PUSH1 0x1 PUSH1 0x40 SHL SUB DUP2 GT PUSH2 0x148 JUMPI PUSH2 0x55F SWAP1 CALLDATASIZE SWAP1 PUSH1 0x4 ADD PUSH2 0x85E JUMP JUMPDEST SWAP3 PUSH1 0xA4 CALLDATALOAD PUSH1 0x1 PUSH1 0x1 PUSH1 0x40 SHL SUB DUP2 GT PUSH2 0x148 JUMPI PUSH2 0x57F SWAP1 CALLDATASIZE SWAP1 PUSH1 0x4 ADD PUSH2 0x85E JUMP JUMPDEST SWAP3 PUSH1 0xC4 CALLDATALOAD PUSH1 0x1 PUSH1 0x1 PUSH1 0x40 SHL SUB DUP2 GT PUSH2 0x148 JUMPI PUSH2 0x59F SWAP1 CALLDATASIZE SWAP1 PUSH1 0x4 ADD PUSH2 0x85E JUMP JUMPDEST SWAP5 PUSH1 0xE4 CALLDATALOAD PUSH1 0x1 PUSH1 0x1 PUSH1 0x40 SHL SUB DUP2 GT PUSH2 0x148 JUMPI PUSH2 0x5BF SWAP1 CALLDATASIZE SWAP1 PUSH1 0x4 ADD PUSH2 0x85E JUMP JUMPDEST PUSH2 0x104 CALLDATALOAD PUSH1 0x1 PUSH1 0x1 PUSH1 0x40 SHL SUB DUP2 GT PUSH2 0x148 JUMPI PUSH2 0x5DF SWAP1 CALLDATASIZE SWAP1 PUSH1 0x4 ADD PUSH2 0x8B4 JUMP JUMPDEST SWAP2 PUSH2 0x124 CALLDATALOAD PUSH1 0x1 PUSH1 0x1 PUSH1 0x40 SHL SUB DUP2 GT PUSH2 0x148 JUMPI PUSH2 0x600 SWAP1 CALLDATASIZE SWAP1 PUSH1 0x4 ADD PUSH2 0x8B4 JUMP JUMPDEST SWAP2 PUSH2 0x60C CALLER ISZERO ISZERO PUSH2 0xA69 JUMP JUMPDEST DUP6 MLOAD DUP11 MLOAD DUP2 EQ SWAP1 DUP2 PUSH2 0x7B3 JUMPI JUMPDEST DUP2 PUSH2 0x7A8 JUMPI JUMPDEST POP ISZERO PUSH2 0x76B JUMPI DUP6 MLOAD SWAP9 PUSH1 0x0 JUMPDEST DUP11 DUP2 LT PUSH2 0x667 JUMPI DUP11 PUSH1 0x40 MLOAD SWAP1 DUP2 MSTORE TIMESTAMP PUSH1 0x20 DUP3 ADD MSTORE PUSH32 0xAA4D034A3AFC743EA3D35836E771F0693BD6C9386F7CF4A42C56B246C4DC12E1 PUSH1 0x40 CALLER SWAP3 LOG2 STOP JUMPDEST DUP1 PUSH2 0x71D DUP9 DUP12 DUP16 DUP13 DUP16 DUP13 PUSH2 0x6A8 DUP9 PUSH2 0x68E DUP16 SWAP7 SWAP12 PUSH2 0x687 DUP2 PUSH1 0x1 SWAP15 PUSH2 0xAB5 JUMP JUMPDEST MLOAD SWAP5 PUSH2 0xAB5 JUMP JUMPDEST MLOAD SWAP5 PUSH2 0x6A0 DUP3 DUP14 DUP1 PUSH1 0xA0 SHL SUB SWAP3 PUSH2 0xAB5 JUMP JUMPDEST MLOAD AND SWAP6 PUSH2 0xAB5 JUMP JUMPDEST MLOAD SWAP5 PUSH1 0x40 MLOAD SWAP7 PUSH2 0x6B7 DUP9 PUSH2 0x7DE JUMP JUMPDEST DUP8 MSTORE PUSH1 0x20 DUP8 ADD MSTORE PUSH1 0x40 DUP7 ADD MSTORE DUP11 PUSH1 0x60 DUP7 ADD MSTORE PUSH1 0x80 DUP6 ADD MSTORE DUP8 PUSH1 0xA0 DUP6 ADD MSTORE DUP9 PUSH1 0xC0 DUP6 ADD MSTORE PUSH1 0xE0 DUP5 ADD MSTORE PUSH2 0x100 DUP4 ADD MSTORE CALLER PUSH2 0x120 DUP4 ADD MSTORE PUSH2 0x140 DUP3 ADD MSTORE TIMESTAMP PUSH2 0x160 DUP3 ADD MSTORE DUP4 DUP1 PUSH1 0xA0 SHL SUB PUSH2 0x709 DUP5 DUP14 PUSH2 0xAB5 JUMP JUMPDEST MLOAD AND PUSH1 0x0 MSTORE PUSH1 0x0 PUSH1 0x20 MSTORE PUSH1 0x40 PUSH1 0x0 KECCAK256 PUSH2 0xB35 JUMP JUMPDEST DUP2 DUP1 PUSH1 0xA0 SHL SUB PUSH2 0x72D DUP3 DUP12 PUSH2 0xAB5 JUMP JUMPDEST MLOAD AND DUP11 PUSH32 0xD4C8B54BB811347956D50E4E7ADA18786723B008C84B0D9BE92F77312C8D4A8 PUSH1 0x40 MLOAD DUP1 PUSH2 0x762 CALLER SWAP5 TIMESTAMP SWAP1 DUP4 PUSH2 0x15BF JUMP JUMPDEST SUB SWAP1 LOG3 ADD PUSH2 0x62B JUMP JUMPDEST PUSH1 0x40 MLOAD PUSH3 0x461BCD PUSH1 0xE5 SHL DUP2 MSTORE PUSH1 0x20 PUSH1 0x4 DUP3 ADD MSTORE PUSH1 0x15 PUSH1 0x24 DUP3 ADD MSTORE PUSH21 0x82E4E4C2F240D8CADCCEE8D040DAD2E6DAC2E8C6D PUSH1 0x5B SHL PUSH1 0x44 DUP3 ADD MSTORE PUSH1 0x64 SWAP1 REVERT JUMPDEST SWAP1 POP DUP4 MLOAD EQ DUP12 PUSH2 0x61F JUMP JUMPDEST DUP6 MLOAD DUP2 EQ SWAP2 POP PUSH2 0x619 JUMP JUMPDEST DUP3 CALLDATALOAD PUSH1 0x1 PUSH1 0x1 PUSH1 0xA0 SHL SUB DUP2 AND DUP2 SUB PUSH2 0x148 JUMPI DUP2 MSTORE PUSH1 0x20 SWAP3 DUP4 ADD SWAP3 ADD PUSH2 0x4D8 JUMP JUMPDEST PUSH2 0x180 DUP2 ADD SWAP1 DUP2 LT PUSH1 0x1 PUSH1 0x1 PUSH1 0x40 SHL SUB DUP3 GT OR PUSH2 0x7FA JUMPI PUSH1 0x40 MSTORE JUMP JUMPDEST PUSH4 0x4E487B71 PUSH1 0xE0 SHL PUSH1 0x0 MSTORE PUSH1 0x41 PUSH1 0x4 MSTORE PUSH1 0x24 PUSH1 0x0 REVERT JUMPDEST SWAP1 PUSH1 0x1F DUP1 NOT SWAP2 ADD AND DUP2 ADD SWAP1 DUP2 LT PUSH1 0x1 PUSH1 0x1 PUSH1 0x40 SHL SUB DUP3 GT OR PUSH2 0x7FA JUMPI PUSH1 0x40 MSTORE JUMP JUMPDEST PUSH1 0x1 PUSH1 0x1 PUSH1 0x40 SHL SUB DUP2 GT PUSH2 0x7FA JUMPI PUSH1 0x5 SHL PUSH1 0x20 ADD SWAP1 JUMP JUMPDEST PUSH1 0x4 CALLDATALOAD SWAP1 PUSH1 0x1 PUSH1 0x1 PUSH1 0xA0 SHL SUB DUP3 AND DUP3 SUB PUSH2 0x148 JUMPI JUMP JUMPDEST DUP2 PUSH1 0x1F DUP3 ADD SLT ISZERO PUSH2 0x148 JUMPI DUP1 CALLDATALOAD SWAP1 PUSH1 0x1 PUSH1 0x1 PUSH1 0x40 SHL SUB DUP3 GT PUSH2 0x7FA JUMPI PUSH1 0x40 MLOAD SWAP3 PUSH2 0x892 PUSH1 0x1F DUP5 ADD PUSH1 0x1F NOT AND PUSH1 0x20 ADD DUP6 PUSH2 0x810 JUMP JUMPDEST DUP3 DUP5 MSTORE PUSH1 0x20 DUP4 DUP4 ADD ADD GT PUSH2 0x148 JUMPI DUP2 PUSH1 0x0 SWAP3 PUSH1 0x20 DUP1 SWAP4 ADD DUP4 DUP7 ADD CALLDATACOPY DUP4 ADD ADD MSTORE SWAP1 JUMP JUMPDEST SWAP1 DUP1 PUSH1 0x1F DUP4 ADD SLT ISZERO PUSH2 0x148 JUMPI DUP2 CALLDATALOAD PUSH2 0x8CB DUP2 PUSH2 0x831 JUMP JUMPDEST SWAP3 PUSH2 0x8D9 PUSH1 0x40 MLOAD SWAP5 DUP6 PUSH2 0x810 JUMP JUMPDEST DUP2 DUP5 MSTORE PUSH1 0x20 DUP1 DUP6 ADD SWAP3 PUSH1 0x5 SHL DUP3 ADD ADD SWAP2 DUP4 DUP4 GT PUSH2 0x148 JUMPI PUSH1 0x20 DUP3 ADD SWAP1 JUMPDEST DUP4 DUP3 LT PUSH2 0x905 JUMPI POP POP POP POP POP SWAP1 JUMP JUMPDEST DUP2 CALLDATALOAD PUSH1 0x1 PUSH1 0x1 PUSH1 0x40 SHL SUB DUP2 GT PUSH2 0x148 JUMPI PUSH1 0x20 SWAP2 PUSH2 0x927 DUP8 DUP5 DUP1 SWAP5 DUP9 ADD ADD PUSH2 0x85E JUMP JUMPDEST DUP2 MSTORE ADD SWAP2 ADD SWAP1 PUSH2 0x8F6 JUMP JUMPDEST SWAP2 SWAP1 DUP3 MLOAD SWAP3 DUP4 DUP3 MSTORE PUSH1 0x0 JUMPDEST DUP5 DUP2 LT PUSH2 0x95E JUMPI POP POP DUP3 PUSH1 0x0 PUSH1 0x20 DUP1 SWAP5 SWAP6 DUP5 ADD ADD MSTORE PUSH1 0x1F DUP1 NOT SWAP2 ADD AND ADD ADD SWAP1 JUMP JUMPDEST DUP1 PUSH1 0x20 DUP1 SWAP3 DUP5 ADD ADD MLOAD DUP3 DUP3 DUP7 ADD ADD MSTORE ADD PUSH2 0x93D JUMP JUMPDEST SWAP1 PUSH2 0x160 DUP1 PUSH2 0xA60 PUSH2 0xA24 PUSH2 0xA12 PUSH2 0xA00 PUSH2 0x9EE PUSH2 0x9DC PUSH2 0x9CA PUSH2 0x9B8 PUSH2 0x9A5 DUP13 MLOAD PUSH2 0x180 DUP14 MSTORE PUSH2 0x180 DUP14 ADD SWAP1 PUSH2 0x932 JUMP JUMPDEST PUSH1 0x20 DUP14 ADD MLOAD DUP13 PUSH1 0x20 DUP2 DUP5 SUB SWAP2 ADD MSTORE PUSH2 0x932 JUMP JUMPDEST PUSH1 0x40 DUP13 ADD MLOAD DUP12 DUP3 SUB PUSH1 0x40 DUP14 ADD MSTORE PUSH2 0x932 JUMP JUMPDEST PUSH1 0x60 DUP12 ADD MLOAD DUP11 DUP3 SUB PUSH1 0x60 DUP13 ADD MSTORE PUSH2 0x932 JUMP JUMPDEST PUSH1 0x80 DUP11 ADD MLOAD DUP10 DUP3 SUB PUSH1 0x80 DUP12 ADD MSTORE PUSH2 0x932 JUMP JUMPDEST PUSH1 0xA0 DUP10 ADD MLOAD DUP9 DUP3 SUB PUSH1 0xA0 DUP11 ADD MSTORE PUSH2 0x932 JUMP JUMPDEST PUSH1 0xC0 DUP9 ADD MLOAD DUP8 DUP3 SUB PUSH1 0xC0 DUP10 ADD MSTORE PUSH2 0x932 JUMP JUMPDEST PUSH1 0xE0 DUP8 ADD MLOAD DUP7 DUP3 SUB PUSH1 0xE0 DUP9 ADD MSTORE PUSH2 0x932 JUMP JUMPDEST PUSH1 0x1 DUP1 PUSH1 0xA0 SHL SUB PUSH2 0x100 DUP8 ADD MLOAD AND PUSH2 0x100 DUP7 ADD MSTORE PUSH1 0x1 DUP1 PUSH1 0xA0 SHL SUB PUSH2 0x120 DUP8 ADD MLOAD AND PUSH2 0x120 DUP7 ADD MSTORE PUSH2 0x140 DUP7 ADD MLOAD DUP6 DUP3 SUB PUSH2 0x140 DUP8 ADD MSTORE PUSH2 0x932 JUMP JUMPDEST SWAP4 ADD MLOAD SWAP2 ADD MSTORE SWAP1 JUMP JUMPDEST ISZERO PUSH2 0xA70 JUMPI JUMP JUMPDEST PUSH1 0x40 MLOAD PUSH3 0x461BCD PUSH1 0xE5 SHL DUP2 MSTORE PUSH1 0x20 PUSH1 0x4 DUP3 ADD MSTORE PUSH1 0x1B PUSH1 0x24 DUP3 ADD MSTORE PUSH32 0x496E76616C696420696E737469747574696F6E20616464726573730000000000 PUSH1 0x44 DUP3 ADD MSTORE PUSH1 0x64 SWAP1 REVERT JUMPDEST DUP1 MLOAD DUP3 LT ISZERO PUSH2 0xAC9 JUMPI PUSH1 0x20 SWAP2 PUSH1 0x5 SHL ADD ADD SWAP1 JUMP JUMPDEST PUSH4 0x4E487B71 PUSH1 0xE0 SHL PUSH1 0x0 MSTORE PUSH1 0x32 PUSH1 0x4 MSTORE PUSH1 0x24 PUSH1 0x0 REVERT JUMPDEST DUP1 SLOAD DUP3 LT ISZERO PUSH2 0xAC9 JUMPI PUSH1 0x0 MSTORE PUSH1 0xC PUSH1 0x20 PUSH1 0x0 KECCAK256 SWAP2 MUL ADD SWAP1 PUSH1 0x0 SWAP1 JUMP JUMPDEST SWAP1 PUSH1 0x1 DUP3 DUP2 SHR SWAP3 AND DUP1 ISZERO PUSH2 0xB2B JUMPI JUMPDEST PUSH1 0x20 DUP4 LT EQ PUSH2 0xB15 JUMPI JUMP JUMPDEST PUSH4 0x4E487B71 PUSH1 0xE0 SHL PUSH1 0x0 MSTORE PUSH1 0x22 PUSH1 0x4 MSTORE PUSH1 0x24 PUSH1 0x0 REVERT JUMPDEST SWAP2 PUSH1 0x7F AND SWAP2 PUSH2 0xB0A JUMP JUMPDEST SWAP2 SWAP1 SWAP2 DUP1 SLOAD PUSH9 0x10000000000000000 DUP2 LT ISZERO PUSH2 0x7FA JUMPI PUSH2 0xB5A SWAP2 PUSH1 0x1 DUP3 ADD DUP2 SSTORE PUSH2 0xADF JUMP JUMPDEST PUSH2 0x15A9 JUMPI DUP3 MLOAD SWAP3 DUP4 MLOAD PUSH1 0x1 PUSH1 0x1 PUSH1 0x40 SHL SUB DUP2 GT PUSH2 0x7FA JUMPI PUSH2 0xB7B DUP4 SLOAD PUSH2 0xAFB JUMP JUMPDEST PUSH1 0x1F DUP2 GT PUSH2 0x1561 JUMPI JUMPDEST POP PUSH1 0x20 SWAP5 PUSH1 0x1F DUP3 GT PUSH1 0x1 EQ PUSH2 0x14FC JUMPI SWAP5 DUP2 SWAP3 SWAP4 SWAP5 SWAP6 PUSH1 0x0 SWAP3 PUSH2 0x14F1 JUMPI JUMPDEST POP POP DUP2 PUSH1 0x1 SHL SWAP2 PUSH1 0x0 NOT SWAP1 PUSH1 0x3 SHL SHR NOT AND OR DUP3 SSTORE JUMPDEST PUSH1 0x1 DUP3 ADD PUSH1 0x20 DUP3 ADD MLOAD DUP1 MLOAD SWAP1 PUSH1 0x1 PUSH1 0x1 PUSH1 0x40 SHL SUB DUP3 GT PUSH2 0x7FA JUMPI DUP2 SWAP1 PUSH2 0xBDC DUP5 SLOAD PUSH2 0xAFB JUMP JUMPDEST PUSH1 0x1F DUP2 GT PUSH2 0x149E JUMPI JUMPDEST POP PUSH1 0x20 SWAP1 PUSH1 0x1F DUP4 GT PUSH1 0x1 EQ PUSH2 0x1439 JUMPI PUSH1 0x0 SWAP3 PUSH2 0x142E JUMPI JUMPDEST POP POP DUP2 PUSH1 0x1 SHL SWAP2 PUSH1 0x0 NOT SWAP1 PUSH1 0x3 SHL SHR NOT AND OR SWAP1 SSTORE JUMPDEST PUSH1 0x2 DUP3 ADD PUSH1 0x40 DUP3 ADD MLOAD DUP1 MLOAD SWAP1 PUSH1 0x1 PUSH1 0x1 PUSH1 0x40 SHL SUB DUP3 GT PUSH2 0x7FA JUMPI DUP2 SWAP1 PUSH2 0xC37 DUP5 SLOAD PUSH2 0xAFB JUMP JUMPDEST PUSH1 0x1F DUP2 GT PUSH2 0x13DB JUMPI JUMPDEST POP PUSH1 0x20 SWAP1 PUSH1 0x1F DUP4 GT PUSH1 0x1 EQ PUSH2 0x1376 JUMPI PUSH1 0x0 SWAP3 PUSH2 0x136B JUMPI JUMPDEST POP POP DUP2 PUSH1 0x1 SHL SWAP2 PUSH1 0x0 NOT SWAP1 PUSH1 0x3 SHL SHR NOT AND OR SWAP1 SSTORE JUMPDEST PUSH1 0x3 DUP3 ADD PUSH1 0x60 DUP3 ADD MLOAD DUP1 MLOAD SWAP1 PUSH1 0x1 PUSH1 0x1 PUSH1 0x40 SHL SUB DUP3 GT PUSH2 0x7FA JUMPI DUP2 SWAP1 PUSH2 0xC92 DUP5 SLOAD PUSH2 0xAFB JUMP JUMPDEST PUSH1 0x1F DUP2 GT PUSH2 0x1318 JUMPI JUMPDEST POP PUSH1 0x20 SWAP1 PUSH1 0x1F DUP4 GT PUSH1 0x1 EQ PUSH2 0x12B3 JUMPI PUSH1 0x0 SWAP3 PUSH2 0x12A8 JUMPI JUMPDEST POP POP DUP2 PUSH1 0x1 SHL SWAP2 PUSH1 0x0 NOT SWAP1 PUSH1 0x3 SHL SHR NOT AND OR SWAP1 SSTORE JUMPDEST PUSH1 0x4 DUP3 ADD PUSH1 0x80 DUP3 ADD MLOAD DUP1 MLOAD SWAP1 PUSH1 0x1 PUSH1 0x1 PUSH1 0x40 SHL SUB DUP3 GT PUSH2 0x7FA JUMPI DUP2 SWAP1 PUSH2 0xCED DUP5 SLOAD PUSH2 0xAFB JUMP JUMPDEST PUSH1 0x1F DUP2 GT PUSH2 0x1255 JUMPI JUMPDEST POP PUSH1 0x20 SWAP1 PUSH1 0x1F DUP4 GT PUSH1 0x1 EQ PUSH2 0x11F0 JUMPI PUSH1 0x0 SWAP3 PUSH2 0x11E5 JUMPI JUMPDEST POP POP DUP2 PUSH1 0x1 SHL SWAP2 PUSH1 0x0 NOT SWAP1 PUSH1 0x3 SHL SHR NOT AND OR SWAP1 SSTORE JUMPDEST PUSH1 0x5 DUP3 ADD PUSH1 0xA0 DUP3 ADD MLOAD DUP1 MLOAD SWAP1 PUSH1 0x1 PUSH1 0x1 PUSH1 0x40 SHL SUB DUP3 GT PUSH2 0x7FA JUMPI DUP2 SWAP1 PUSH2 0xD48 DUP5 SLOAD PUSH2 0xAFB JUMP JUMPDEST PUSH1 0x1F DUP2 GT PUSH2 0x1192 JUMPI JUMPDEST POP PUSH1 0x20 SWAP1 PUSH1 0x1F DUP4 GT PUSH1 0x1 EQ PUSH2 0x112D JUMPI PUSH1 0x0 SWAP3 PUSH2 0x1122 JUMPI JUMPDEST POP POP DUP2 PUSH1 0x1 SHL SWAP2 PUSH1 0x0 NOT SWAP1 PUSH1 0x3 SHL SHR NOT AND OR SWAP1 SSTORE JUMPDEST PUSH1 0x6 DUP3 ADD PUSH1 0xC0 DUP3 ADD MLOAD DUP1 MLOAD SWAP1 PUSH1 0x1 PUSH1 0x1 PUSH1 0x40 SHL SUB DUP3 GT PUSH2 0x7FA JUMPI DUP2 SWAP1 PUSH2 0xDA3 DUP5 SLOAD PUSH2 0xAFB JUMP JUMPDEST PUSH1 0x1F DUP2 GT PUSH2 0x10CF JUMPI JUMPDEST POP PUSH1 0x20 SWAP1 PUSH1 0x1F DUP4 GT PUSH1 0x1 EQ PUSH2 0x106A JUMPI PUSH1 0x0 SWAP3 PUSH2 0x105F JUMPI JUMPDEST POP POP DUP2 PUSH1 0x1 SHL SWAP2 PUSH1 0x0 NOT SWAP1 PUSH1 0x3 SHL SHR NOT AND OR SWAP1 SSTORE JUMPDEST PUSH1 0x7 DUP3 ADD PUSH1 0xE0 DUP3 ADD MLOAD DUP1 MLOAD SWAP1 PUSH1 0x1 PUSH1 0x1 PUSH1 0x40 SHL SUB DUP3 GT PUSH2 0x7FA JUMPI DUP2 SWAP1 PUSH2 0xDFE DUP5 SLOAD PUSH2 0xAFB JUMP JUMPDEST PUSH1 0x1F DUP2 GT PUSH2 0x100C JUMPI JUMPDEST POP PUSH1 0x20 SWAP1 PUSH1 0x1F DUP4 GT PUSH1 0x1 EQ PUSH2 0xFA7 JUMPI PUSH1 0x0 SWAP3 PUSH2 0xF9C JUMPI JUMPDEST POP POP DUP2 PUSH1 0x1 SHL SWAP2 PUSH1 0x0 NOT SWAP1 PUSH1 0x3 SHL SHR NOT AND OR SWAP1 SSTORE JUMPDEST PUSH2 0x100 DUP2 ADD MLOAD PUSH1 0x8 DUP4 ADD DUP1 SLOAD PUSH1 0x1 PUSH1 0x1 PUSH1 0xA0 SHL SUB SWAP3 DUP4 AND PUSH1 0x1 PUSH1 0x1 PUSH1 0xA0 SHL SUB NOT SWAP2 DUP3 AND OR SWAP1 SWAP2 SSTORE PUSH2 0x120 DUP4 ADD MLOAD PUSH1 0x9 DUP6 ADD DUP1 SLOAD SWAP2 SWAP1 SWAP4 AND SWAP2 AND OR SWAP1 SSTORE PUSH2 0x140 DUP2 ADD MLOAD DUP1 MLOAD PUSH1 0xA DUP5 ADD SWAP2 PUSH1 0x1 PUSH1 0x1 PUSH1 0x40 SHL SUB DUP3 GT PUSH2 0x7FA JUMPI PUSH2 0xE94 DUP4 SLOAD PUSH2 0xAFB JUMP JUMPDEST PUSH1 0x1F DUP2 GT PUSH2 0xF54 JUMPI JUMPDEST POP PUSH1 0x20 SWAP1 PUSH1 0x1F DUP4 GT PUSH1 0x1 EQ PUSH2 0xEE6 JUMPI SWAP2 DUP1 PUSH2 0x160 SWAP5 SWAP3 PUSH1 0xB SWAP7 SWAP5 PUSH1 0x0 SWAP3 PUSH2 0xEDB JUMPI JUMPDEST POP POP DUP2 PUSH1 0x1 SHL SWAP2 PUSH1 0x0 NOT SWAP1 PUSH1 0x3 SHL SHR NOT AND OR SWAP1 SSTORE JUMPDEST ADD MLOAD SWAP2 ADD SSTORE JUMP JUMPDEST ADD MLOAD SWAP1 POP CODESIZE DUP1 PUSH2 0xEBF JUMP JUMPDEST SWAP1 PUSH1 0x1F NOT DUP4 AND SWAP2 DUP5 PUSH1 0x0 MSTORE DUP2 PUSH1 0x0 KECCAK256 SWAP3 PUSH1 0x0 JUMPDEST DUP2 DUP2 LT PUSH2 0xF3C JUMPI POP SWAP3 PUSH1 0x1 SWAP3 DUP6 SWAP3 PUSH1 0xB SWAP9 SWAP7 PUSH2 0x160 SWAP9 SWAP7 LT PUSH2 0xF23 JUMPI JUMPDEST POP POP POP DUP2 SHL ADD SWAP1 SSTORE PUSH2 0xED4 JUMP JUMPDEST ADD MLOAD PUSH1 0x0 NOT PUSH1 0xF8 DUP5 PUSH1 0x3 SHL AND SHR NOT AND SWAP1 SSTORE CODESIZE DUP1 DUP1 PUSH2 0xF16 JUMP JUMPDEST SWAP3 SWAP4 PUSH1 0x20 PUSH1 0x1 DUP2 SWAP3 DUP8 DUP7 ADD MLOAD DUP2 SSTORE ADD SWAP6 ADD SWAP4 ADD PUSH2 0xEF9 JUMP JUMPDEST DUP4 PUSH1 0x0 MSTORE PUSH1 0x20 PUSH1 0x0 KECCAK256 PUSH1 0x1F DUP5 ADD PUSH1 0x5 SHR DUP2 ADD SWAP2 PUSH1 0x20 DUP6 LT PUSH2 0xF92 JUMPI JUMPDEST PUSH1 0x1F ADD PUSH1 0x5 SHR ADD SWAP1 JUMPDEST DUP2 DUP2 LT PUSH2 0xF86 JUMPI POP PUSH2 0xE9D JUMP JUMPDEST PUSH1 0x0 DUP2 SSTORE PUSH1 0x1 ADD PUSH2 0xF79 JUMP JUMPDEST SWAP1 SWAP2 POP DUP2 SWAP1 PUSH2 0xF70 JUMP JUMPDEST ADD MLOAD SWAP1 POP CODESIZE DUP1 PUSH2 0xE1E JUMP JUMPDEST PUSH1 0x0 DUP6 DUP2 MSTORE DUP3 DUP2 KECCAK256 SWAP4 POP PUSH1 0x1F NOT DUP6 AND SWAP1 JUMPDEST DUP2 DUP2 LT PUSH2 0xFF4 JUMPI POP SWAP1 DUP5 PUSH1 0x1 SWAP6 SWAP5 SWAP4 SWAP3 LT PUSH2 0xFDB JUMPI JUMPDEST POP POP POP DUP2 SHL ADD SWAP1 SSTORE PUSH2 0xE33 JUMP JUMPDEST ADD MLOAD PUSH1 0x0 NOT PUSH1 0xF8 DUP5 PUSH1 0x3 SHL AND SHR NOT AND SWAP1 SSTORE CODESIZE DUP1 DUP1 PUSH2 0xFCE JUMP JUMPDEST SWAP3 SWAP4 PUSH1 0x20 PUSH1 0x1 DUP2 SWAP3 DUP8 DUP7 ADD MLOAD DUP2 SSTORE ADD SWAP6 ADD SWAP4 ADD PUSH2 0xFB8 JUMP JUMPDEST SWAP1 SWAP2 POP DUP4 PUSH1 0x0 MSTORE PUSH1 0x20 PUSH1 0x0 KECCAK256 PUSH1 0x1F DUP5 ADD PUSH1 0x5 SHR DUP2 ADD SWAP2 PUSH1 0x20 DUP6 LT PUSH2 0x1055 JUMPI JUMPDEST SWAP1 PUSH1 0x1F DUP6 SWAP5 SWAP4 SWAP3 ADD PUSH1 0x5 SHR ADD SWAP1 JUMPDEST DUP2 DUP2 LT PUSH2 0x1046 JUMPI POP PUSH2 0xE07 JUMP JUMPDEST PUSH1 0x0 DUP2 SSTORE DUP5 SWAP4 POP PUSH1 0x1 ADD PUSH2 0x1039 JUMP JUMPDEST SWAP1 SWAP2 POP DUP2 SWAP1 PUSH2 0x102B JUMP JUMPDEST ADD MLOAD SWAP1 POP CODESIZE DUP1 PUSH2 0xDC3 JUMP JUMPDEST PUSH1 0x0 DUP6 DUP2 MSTORE DUP3 DUP2 KECCAK256 SWAP4 POP PUSH1 0x1F NOT DUP6 AND SWAP1 JUMPDEST DUP2 DUP2 LT PUSH2 0x10B7 JUMPI POP SWAP1 DUP5 PUSH1 0x1 SWAP6 SWAP5 SWAP4 SWAP3 LT PUSH2 0x109E JUMPI JUMPDEST POP POP POP DUP2 SHL ADD SWAP1 SSTORE PUSH2 0xDD8 JUMP JUMPDEST ADD MLOAD PUSH1 0x0 NOT PUSH1 0xF8 DUP5 PUSH1 0x3 SHL AND SHR NOT AND SWAP1 SSTORE CODESIZE DUP1 DUP1 PUSH2 0x1091 JUMP JUMPDEST SWAP3 SWAP4 PUSH1 0x20 PUSH1 0x1 DUP2 SWAP3 DUP8 DUP7 ADD MLOAD DUP2 SSTORE ADD SWAP6 ADD SWAP4 ADD PUSH2 0x107B JUMP JUMPDEST SWAP1 SWAP2 POP DUP4 PUSH1 0x0 MSTORE PUSH1 0x20 PUSH1 0x0 KECCAK256 PUSH1 0x1F DUP5 ADD PUSH1 0x5 SHR DUP2 ADD SWAP2 PUSH1 0x20 DUP6 LT PUSH2 0x1118 JUMPI JUMPDEST SWAP1 PUSH1 0x1F DUP6 SWAP5 SWAP4 SWAP3 ADD PUSH1 0x5 SHR ADD SWAP1 JUMPDEST DUP2 DUP2 LT PUSH2 0x1109 JUMPI POP PUSH2 0xDAC JUMP JUMPDEST PUSH1 0x0 DUP2 SSTORE DUP5 SWAP4 POP PUSH1 0x1 ADD PUSH2 0x10FC JUMP JUMPDEST SWAP1 SWAP2 POP DUP2 SWAP1 PUSH2 0x10EE JUMP JUMPDEST ADD MLOAD SWAP1 POP CODESIZE DUP1 PUSH2 0xD68 JUMP JUMPDEST PUSH1 0x0 DUP6 DUP2 MSTORE DUP3 DUP2 KECCAK256 SWAP4 POP PUSH1 0x1F NOT DUP6 AND SWAP1 JUMPDEST DUP2 DUP2 LT PUSH2 0x117A JUMPI POP SWAP1 DUP5 PUSH1 0x1 SWAP6 SWAP5 SWAP4 SWAP3 LT PUSH2 0x1161 JUMPI JUMPDEST POP POP POP DUP2 SHL ADD SWAP1 SSTORE PUSH2 0xD7D JUMP JUMPDEST ADD MLOAD PUSH1 0x0 NOT PUSH1 0xF8 DUP5 PUSH1 0x3 SHL AND SHR NOT AND SWAP1 SSTORE CODESIZE DUP1 DUP1 PUSH2 0x1154 JUMP JUMPDEST SWAP3 SWAP4 PUSH1 0x20 PUSH1 0x1 DUP2 SWAP3 DUP8 DUP7 ADD MLOAD DUP2 SSTORE ADD SWAP6 ADD SWAP4 ADD PUSH2 0x113E JUMP JUMPDEST SWAP1 SWAP2 POP DUP4 PUSH1 0x0 MSTORE PUSH1 0x20 PUSH1 0x0 KECCAK256 PUSH1 0x1F DUP5 ADD PUSH1 0x5 SHR DUP2 ADD SWAP2 PUSH1 0x20 DUP6 LT PUSH2 0x11DB JUMPI JUMPDEST SWAP1 PUSH1 0x1F DUP6 SWAP5 SWAP4 SWAP3 ADD PUSH1 0x5 SHR ADD SWAP1 JUMPDEST DUP2 DUP2 LT PUSH2 0x11CC JUMPI POP PUSH2 0xD51 JUMP JUMPDEST PUSH1 0x0 DUP2 SSTORE DUP5 SWAP4 POP PUSH1 0x1 ADD PUSH2 0x11BF JUMP JUMPDEST SWAP1 SWAP2 POP DUP2 SWAP1 PUSH2 0x11B1 JUMP JUMPDEST ADD MLOAD SWAP1 POP CODESIZE DUP1 PUSH2 0xD0D JUMP JUMPDEST PUSH1 0x0 DUP6 DUP2 MSTORE DUP3 DUP2 KECCAK256 SWAP4 POP PUSH1 0x1F NOT DUP6 AND SWAP1 JUMPDEST DUP2 DUP2 LT PUSH2 0x123D JUMPI POP SWAP1 DUP5 PUSH1 0x1 SWAP6 SWAP5 SWAP4 SWAP3 LT PUSH2 0x1224 JUMPI JUMPDEST POP POP POP DUP2 SHL ADD SWAP1 SSTORE PUSH2 0xD22 JUMP JUMPDEST ADD MLOAD PUSH1 0x0 NOT PUSH1 0xF8 DUP5 PUSH1 0x3 SHL AND SHR NOT AND SWAP1 SSTORE CODESIZE DUP1 DUP1 PUSH2 0x1217 JUMP JUMPDEST SWAP3 SWAP4 PUSH1 0x20 PUSH1 0x1 DUP2 SWAP3 DUP8 DUP7 ADD MLOAD DUP2 SSTORE ADD SWAP6 ADD SWAP4 ADD PUSH2 0x1201 JUMP JUMPDEST SWAP1 SWAP2 POP DUP4 PUSH1 0x0 MSTORE PUSH1 0x20 PUSH1 0x0 KECCAK256 PUSH1 0x1F DUP5 ADD PUSH1 0x5 SHR DUP2 ADD SWAP2 PUSH1 0x20 DUP6 LT PUSH2 0x129E JUMPI JUMPDEST SWAP1 PUSH1 0x1F DUP6 SWAP5 SWAP4 SWAP3 ADD PUSH1 0x5 SHR ADD SWAP1 JUMPDEST DUP2 DUP2 LT PUSH2 0x128F JUMPI POP PUSH2 0xCF6 JUMP JUMPDEST PUSH1 0x0 DUP2 SSTORE DUP5 SWAP4 POP PUSH1 0x1 ADD PUSH2 0x1282 JUMP JUMPDEST SWAP1 SWAP2 POP DUP2 SWAP1 PUSH2 0x1274 JUMP JUMPDEST ADD MLOAD SWAP1 POP CODESIZE DUP1 PUSH2 0xCB2 JUMP JUMPDEST PUSH1 0x0 DUP6 DUP2 MSTORE DUP3 DUP2 KECCAK256 SWAP4 POP PUSH1 0x1F NOT DUP6 AND SWAP1 JUMPDEST DUP2 DUP2 LT PUSH2 0x1300 JUMPI POP SWAP1 DUP5 PUSH1 0x1 SWAP6 SWAP5 SWAP4 SWAP3 LT PUSH2 0x12E7 JUMPI JUMPDEST POP POP POP DUP2 SHL ADD SWAP1 SSTORE PUSH2 0xCC7 JUMP JUMPDEST ADD MLOAD PUSH1 0x0 NOT PUSH1 0xF8 DUP5 PUSH1 0x3 SHL AND SHR NOT AND SWAP1 SSTORE CODESIZE DUP1 DUP1 PUSH2 0x12DA JUMP JUMPDEST SWAP3 SWAP4 PUSH1 0x20 PUSH1 0x1 DUP2 SWAP3 DUP8 DUP7 ADD MLOAD DUP2 SSTORE ADD SWAP6 ADD SWAP4 ADD PUSH2 0x12C4 JUMP JUMPDEST SWAP1 SWAP2 POP DUP4 PUSH1 0x0 MSTORE PUSH1 0x20 PUSH1 0x0 KECCAK256 PUSH1 0x1F DUP5 ADD PUSH1 0x5 SHR DUP2 ADD SWAP2 PUSH1 0x20 DUP6 LT PUSH2 0x1361 JUMPI JUMPDEST SWAP1 PUSH1 0x1F DUP6 SWAP5 SWAP4 SWAP3 ADD PUSH1 0x5 SHR ADD SWAP1 JUMPDEST DUP2 DUP2 LT PUSH2 0x1352 JUMPI POP PUSH2 0xC9B JUMP JUMPDEST PUSH1 0x0 DUP2 SSTORE DUP5 SWAP4 POP PUSH1 0x1 ADD PUSH2 0x1345 JUMP JUMPDEST SWAP1 SWAP2 POP DUP2 SWAP1 PUSH2 0x1337 JUMP JUMPDEST ADD MLOAD SWAP1 POP CODESIZE DUP1 PUSH2 0xC57 JUMP JUMPDEST PUSH1 0x0 DUP6 DUP2 MSTORE DUP3 DUP2 KECCAK256 SWAP4 POP PUSH1 0x1F NOT DUP6 AND SWAP1 JUMPDEST DUP2 DUP2 LT PUSH2 0x13C3 JUMPI POP SWAP1 DUP5 PUSH1 0x1 SWAP6 SWAP5 SWAP4 SWAP3 LT PUSH2 0x13AA JUMPI JUMPDEST POP POP POP DUP2 SHL ADD SWAP1 SSTORE PUSH2 0xC6C JUMP JUMPDEST ADD MLOAD PUSH1 0x0 NOT PUSH1 0xF8 DUP5 PUSH1 0x3 SHL AND SHR NOT AND SWAP1 SSTORE CODESIZE DUP1 DUP1 PUSH2 0x139D JUMP JUMPDEST SWAP3 SWAP4 PUSH1 0x20 PUSH1 0x1 DUP2 SWAP3 DUP8 DUP7 ADD MLOAD DUP2 SSTORE ADD SWAP6 ADD SWAP4 ADD PUSH2 0x1387 JUMP JUMPDEST SWAP1 SWAP2 POP DUP4 PUSH1 0x0 MSTORE PUSH1 0x20 PUSH1 0x0 KECCAK256 PUSH1 0x1F DUP5 ADD PUSH1 0x5 SHR DUP2 ADD SWAP2 PUSH1 0x20 DUP6 LT PUSH2 0x1424 JUMPI JUMPDEST SWAP1 PUSH1 0x1F DUP6 SWAP5 SWAP4 SWAP3 ADD PUSH1 0x5 SHR ADD SWAP1 JUMPDEST DUP2 DUP2 LT PUSH2 0x1415 JUMPI POP PUSH2 0xC40 JUMP JUMPDEST PUSH1 0x0 DUP2 SSTORE DUP5 SWAP4 POP PUSH1 0x1 ADD PUSH2 0x1408 JUMP JUMPDEST SWAP1 SWAP2 POP DUP2 SWAP1 PUSH2 0x13FA JUMP JUMPDEST ADD MLOAD SWAP1 POP CODESIZE DUP1 PUSH2 0xBFC JUMP JUMPDEST PUSH1 0x0 DUP6 DUP2 MSTORE DUP3 DUP2 KECCAK256 SWAP4 POP PUSH1 0x1F NOT DUP6 AND SWAP1 JUMPDEST DUP2 DUP2 LT PUSH2 0x1486 JUMPI POP SWAP1 DUP5 PUSH1 0x1 SWAP6 SWAP5 SWAP4 SWAP3 LT PUSH2 0x146D JUMPI JUMPDEST POP POP POP DUP2 SHL ADD SWAP1 SSTORE PUSH2 0xC11 JUMP JUMPDEST ADD MLOAD PUSH1 0x0 NOT PUSH1 0xF8 DUP5 PUSH1 0x3 SHL AND SHR NOT AND SWAP1 SSTORE CODESIZE DUP1 DUP1 PUSH2 0x1460 JUMP JUMPDEST SWAP3 SWAP4 PUSH1 0x20 PUSH1 0x1 DUP2 SWAP3 DUP8 DUP7 ADD MLOAD DUP2 SSTORE ADD SWAP6 ADD SWAP4 ADD PUSH2 0x144A JUMP JUMPDEST SWAP1 SWAP2 POP DUP4 PUSH1 0x0 MSTORE PUSH1 0x20 PUSH1 0x0 KECCAK256 PUSH1 0x1F DUP5 ADD PUSH1 0x5 SHR DUP2 ADD SWAP2 PUSH1 0x20 DUP6 LT PUSH2 0x14E7 JUMPI JUMPDEST SWAP1 PUSH1 0x1F DUP6 SWAP5 SWAP4 SWAP3 ADD PUSH1 0x5 SHR ADD SWAP1 JUMPDEST DUP2 DUP2 LT PUSH2 0x14D8 JUMPI POP PUSH2 0xBE5 JUMP JUMPDEST PUSH1 0x0 DUP2 SSTORE DUP5 SWAP4 POP PUSH1 0x1 ADD PUSH2 0x14CB JUMP JUMPDEST SWAP1 SWAP2 POP DUP2 SWAP1 PUSH2 0x14BD JUMP JUMPDEST ADD MLOAD SWAP1 POP CODESIZE DUP1 PUSH2 0xBA1 JUMP JUMPDEST PUSH1 0x1F NOT DUP3 AND SWAP6 DUP5 PUSH1 0x0 MSTORE DUP1 PUSH1 0x0 KECCAK256 SWAP2 PUSH1 0x0 JUMPDEST DUP9 DUP2 LT PUSH2 0x1549 JUMPI POP DUP4 PUSH1 0x1 SWAP6 SWAP7 SWAP8 SWAP9 LT PUSH2 0x1530 JUMPI JUMPDEST POP POP POP DUP2 SHL ADD DUP3 SSTORE PUSH2 0xBB6 JUMP JUMPDEST ADD MLOAD PUSH1 0x0 NOT PUSH1 0xF8 DUP5 PUSH1 0x3 SHL AND SHR NOT AND SWAP1 SSTORE CODESIZE DUP1 DUP1 PUSH2 0x1523 JUMP JUMPDEST SWAP2 SWAP3 PUSH1 0x20 PUSH1 0x1 DUP2 SWAP3 DUP7 DUP6 ADD MLOAD DUP2 SSTORE ADD SWAP5 ADD SWAP3 ADD PUSH2 0x150E JUMP JUMPDEST DUP4 PUSH1 0x0 MSTORE PUSH1 0x20 PUSH1 0x0 KECCAK256 PUSH1 0x1F DUP4 ADD PUSH1 0x5 SHR DUP2 ADD SWAP2 PUSH1 0x20 DUP5 LT PUSH2 0x159F JUMPI JUMPDEST PUSH1 0x1F ADD PUSH1 0x5 SHR ADD SWAP1 JUMPDEST DUP2 DUP2 LT PUSH2 0x1593 JUMPI POP PUSH2 0xB84 JUMP JUMPDEST PUSH1 0x0 DUP2 SSTORE PUSH1 0x1 ADD PUSH2 0x1586 JUMP JUMPDEST SWAP1 SWAP2 POP DUP2 SWAP1 PUSH2 0x157D JUMP JUMPDEST PUSH4 0x4E487B71 PUSH1 0xE0 SHL PUSH1 0x0 MSTORE PUSH1 0x0 PUSH1 0x4 MSTORE PUSH1 0x24 PUSH1 0x0 REVERT JUMPDEST SWAP3 SWAP2 SWAP1 PUSH2 0x15D6 PUSH1 0x20 SWAP2 PUSH1 0x40 DUP7 MSTORE PUSH1 0x40 DUP7 ADD SWAP1 PUSH2 0x932 JUMP JUMPDEST SWAP4 ADD MSTORE JUMP JUMPDEST PUSH1 0x40 MLOAD SWAP1 PUSH2 0x15E8 DUP3 PUSH2 0x7DE JUMP JUMPDEST PUSH1 0x0 PUSH2 0x160 DUP4 PUSH1 0x60 DUP2 MSTORE PUSH1 0x60 PUSH1 0x20 DUP3 ADD MSTORE PUSH1 0x60 PUSH1 0x40 DUP3 ADD MSTORE PUSH1 0x60 DUP1 DUP3 ADD MSTORE PUSH1 0x60 PUSH1 0x80 DUP3 ADD MSTORE PUSH1 0x60 PUSH1 0xA0 DUP3 ADD MSTORE PUSH1 0x60 PUSH1 0xC0 DUP3 ADD MSTORE PUSH1 0x60 PUSH1 0xE0 DUP3 ADD MSTORE DUP3 PUSH2 0x100 DUP3 ADD MSTORE DUP3 PUSH2 0x120 DUP3 ADD MSTORE PUSH1 0x60 PUSH2 0x140 DUP3 ADD MSTORE ADD MSTORE JUMP JUMPDEST SWAP1 PUSH1 0x40 MLOAD SWAP2 DUP3 PUSH1 0x0 DUP3 SLOAD SWAP3 PUSH2 0x1650 DUP5 PUSH2 0xAFB JUMP JUMPDEST DUP1 DUP5 MSTORE SWAP4 PUSH1 0x1 DUP2 AND SWAP1 DUP2 ISZERO PUSH2 0x16BE JUMPI POP PUSH1 0x1 EQ PUSH2 0x1677 JUMPI JUMPDEST POP PUSH2 0x1675 SWAP3 POP SUB DUP4 PUSH2 0x810 JUMP JUMPDEST JUMP JUMPDEST SWAP1 POP PUSH1 0x0 SWAP3 SWAP2 SWAP3 MSTORE PUSH1 0x20 PUSH1 0x0 KECCAK256 SWAP1 PUSH1 0x0 SWAP2 JUMPDEST DUP2 DUP4 LT PUSH2 0x16A2 JUMPI POP POP SWAP1 PUSH1 0x20 PUSH2 0x1675 SWAP3 DUP3 ADD ADD CODESIZE PUSH2 0x1668 JUMP JUMPDEST PUSH1 0x20 SWAP2 SWAP4 POP DUP1 PUSH1 0x1 SWAP2 SLOAD DUP4 DUP6 DUP10 ADD ADD MSTORE ADD SWAP2 ADD SWAP1 SWAP2 DUP5 SWAP3 PUSH2 0x1689 JUMP JUMPDEST SWAP1 POP PUSH1 0x20 SWAP3 POP PUSH2 0x1675 SWAP5 SWAP2 POP PUSH1 0xFF NOT AND DUP3 DUP5 ADD MSTORE ISZERO ISZERO PUSH1 0x5 SHL DUP3 ADD ADD CODESIZE PUSH2 0x1668 JUMP JUMPDEST SWAP1 PUSH1 0x40 MLOAD PUSH2 0x16ED DUP2 PUSH2 0x7DE JUMP JUMPDEST PUSH2 0x160 PUSH1 0xB DUP3 SWAP5 PUSH2 0x16FD DUP2 PUSH2 0x163C JUMP JUMPDEST DUP5 MSTORE PUSH2 0x170B PUSH1 0x1 DUP3 ADD PUSH2 0x163C JUMP JUMPDEST PUSH1 0x20 DUP6 ADD MSTORE PUSH2 0x171C PUSH1 0x2 DUP3 ADD PUSH2 0x163C JUMP JUMPDEST PUSH1 0x40 DUP6 ADD MSTORE PUSH2 0x172D PUSH1 0x3 DUP3 ADD PUSH2 0x163C JUMP JUMPDEST PUSH1 0x60 DUP6 ADD MSTORE PUSH2 0x173E PUSH1 0x4 DUP3 ADD PUSH2 0x163C JUMP JUMPDEST PUSH1 0x80 DUP6 ADD MSTORE PUSH2 0x174F PUSH1 0x5 DUP3 ADD PUSH2 0x163C JUMP JUMPDEST PUSH1 0xA0 DUP6 ADD MSTORE PUSH2 0x1760 PUSH1 0x6 DUP3 ADD PUSH2 0x163C JUMP JUMPDEST PUSH1 0xC0 DUP6 ADD MSTORE PUSH2 0x1771 PUSH1 0x7 DUP3 ADD PUSH2 0x163C JUMP JUMPDEST PUSH1 0xE0 DUP6 ADD MSTORE PUSH1 0x8 DUP2 ADD SLOAD PUSH1 0x1 PUSH1 0x1 PUSH1 0xA0 SHL SUB SWAP1 DUP2 AND PUSH2 0x100 DUP7 ADD MSTORE PUSH1 0x9 DUP3 ADD SLOAD AND PUSH2 0x120 DUP6 ADD MSTORE PUSH2 0x17A4 PUSH1 0xA DUP3 ADD PUSH2 0x163C JUMP JUMPDEST PUSH2 0x140 DUP6 ADD MSTORE ADD SLOAD SWAP2 ADD MSTORE JUMP JUMPDEST PUSH2 0x17B9 PUSH2 0x15DB JUMP JUMPDEST POP PUSH1 0x1 PUSH1 0x1 PUSH1 0xA0 SHL SUB AND PUSH1 0x0 SWAP1 DUP2 MSTORE PUSH1 0x20 DUP2 SWAP1 MSTORE PUSH1 0x40 SWAP1 KECCAK256 DUP1 SLOAD PUSH2 0x17DC DUP2 PUSH2 0x831 JUMP JUMPDEST SWAP2 PUSH2 0x17EA PUSH1 0x40 MLOAD SWAP4 DUP5 PUSH2 0x810 JUMP JUMPDEST DUP2 DUP4 MSTORE PUSH1 0x20 DUP4 ADD SWAP1 PUSH1 0x0 MSTORE PUSH1 0x20 PUSH1 0x0 KECCAK256 PUSH1 0x0 SWAP2 JUMPDEST DUP4 DUP4 LT PUSH2 0x1893 JUMPI POP POP POP POP PUSH1 0x0 JUMPDEST DUP2 MLOAD DUP2 LT ISZERO PUSH2 0x184E JUMPI PUSH1 0xE0 PUSH2 0x1821 DUP3 DUP5 PUSH2 0xAB5 JUMP JUMPDEST MLOAD ADD MLOAD PUSH1 0x20 DUP2 MLOAD SWAP2 ADD KECCAK256 DUP4 MLOAD PUSH1 0x20 DUP6 ADD KECCAK256 EQ PUSH2 0x183F JUMPI PUSH1 0x1 ADD PUSH2 0x180C JUMP JUMPDEST SWAP1 PUSH2 0x184A SWAP3 POP PUSH2 0xAB5 JUMP JUMPDEST MLOAD SWAP1 JUMP JUMPDEST PUSH1 0x40 MLOAD PUSH3 0x461BCD PUSH1 0xE5 SHL DUP2 MSTORE PUSH1 0x20 PUSH1 0x4 DUP3 ADD MSTORE PUSH1 0x1A PUSH1 0x24 DUP3 ADD MSTORE PUSH32 0x436572746966696361746520646F6573206E6F74206578697374000000000000 PUSH1 0x44 DUP3 ADD MSTORE PUSH1 0x64 SWAP1 REVERT JUMPDEST PUSH1 0xC PUSH1 0x20 PUSH1 0x1 SWAP3 PUSH2 0x18A3 DUP6 PUSH2 0x16E0 JUMP JUMPDEST DUP2 MSTORE ADD SWAP3 ADD SWAP3 ADD SWAP2 SWAP1 PUSH2 0x17FE JUMP INVALID LOG2 PUSH5 0x6970667358 0x22 SLT KECCAK256 0xDB CREATE DUP12 CODECOPY 0xD4 PUSH16 0x46233C05003B64D24B9EFACFF5F3589B CODECOPY DUP6 PUSH14 0xCE9CEF59F54CD164736F6C634300 ADDMOD SHR STOP CALLER "},"methodIdentifiers":{"getCertificateByHash(address,string)":"4e39e698","getCertificateByIndex(address,uint256)":"c50ae471","getCertificateCount(address)":"b1d5ccf8","getCertificates(address)":"f1c49c62","issueCertificate(address,string,string,string,string,string,string,string,string,string)":"a29bad4d","issueCertificatesBulk(address[],string,string,string[],string,string,string,string,string[],string[])":"0886f007"}}}}}