{"contracts/UserRegistry.sol":{"UserRegistry":{"abi":[{"inputs":[{"internalType":"address","name":"_user","type":"address"}],"name":"getUser","outputs":[{"components":[{"internalType":"string","name":"firstName","type":"string"},{"internalType":"string","name":"middleName","type":"string"},{"internalType":"string","name":"lastName","type":"string"},{"internalType":"string","name":"sex","type":"string"},{"internalType":"string","name":"email","type":"string"},{"internalType":"string","name":"institutionName","type":"string"},{"internalType":"string","name":"institutionPosition","type":"string"},{"internalType":"string","name":"accreditationInfo","type":"string"},{"internalType":"string","name":"studentId","type":"string"},{"internalType":"string","name":"college","type":"string"},{"internalType":"string","name":"department","type":"string"},{"internalType":"string","name":"major","type":"string"},{"internalType":"enum UserRegistry.Role","name":"role","type":"uint8"},{"internalType":"bool","name":"isRegistered","type":"bool"}],"internalType":"struct UserRegistry.User","name":"","type":"tuple"}],"stateMutability":"view","type":"function"},{"inputs":[{"internalType":"address","name":"_user","type":"address"}],"name":"isRegistered","outputs":[{"internalType":"bool","name":"","type":"bool"}],"stateMutability":"view","type":"function"},{"inputs":[{"internalType":"address","name":"userAddress","type":"address"},{"internalType":"string","name":"_firstName","type":"string"},{"internalType":"string","name":"_middleName","type":"string"},{"internalType":"string","name":"_lastName","type":"string"},{"internalType":"string","name":"_sex","type":"string"},{"internalType":"string","name":"_email","type":"string"},{"internalType":"string","name":"_institutionName","type":"string"},{"internalType":"string","name":"_institutionPosition","type":"string"},{"internalType":"string","name":"_accreditationInfo","type":"string"},{"internalType":"string","name":"_studentId","type":"string"},{"internalType":"string","name":"_college","type":"string"},{"internalType":"string","name":"_department","type":"string"},{"internalType":"string","name":"_major","type":"string"},{"internalType":"enum UserRegistry.Role","name":"_role","type":"uint8"}],"name":"registerUser","outputs":[],"stateMutability":"nonpayable","type":"function"}],"evm":{"bytecode":{"linkReferences":{},"object":"608080604052346015576115e0908161001b8239f35b600080fdfe608080604052600436101561001357600080fd5b60003560e01c9081636f77926b146110be57508063c3c5a547146110795763ecefde751461004057600080fd5b34611074576101c03660031901126110745761005a6113d6565b6024356001600160401b0381116110745761007990369060040161146a565b906044356001600160401b0381116110745761009990369060040161146a565b6064356001600160401b038111611074576100b890369060040161146a565b926084356001600160401b038111611074576100d890369060040161146a565b60a4356001600160401b038111611074576100f790369060040161146a565b60c4356001600160401b0381116110745761011690369060040161146a565b9060e4356001600160401b0381116110745761013690369060040161146a565b92610104356001600160401b0381116110745761015790369060040161146a565b97610124356001600160401b0381116110745761017890369060040161146a565b98610144356001600160401b0381116110745761019990369060040161146a565b610164356001600160401b038111611074576101b990369060040161146a565b90610184359b6001600160401b038d11611074576101dc60049d36908f0161146a565b936101a4359d8e10156110745733600052600060205260ff600c6040600020015460081c1661102f576040519a6102128c61142d565b8b5260208b019b8c5260408b0195865260608b0196875260808b0197885260a08b0198895260c08b01998a5260e08b01526101008a015261012089015261014088015261016087015261026a6101808701998a61159e565b6101a08601976001895260018060a01b0316600052600060205260406000209686518051906001600160401b0382116107b85781906102a98b546114c0565b601f8111610fdc575b50602090601f8311600114610f7757600092610f6c575b50508160011b916000199060031b1c19161788555b51805160018901916001600160401b0382116107b857819061030084546114c0565b601f8111610f19575b50602090601f8311600114610eb457600092610ea9575b50508160011b916000199060031b1c19161790555b51805160028801916001600160401b0382116107b857819061035784546114c0565b601f8111610e56575b50602090601f8311600114610df157600092610de6575b50508160011b916000199060031b1c19161790555b51805160038701916001600160401b0382116107b85781906103ae84546114c0565b601f8111610d93575b50602090601f8311600114610d2e57600092610d23575b50508160011b916000199060031b1c19161790555b51805160048601916001600160401b0382116107b857819061040584546114c0565b601f8111610cd0575b50602090601f8311600114610c6b57600092610c60575b50508160011b916000199060031b1c19161790555b51805160058501916001600160401b0382116107b857819061045c84546114c0565b601f8111610c0d575b50602090601f8311600114610ba857600092610b9d575b50508160011b916000199060031b1c19161790555b51805160068401916001600160401b0382116107b85781906104b384546114c0565b601f8111610b4a575b50602090601f8311600114610ae557600092610ada575b50508160011b916000199060031b1c19161790555b6007820160e08201518051906001600160401b0382116107b857819061050e84546114c0565b601f8111610a87575b50602090601f8311600114610a2257600092610a17575b50508160011b916000199060031b1c19161790555b600882016101008201518051906001600160401b0382116107b857819061056a84546114c0565b601f81116109c4575b50602090601f831160011461095f57600092610954575b50508160011b916000199060031b1c19161790555b600982016101208201518051906001600160401b0382116107b85781906105c684546114c0565b601f8111610901575b50602090601f831160011461089c57600092610891575b50508160011b916000199060031b1c19161790555b600a82016101408201518051906001600160401b0382116107b857819061062284546114c0565b601f811161083e575b50602090601f83116001146107d9576000926107ce575b50508160011b916000199060031b1c19161790555b61016001518051600b8301916001600160401b0382116107b85761067b83546114c0565b601f8111610770575b50602090601f831160011461070557600c94939291600091836106fa575b50508160011b916000199060031b1c19161790555b0191519060048210156106e45760ff61ff0084549251151560081b1692169061ffff191617179055600080f35b634e487b7160e01b600052602160045260246000fd5b0151905038806106a2565b90601f1983169184600052816000209260005b8181106107585750916001939185600c989796941061073f575b505050811b0190556106b7565b015160001960f88460031b161c19169055388080610732565b92936020600181928786015181550195019301610718565b836000526020600020601f840160051c810191602085106107ae575b601f0160051c01905b8181106107a25750610684565b60008155600101610795565b909150819061078c565b634e487b7160e01b600052604160045260246000fd5b015190503880610642565b60008581528281209350601f198516905b818110610826575090846001959493921061080d575b505050811b019055610657565b015160001960f88460031b161c19169055388080610800565b929360206001819287860151815501950193016107ea565b909150836000526020600020601f840160051c81019160208510610887575b90601f859493920160051c01905b818110610878575061062b565b6000815584935060010161086b565b909150819061085d565b0151905038806105e6565b60008581528281209350601f198516905b8181106108e957509084600195949392106108d0575b505050811b0190556105fb565b015160001960f88460031b161c191690553880806108c3565b929360206001819287860151815501950193016108ad565b909150836000526020600020601f840160051c8101916020851061094a575b90601f859493920160051c01905b81811061093b57506105cf565b6000815584935060010161092e565b9091508190610920565b01519050388061058a565b60008581528281209350601f198516905b8181106109ac5750908460019594939210610993575b505050811b01905561059f565b015160001960f88460031b161c19169055388080610986565b92936020600181928786015181550195019301610970565b909150836000526020600020601f840160051c81019160208510610a0d575b90601f859493920160051c01905b8181106109fe5750610573565b600081558493506001016109f1565b90915081906109e3565b01519050388061052e565b60008581528281209350601f198516905b818110610a6f5750908460019594939210610a56575b505050811b019055610543565b015160001960f88460031b161c19169055388080610a49565b92936020600181928786015181550195019301610a33565b909150836000526020600020601f840160051c81019160208510610ad0575b90601f859493920160051c01905b818110610ac15750610517565b60008155849350600101610ab4565b9091508190610aa6565b0151905038806104d3565b60008581528281209350601f198516905b818110610b325750908460019594939210610b19575b505050811b0190556104e8565b015160001960f88460031b161c19169055388080610b0c565b92936020600181928786015181550195019301610af6565b909150836000526020600020601f840160051c81019160208510610b93575b90601f859493920160051c01905b818110610b8457506104bc565b60008155849350600101610b77565b9091508190610b69565b01519050388061047c565b60008581528281209350601f198516905b818110610bf55750908460019594939210610bdc575b505050811b019055610491565b015160001960f88460031b161c19169055388080610bcf565b92936020600181928786015181550195019301610bb9565b909150836000526020600020601f840160051c81019160208510610c56575b90601f859493920160051c01905b818110610c475750610465565b60008155849350600101610c3a565b9091508190610c2c565b015190503880610425565b60008581528281209350601f198516905b818110610cb85750908460019594939210610c9f575b505050811b01905561043a565b015160001960f88460031b161c19169055388080610c92565b92936020600181928786015181550195019301610c7c565b909150836000526020600020601f840160051c81019160208510610d19575b90601f859493920160051c01905b818110610d0a575061040e565b60008155849350600101610cfd565b9091508190610cef565b0151905038806103ce565b60008581528281209350601f198516905b818110610d7b5750908460019594939210610d62575b505050811b0190556103e3565b015160001960f88460031b161c19169055388080610d55565b92936020600181928786015181550195019301610d3f565b909150836000526020600020601f840160051c81019160208510610ddc575b90601f859493920160051c01905b818110610dcd57506103b7565b60008155849350600101610dc0565b9091508190610db2565b015190503880610377565b60008581528281209350601f198516905b818110610e3e5750908460019594939210610e25575b505050811b01905561038c565b015160001960f88460031b161c19169055388080610e18565b92936020600181928786015181550195019301610e02565b909150836000526020600020601f840160051c81019160208510610e9f575b90601f859493920160051c01905b818110610e905750610360565b60008155849350600101610e83565b9091508190610e75565b015190503880610320565b60008581528281209350601f198516905b818110610f015750908460019594939210610ee8575b505050811b019055610335565b015160001960f88460031b161c19169055388080610edb565b92936020600181928786015181550195019301610ec5565b909150836000526020600020601f840160051c81019160208510610f62575b90601f859493920160051c01905b818110610f535750610309565b60008155849350600101610f46565b9091508190610f38565b0151905038806102c9565b60008c81528281209350601f198516905b818110610fc45750908460019594939210610fab575b505050811b0188556102de565b015160001960f88460031b161c19169055388080610f9e565b92936020600181928786015181550195019301610f88565b9091508a6000526020600020601f840160051c81019160208510611025575b90601f859493920160051c01905b81811061101657506102b2565b60008155849350600101611009565b9091508190610ffb565b60405162461bcd60e51b815260206004820152601760248201527f5573657220616c726561647920726567697374657265640000000000000000006044820152606490fd5b600080fd5b34611074576020366003190112611074576001600160a01b0361109a6113d6565b166000526000602052602060ff600c6040600020015460081c166040519015158152f35b34611074576020366003190112611074576110d76113d6565b906110e18161142d565b60608152602081016060905260408101606090526060810160609052608081016060905260a081016060905260c081016060905260e08101606090526101008101606090526101208101606090526101408101606090526101608101606090526101808101600090526101a00160009052600160a01b600190031660005260006020526040600020604051906111768261142d565b61117f816114fa565b825261118d600182016114fa565b60208301908152916111a1600283016114fa565b60408201908152916111b5600382016114fa565b606083019081526111c8600483016114fa565b608084019081526111db600584016114fa565b60a085019081526111ee600685016114fa565b60c08601908152611201600786016114fa565b60e0870190815290611215600887016114fa565b61010088019081529261122a600988016114fa565b61012089019081529461123f600a89016114fa565b6101408a0190815296611254600b8a016114fa565b986101608b01998a52600c01549a6101808b019a60ff8d16611276908d61159e565b6101a081019c60081c60ff1615158d526040519d8e916020835251602083016101c090526101e083016112a8916113ec565b905191601f198183030190604001526112c0916113ec565b90518d8203601f190160608f01526112d891906113ec565b90518c8203601f190160808e01526112f091906113ec565b90518b8203601f190160a08d015261130891906113ec565b90518a8203601f190160c08c015261132091906113ec565b9051898203601f190160e08b015261133891906113ec565b9051888203601f19016101008a015261135191906113ec565b9051878203601f190161012089015261136a91906113ec565b9051868203601f190161014088015261138391906113ec565b9051858203601f190161016087015261139c91906113ec565b9051848203601f19016101808601526113b591906113ec565b90519160048310156106e45783926101a08401525115156101c08301520390f35b600435906001600160a01b038216820361107457565b919082519283825260005b848110611418575050826000602080949584010152601f8019910116010190565b806020809284010151828286010152016113f7565b6101c081019081106001600160401b038211176107b857604052565b90601f801991011681019081106001600160401b038211176107b857604052565b81601f82011215611074578035906001600160401b0382116107b8576040519261149e601f8401601f191660200185611449565b8284526020838301011161107457816000926020809301838601378301015290565b90600182811c921680156114f0575b60208310146114da57565b634e487b7160e01b600052602260045260246000fd5b91607f16916114cf565b906040519182600082549261150e846114c0565b808452936001811690811561157c5750600114611535575b5061153392500383611449565b565b90506000929192526020600020906000915b8183106115605750509060206115339282010138611526565b6020919350806001915483858901015201910190918492611547565b90506020925061153394915060ff191682840152151560051b82010138611526565b60048210156106e4575256fea26469706673582212200265b758f7c41aca89e8c20603f79fbbee4eefefa1099647546d776f0addb92e64736f6c634300081c0033","opcodes":"PUSH1 0x80 DUP1 PUSH1 0x40 MSTORE CALLVALUE PUSH1 0x15 JUMPI PUSH2 0x15E0 SWAP1 DUP2 PUSH2 0x1B DUP3 CODECOPY RETURN JUMPDEST PUSH1 0x0 DUP1 REVERT INVALID PUSH1 0x80 DUP1 PUSH1 0x40 MSTORE PUSH1 0x4 CALLDATASIZE LT ISZERO PUSH2 0x13 JUMPI PUSH1 0x0 DUP1 REVERT JUMPDEST PUSH1 0x0 CALLDATALOAD PUSH1 0xE0 SHR SWAP1 DUP2 PUSH4 0x6F77926B EQ PUSH2 0x10BE JUMPI POP DUP1 PUSH4 0xC3C5A547 EQ PUSH2 0x1079 JUMPI PUSH4 0xECEFDE75 EQ PUSH2 0x40 JUMPI PUSH1 0x0 DUP1 REVERT JUMPDEST CALLVALUE PUSH2 0x1074 JUMPI PUSH2 0x1C0 CALLDATASIZE PUSH1 0x3 NOT ADD SLT PUSH2 0x1074 JUMPI PUSH2 0x5A PUSH2 0x13D6 JUMP JUMPDEST PUSH1 0x24 CALLDATALOAD PUSH1 0x1 PUSH1 0x1 PUSH1 0x40 SHL SUB DUP2 GT PUSH2 0x1074 JUMPI PUSH2 0x79 SWAP1 CALLDATASIZE SWAP1 PUSH1 0x4 ADD PUSH2 0x146A JUMP JUMPDEST SWAP1 PUSH1 0x44 CALLDATALOAD PUSH1 0x1 PUSH1 0x1 PUSH1 0x40 SHL SUB DUP2 GT PUSH2 0x1074 JUMPI PUSH2 0x99 SWAP1 CALLDATASIZE SWAP1 PUSH1 0x4 ADD PUSH2 0x146A JUMP JUMPDEST PUSH1 0x64 CALLDATALOAD PUSH1 0x1 PUSH1 0x1 PUSH1 0x40 SHL SUB DUP2 GT PUSH2 0x1074 JUMPI PUSH2 0xB8 SWAP1 CALLDATASIZE SWAP1 PUSH1 0x4 ADD PUSH2 0x146A JUMP JUMPDEST SWAP3 PUSH1 0x84 CALLDATALOAD PUSH1 0x1 PUSH1 0x1 PUSH1 0x40 SHL SUB DUP2 GT PUSH2 0x1074 JUMPI PUSH2 0xD8 SWAP1 CALLDATASIZE SWAP1 PUSH1 0x4 ADD PUSH2 0x146A JUMP JUMPDEST PUSH1 0xA4 CALLDATALOAD PUSH1 0x1 PUSH1 0x1 PUSH1 0x40 SHL SUB DUP2 GT PUSH2 0x1074 JUMPI PUSH2 0xF7 SWAP1 CALLDATASIZE SWAP1 PUSH1 0x4 ADD PUSH2 0x146A JUMP JUMPDEST PUSH1 0xC4 CALLDATALOAD PUSH1 0x1 PUSH1 0x1 PUSH1 0x40 SHL SUB DUP2 GT PUSH2 0x1074 JUMPI PUSH2 0x116 SWAP1 CALLDATASIZE SWAP1 PUSH1 0x4 ADD PUSH2 0x146A JUMP JUMPDEST SWAP1 PUSH1 0xE4 CALLDATALOAD PUSH1 0x1 PUSH1 0x1 PUSH1 0x40 SHL SUB DUP2 GT PUSH2 0x1074 JUMPI PUSH2 0x136 SWAP1 CALLDATASIZE SWAP1 PUSH1 0x4 ADD PUSH2 0x146A JUMP JUMPDEST SWAP3 PUSH2 0x104 CALLDATALOAD PUSH1 0x1 PUSH1 0x1 PUSH1 0x40 SHL SUB DUP2 GT PUSH2 0x1074 JUMPI PUSH2 0x157 SWAP1 CALLDATASIZE SWAP1 PUSH1 0x4 ADD PUSH2 0x146A JUMP JUMPDEST SWAP8 PUSH2 0x124 CALLDATALOAD PUSH1 0x1 PUSH1 0x1 PUSH1 0x40 SHL SUB DUP2 GT PUSH2 0x1074 JUMPI PUSH2 0x178 SWAP1 CALLDATASIZE SWAP1 PUSH1 0x4 ADD PUSH2 0x146A JUMP JUMPDEST SWAP9 PUSH2 0x144 CALLDATALOAD PUSH1 0x1 PUSH1 0x1 PUSH1 0x40 SHL SUB DUP2 GT PUSH2 0x1074 JUMPI PUSH2 0x199 SWAP1 CALLDATASIZE SWAP1 PUSH1 0x4 ADD PUSH2 0x146A JUMP JUMPDEST PUSH2 0x164 CALLDATALOAD PUSH1 0x1 PUSH1 0x1 PUSH1 0x40 SHL SUB DUP2 GT PUSH2 0x1074 JUMPI PUSH2 0x1B9 SWAP1 CALLDATASIZE SWAP1 PUSH1 0x4 ADD PUSH2 0x146A JUMP JUMPDEST SWAP1 PUSH2 0x184 CALLDATALOAD SWAP12 PUSH1 0x1 PUSH1 0x1 PUSH1 0x40 SHL SUB DUP14 GT PUSH2 0x1074 JUMPI PUSH2 0x1DC PUSH1 0x4 SWAP14 CALLDATASIZE SWAP1 DUP16 ADD PUSH2 0x146A JUMP JUMPDEST SWAP4 PUSH2 0x1A4 CALLDATALOAD SWAP14 DUP15 LT ISZERO PUSH2 0x1074 JUMPI CALLER PUSH1 0x0 MSTORE PUSH1 0x0 PUSH1 0x20 MSTORE PUSH1 0xFF PUSH1 0xC PUSH1 0x40 PUSH1 0x0 KECCAK256 ADD SLOAD PUSH1 0x8 SHR AND PUSH2 0x102F JUMPI PUSH1 0x40 MLOAD SWAP11 PUSH2 0x212 DUP13 PUSH2 0x142D JUMP JUMPDEST DUP12 MSTORE PUSH1 0x20 DUP12 ADD SWAP12 DUP13 MSTORE PUSH1 0x40 DUP12 ADD SWAP6 DUP7 MSTORE PUSH1 0x60 DUP12 ADD SWAP7 DUP8 MSTORE PUSH1 0x80 DUP12 ADD SWAP8 DUP9 MSTORE PUSH1 0xA0 DUP12 ADD SWAP9 DUP10 MSTORE PUSH1 0xC0 DUP12 ADD SWAP10 DUP11 MSTORE PUSH1 0xE0 DUP12 ADD MSTORE PUSH2 0x100 DUP11 ADD MSTORE PUSH2 0x120 DUP10 ADD MSTORE PUSH2 0x140 DUP9 ADD MSTORE PUSH2 0x160 DUP8 ADD MSTORE PUSH2 0x26A PUSH2 0x180 DUP8 ADD SWAP10 DUP11 PUSH2 0x159E JUMP JUMPDEST PUSH2 0x1A0 DUP7 ADD SWAP8 PUSH1 0x1 DUP10 MSTORE PUSH1 0x1 DUP1 PUSH1 0xA0 SHL SUB AND PUSH1 0x0 MSTORE PUSH1 0x0 PUSH1 0x20 MSTORE PUSH1 0x40 PUSH1 0x0 KECCAK256 SWAP7 DUP7 MLOAD DUP1 MLOAD SWAP1 PUSH1 0x1 PUSH1 0x1 PUSH1 0x40 SHL SUB DUP3 GT PUSH2 0x7B8 JUMPI DUP2 SWAP1 PUSH2 0x2A9 DUP12 SLOAD PUSH2 0x14C0 JUMP JUMPDEST PUSH1 0x1F DUP2 GT PUSH2 0xFDC JUMPI JUMPDEST POP PUSH1 0x20 SWAP1 PUSH1 0x1F DUP4 GT PUSH1 0x1 EQ PUSH2 0xF77 JUMPI PUSH1 0x0 SWAP3 PUSH2 0xF6C JUMPI JUMPDEST POP POP DUP2 PUSH1 0x1 SHL SWAP2 PUSH1 0x0 NOT SWAP1 PUSH1 0x3 SHL SHR NOT AND OR DUP9 SSTORE JUMPDEST MLOAD DUP1 MLOAD PUSH1 0x1 DUP10 ADD SWAP2 PUSH1 0x1 PUSH1 0x1 PUSH1 0x40 SHL SUB DUP3 GT PUSH2 0x7B8 JUMPI DUP2 SWAP1 PUSH2 0x300 DUP5 SLOAD PUSH2 0x14C0 JUMP JUMPDEST PUSH1 0x1F DUP2 GT PUSH2 0xF19 JUMPI JUMPDEST POP PUSH1 0x20 SWAP1 PUSH1 0x1F DUP4 GT PUSH1 0x1 EQ PUSH2 0xEB4 JUMPI PUSH1 0x0 SWAP3 PUSH2 0xEA9 JUMPI JUMPDEST POP POP DUP2 PUSH1 0x1 SHL SWAP2 PUSH1 0x0 NOT SWAP1 PUSH1 0x3 SHL SHR NOT AND OR SWAP1 SSTORE JUMPDEST MLOAD DUP1 MLOAD PUSH1 0x2 DUP9 ADD SWAP2 PUSH1 0x1 PUSH1 0x1 PUSH1 0x40 SHL SUB DUP3 GT PUSH2 0x7B8 JUMPI DUP2 SWAP1 PUSH2 0x357 DUP5 SLOAD PUSH2 0x14C0 JUMP JUMPDEST PUSH1 0x1F DUP2 GT PUSH2 0xE56 JUMPI JUMPDEST POP PUSH1 0x20 SWAP1 PUSH1 0x1F DUP4 GT PUSH1 0x1 EQ PUSH2 0xDF1 JUMPI PUSH1 0x0 SWAP3 PUSH2 0xDE6 JUMPI JUMPDEST POP POP DUP2 PUSH1 0x1 SHL SWAP2 PUSH1 0x0 NOT SWAP1 PUSH1 0x3 SHL SHR NOT AND OR SWAP1 SSTORE JUMPDEST MLOAD DUP1 MLOAD PUSH1 0x3 DUP8 ADD SWAP2 PUSH1 0x1 PUSH1 0x1 PUSH1 0x40 SHL SUB DUP3 GT PUSH2 0x7B8 JUMPI DUP2 SWAP1 PUSH2 0x3AE DUP5 SLOAD PUSH2 0x14C0 JUMP JUMPDEST PUSH1 0x1F DUP2 GT PUSH2 0xD93 JUMPI JUMPDEST POP PUSH1 0x20 SWAP1 PUSH1 0x1F DUP4 GT PUSH1 0x1 EQ PUSH2 0xD2E JUMPI PUSH1 0x0 SWAP3 PUSH2 0xD23 JUMPI JUMPDEST POP POP DUP2 PUSH1 0x1 SHL SWAP2 PUSH1 0x0 NOT SWAP1 PUSH1 0x3 SHL SHR NOT AND OR SWAP1 SSTORE JUMPDEST MLOAD DUP1 MLOAD PUSH1 0x4 DUP7 ADD SWAP2 PUSH1 0x1 PUSH1 0x1 PUSH1 0x40 SHL SUB DUP3 GT PUSH2 0x7B8 JUMPI DUP2 SWAP1 PUSH2 0x405 DUP5 SLOAD PUSH2 0x14C0 JUMP JUMPDEST PUSH1 0x1F DUP2 GT PUSH2 0xCD0 JUMPI JUMPDEST POP PUSH1 0x20 SWAP1 PUSH1 0x1F DUP4 GT PUSH1 0x1 EQ PUSH2 0xC6B JUMPI PUSH1 0x0 SWAP3 PUSH2 0xC60 JUMPI JUMPDEST POP POP DUP2 PUSH1 0x1 SHL SWAP2 PUSH1 0x0 NOT SWAP1 PUSH1 0x3 SHL SHR NOT AND OR SWAP1 SSTORE JUMPDEST MLOAD DUP1 MLOAD PUSH1 0x5 DUP6 ADD SWAP2 PUSH1 0x1 PUSH1 0x1 PUSH1 0x40 SHL SUB DUP3 GT PUSH2 0x7B8 JUMPI DUP2 SWAP1 PUSH2 0x45C DUP5 SLOAD PUSH2 0x14C0 JUMP JUMPDEST PUSH1 0x1F DUP2 GT PUSH2 0xC0D JUMPI JUMPDEST POP PUSH1 0x20 SWAP1 PUSH1 0x1F DUP4 GT PUSH1 0x1 EQ PUSH2 0xBA8 JUMPI PUSH1 0x0 SWAP3 PUSH2 0xB9D JUMPI JUMPDEST POP POP DUP2 PUSH1 0x1 SHL SWAP2 PUSH1 0x0 NOT SWAP1 PUSH1 0x3 SHL SHR NOT AND OR SWAP1 SSTORE JUMPDEST MLOAD DUP1 MLOAD PUSH1 0x6 DUP5 ADD SWAP2 PUSH1 0x1 PUSH1 0x1 PUSH1 0x40 SHL SUB DUP3 GT PUSH2 0x7B8 JUMPI DUP2 SWAP1 PUSH2 0x4B3 DUP5 SLOAD PUSH2 0x14C0 JUMP JUMPDEST PUSH1 0x1F DUP2 GT PUSH2 0xB4A JUMPI JUMPDEST POP PUSH1 0x20 SWAP1 PUSH1 0x1F DUP4 GT PUSH1 0x1 EQ PUSH2 0xAE5 JUMPI PUSH1 0x0 SWAP3 PUSH2 0xADA JUMPI JUMPDEST POP POP DUP2 PUSH1 0x1 SHL SWAP2 PUSH1 0x0 NOT SWAP1 PUSH1 0x3 SHL SHR NOT AND OR SWAP1 SSTORE JUMPDEST PUSH1 0x7 DUP3 ADD PUSH1 0xE0 DUP3 ADD MLOAD DUP1 MLOAD SWAP1 PUSH1 0x1 PUSH1 0x1 PUSH1 0x40 SHL SUB DUP3 GT PUSH2 0x7B8 JUMPI DUP2 SWAP1 PUSH2 0x50E DUP5 SLOAD PUSH2 0x14C0 JUMP JUMPDEST PUSH1 0x1F DUP2 GT PUSH2 0xA87 JUMPI JUMPDEST POP PUSH1 0x20 SWAP1 PUSH1 0x1F DUP4 GT PUSH1 0x1 EQ PUSH2 0xA22 JUMPI PUSH1 0x0 SWAP3 PUSH2 0xA17 JUMPI JUMPDEST POP POP DUP2 PUSH1 0x1 SHL SWAP2 PUSH1 0x0 NOT SWAP1 PUSH1 0x3 SHL SHR NOT AND OR SWAP1 SSTORE JUMPDEST PUSH1 0x8 DUP3 ADD PUSH2 0x100 DUP3 ADD MLOAD DUP1 MLOAD SWAP1 PUSH1 0x1 PUSH1 0x1 PUSH1 0x40 SHL SUB DUP3 GT PUSH2 0x7B8 JUMPI DUP2 SWAP1 PUSH2 0x56A DUP5 SLOAD PUSH2 0x14C0 JUMP JUMPDEST PUSH1 0x1F DUP2 GT PUSH2 0x9C4 JUMPI JUMPDEST POP PUSH1 0x20 SWAP1 PUSH1 0x1F DUP4 GT PUSH1 0x1 EQ PUSH2 0x95F JUMPI PUSH1 0x0 SWAP3 PUSH2 0x954 JUMPI JUMPDEST POP POP DUP2 PUSH1 0x1 SHL SWAP2 PUSH1 0x0 NOT SWAP1 PUSH1 0x3 SHL SHR NOT AND OR SWAP1 SSTORE JUMPDEST PUSH1 0x9 DUP3 ADD PUSH2 0x120 DUP3 ADD MLOAD DUP1 MLOAD SWAP1 PUSH1 0x1 PUSH1 0x1 PUSH1 0x40 SHL SUB DUP3 GT PUSH2 0x7B8 JUMPI DUP2 SWAP1 PUSH2 0x5C6 DUP5 SLOAD PUSH2 0x14C0 JUMP JUMPDEST PUSH1 0x1F DUP2 GT PUSH2 0x901 JUMPI JUMPDEST POP PUSH1 0x20 SWAP1 PUSH1 0x1F DUP4 GT PUSH1 0x1 EQ PUSH2 0x89C JUMPI PUSH1 0x0 SWAP3 PUSH2 0x891 JUMPI JUMPDEST POP POP DUP2 PUSH1 0x1 SHL SWAP2 PUSH1 0x0 NOT SWAP1 PUSH1 0x3 SHL SHR NOT AND OR SWAP1 SSTORE JUMPDEST PUSH1 0xA DUP3 ADD PUSH2 0x140 DUP3 ADD MLOAD DUP1 MLOAD SWAP1 PUSH1 0x1 PUSH1 0x1 PUSH1 0x40 SHL SUB DUP3 GT PUSH2 0x7B8 JUMPI DUP2 SWAP1 PUSH2 0x622 DUP5 SLOAD PUSH2 0x14C0 JUMP JUMPDEST PUSH1 0x1F DUP2 GT PUSH2 0x83E JUMPI JUMPDEST POP PUSH1 0x20 SWAP1 PUSH1 0x1F DUP4 GT PUSH1 0x1 EQ PUSH2 0x7D9 JUMPI PUSH1 0x0 SWAP3 PUSH2 0x7CE JUMPI JUMPDEST POP POP DUP2 PUSH1 0x1 SHL SWAP2 PUSH1 0x0 NOT SWAP1 PUSH1 0x3 SHL SHR NOT AND OR SWAP1 SSTORE JUMPDEST PUSH2 0x160 ADD MLOAD DUP1 MLOAD PUSH1 0xB DUP4 ADD SWAP2 PUSH1 0x1 PUSH1 0x1 PUSH1 0x40 SHL SUB DUP3 GT PUSH2 0x7B8 JUMPI PUSH2 0x67B DUP4 SLOAD PUSH2 0x14C0 JUMP JUMPDEST PUSH1 0x1F DUP2 GT PUSH2 0x770 JUMPI JUMPDEST POP PUSH1 0x20 SWAP1 PUSH1 0x1F DUP4 GT PUSH1 0x1 EQ PUSH2 0x705 JUMPI PUSH1 0xC SWAP5 SWAP4 SWAP3 SWAP2 PUSH1 0x0 SWAP2 DUP4 PUSH2 0x6FA JUMPI JUMPDEST POP POP DUP2 PUSH1 0x1 SHL SWAP2 PUSH1 0x0 NOT SWAP1 PUSH1 0x3 SHL SHR NOT AND OR SWAP1 SSTORE JUMPDEST ADD SWAP2 MLOAD SWAP1 PUSH1 0x4 DUP3 LT ISZERO PUSH2 0x6E4 JUMPI PUSH1 0xFF PUSH2 0xFF00 DUP5 SLOAD SWAP3 MLOAD ISZERO ISZERO PUSH1 0x8 SHL AND SWAP3 AND SWAP1 PUSH2 0xFFFF NOT AND OR OR SWAP1 SSTORE PUSH1 0x0 DUP1 RETURN JUMPDEST PUSH4 0x4E487B71 PUSH1 0xE0 SHL PUSH1 0x0 MSTORE PUSH1 0x21 PUSH1 0x4 MSTORE PUSH1 0x24 PUSH1 0x0 REVERT JUMPDEST ADD MLOAD SWAP1 POP CODESIZE DUP1 PUSH2 0x6A2 JUMP JUMPDEST SWAP1 PUSH1 0x1F NOT DUP4 AND SWAP2 DUP5 PUSH1 0x0 MSTORE DUP2 PUSH1 0x0 KECCAK256 SWAP3 PUSH1 0x0 JUMPDEST DUP2 DUP2 LT PUSH2 0x758 JUMPI POP SWAP2 PUSH1 0x1 SWAP4 SWAP2 DUP6 PUSH1 0xC SWAP9 SWAP8 SWAP7 SWAP5 LT PUSH2 0x73F JUMPI JUMPDEST POP POP POP DUP2 SHL ADD SWAP1 SSTORE PUSH2 0x6B7 JUMP JUMPDEST ADD MLOAD PUSH1 0x0 NOT PUSH1 0xF8 DUP5 PUSH1 0x3 SHL AND SHR NOT AND SWAP1 SSTORE CODESIZE DUP1 DUP1 PUSH2 0x732 JUMP JUMPDEST SWAP3 SWAP4 PUSH1 0x20 PUSH1 0x1 DUP2 SWAP3 DUP8 DUP7 ADD MLOAD DUP2 SSTORE ADD SWAP6 ADD SWAP4 ADD PUSH2 0x718 JUMP JUMPDEST DUP4 PUSH1 0x0 MSTORE PUSH1 0x20 PUSH1 0x0 KECCAK256 PUSH1 0x1F DUP5 ADD PUSH1 0x5 SHR DUP2 ADD SWAP2 PUSH1 0x20 DUP6 LT PUSH2 0x7AE JUMPI JUMPDEST PUSH1 0x1F ADD PUSH1 0x5 SHR ADD SWAP1 JUMPDEST DUP2 DUP2 LT PUSH2 0x7A2 JUMPI POP PUSH2 0x684 JUMP JUMPDEST PUSH1 0x0 DUP2 SSTORE PUSH1 0x1 ADD PUSH2 0x795 JUMP JUMPDEST SWAP1 SWAP2 POP DUP2 SWAP1 PUSH2 0x78C JUMP JUMPDEST PUSH4 0x4E487B71 PUSH1 0xE0 SHL PUSH1 0x0 MSTORE PUSH1 0x41 PUSH1 0x4 MSTORE PUSH1 0x24 PUSH1 0x0 REVERT JUMPDEST ADD MLOAD SWAP1 POP CODESIZE DUP1 PUSH2 0x642 JUMP JUMPDEST PUSH1 0x0 DUP6 DUP2 MSTORE DUP3 DUP2 KECCAK256 SWAP4 POP PUSH1 0x1F NOT DUP6 AND SWAP1 JUMPDEST DUP2 DUP2 LT PUSH2 0x826 JUMPI POP SWAP1 DUP5 PUSH1 0x1 SWAP6 SWAP5 SWAP4 SWAP3 LT PUSH2 0x80D JUMPI JUMPDEST POP POP POP DUP2 SHL ADD SWAP1 SSTORE PUSH2 0x657 JUMP JUMPDEST ADD MLOAD PUSH1 0x0 NOT PUSH1 0xF8 DUP5 PUSH1 0x3 SHL AND SHR NOT AND SWAP1 SSTORE CODESIZE DUP1 DUP1 PUSH2 0x800 JUMP JUMPDEST SWAP3 SWAP4 PUSH1 0x20 PUSH1 0x1 DUP2 SWAP3 DUP8 DUP7 ADD MLOAD DUP2 SSTORE ADD SWAP6 ADD SWAP4 ADD PUSH2 0x7EA JUMP JUMPDEST SWAP1 SWAP2 POP DUP4 PUSH1 0x0 MSTORE PUSH1 0x20 PUSH1 0x0 KECCAK256 PUSH1 0x1F DUP5 ADD PUSH1 0x5 SHR DUP2 ADD SWAP2 PUSH1 0x20 DUP6 LT PUSH2 0x887 JUMPI JUMPDEST SWAP1 PUSH1 0x1F DUP6 SWAP5 SWAP4 SWAP3 ADD PUSH1 0x5 SHR ADD SWAP1 JUMPDEST DUP2 DUP2 LT PUSH2 0x878 JUMPI POP PUSH2 0x62B JUMP JUMPDEST PUSH1 0x0 DUP2 SSTORE DUP5 SWAP4 POP PUSH1 0x1 ADD PUSH2 0x86B JUMP JUMPDEST SWAP1 SWAP2 POP DUP2 SWAP1 PUSH2 0x85D JUMP JUMPDEST ADD MLOAD SWAP1 POP CODESIZE DUP1 PUSH2 0x5E6 JUMP JUMPDEST PUSH1 0x0 DUP6 DUP2 MSTORE DUP3 DUP2 KECCAK256 SWAP4 POP PUSH1 0x1F NOT DUP6 AND SWAP1 JUMPDEST DUP2 DUP2 LT PUSH2 0x8E9 JUMPI POP SWAP1 DUP5 PUSH1 0x1 SWAP6 SWAP5 SWAP4 SWAP3 LT PUSH2 0x8D0 JUMPI JUMPDEST POP POP POP DUP2 SHL ADD SWAP1 SSTORE PUSH2 0x5FB JUMP JUMPDEST ADD MLOAD PUSH1 0x0 NOT PUSH1 0xF8 DUP5 PUSH1 0x3 SHL AND SHR NOT AND SWAP1 SSTORE CODESIZE DUP1 DUP1 PUSH2 0x8C3 JUMP JUMPDEST SWAP3 SWAP4 PUSH1 0x20 PUSH1 0x1 DUP2 SWAP3 DUP8 DUP7 ADD MLOAD DUP2 SSTORE ADD SWAP6 ADD SWAP4 ADD PUSH2 0x8AD JUMP JUMPDEST SWAP1 SWAP2 POP DUP4 PUSH1 0x0 MSTORE PUSH1 0x20 PUSH1 0x0 KECCAK256 PUSH1 0x1F DUP5 ADD PUSH1 0x5 SHR DUP2 ADD SWAP2 PUSH1 0x20 DUP6 LT PUSH2 0x94A JUMPI JUMPDEST SWAP1 PUSH1 0x1F DUP6 SWAP5 SWAP4 SWAP3 ADD PUSH1 0x5 SHR ADD SWAP1 JUMPDEST DUP2 DUP2 LT PUSH2 0x93B JUMPI POP PUSH2 0x5CF JUMP JUMPDEST PUSH1 0x0 DUP2 SSTORE DUP5 SWAP4 POP PUSH1 0x1 ADD PUSH2 0x92E JUMP JUMPDEST SWAP1 SWAP2 POP DUP2 SWAP1 PUSH2 0x920 JUMP JUMPDEST ADD MLOAD SWAP1 POP CODESIZE DUP1 PUSH2 0x58A JUMP JUMPDEST PUSH1 0x0 DUP6 DUP2 MSTORE DUP3 DUP2 KECCAK256 SWAP4 POP PUSH1 0x1F NOT DUP6 AND SWAP1 JUMPDEST DUP2 DUP2 LT PUSH2 0x9AC JUMPI POP SWAP1 DUP5 PUSH1 0x1 SWAP6 SWAP5 SWAP4 SWAP3 LT PUSH2 0x993 JUMPI JUMPDEST POP POP POP DUP2 SHL ADD SWAP1 SSTORE PUSH2 0x59F JUMP JUMPDEST ADD MLOAD PUSH1 0x0 NOT PUSH1 0xF8 DUP5 PUSH1 0x3 SHL AND SHR NOT AND SWAP1 SSTORE CODESIZE DUP1 DUP1 PUSH2 0x986 JUMP JUMPDEST SWAP3 SWAP4 PUSH1 0x20 PUSH1 0x1 DUP2 SWAP3 DUP8 DUP7 ADD MLOAD DUP2 SSTORE ADD SWAP6 ADD SWAP4 ADD PUSH2 0x970 JUMP JUMPDEST SWAP1 SWAP2 POP DUP4 PUSH1 0x0 MSTORE PUSH1 0x20 PUSH1 0x0 KECCAK256 PUSH1 0x1F DUP5 ADD PUSH1 0x5 SHR DUP2 ADD SWAP2 PUSH1 0x20 DUP6 LT PUSH2 0xA0D JUMPI JUMPDEST SWAP1 PUSH1 0x1F DUP6 SWAP5 SWAP4 SWAP3 ADD PUSH1 0x5 SHR ADD SWAP1 JUMPDEST DUP2 DUP2 LT PUSH2 0x9FE JUMPI POP PUSH2 0x573 JUMP JUMPDEST PUSH1 0x0 DUP2 SSTORE DUP5 SWAP4 POP PUSH1 0x1 ADD PUSH2 0x9F1 JUMP JUMPDEST SWAP1 SWAP2 POP DUP2 SWAP1 PUSH2 0x9E3 JUMP JUMPDEST ADD MLOAD SWAP1 POP CODESIZE DUP1 PUSH2 0x52E JUMP JUMPDEST PUSH1 0x0 DUP6 DUP2 MSTORE DUP3 DUP2 KECCAK256 SWAP4 POP PUSH1 0x1F NOT DUP6 AND SWAP1 JUMPDEST DUP2 DUP2 LT PUSH2 0xA6F JUMPI POP SWAP1 DUP5 PUSH1 0x1 SWAP6 SWAP5 SWAP4 SWAP3 LT PUSH2 0xA56 JUMPI JUMPDEST POP POP POP DUP2 SHL ADD SWAP1 SSTORE PUSH2 0x543 JUMP JUMPDEST ADD MLOAD PUSH1 0x0 NOT PUSH1 0xF8 DUP5 PUSH1 0x3 SHL AND SHR NOT AND SWAP1 SSTORE CODESIZE DUP1 DUP1 PUSH2 0xA49 JUMP JUMPDEST SWAP3 SWAP4 PUSH1 0x20 PUSH1 0x1 DUP2 SWAP3 DUP8 DUP7 ADD MLOAD DUP2 SSTORE ADD SWAP6 ADD SWAP4 ADD PUSH2 0xA33 JUMP JUMPDEST SWAP1 SWAP2 POP DUP4 PUSH1 0x0 MSTORE PUSH1 0x20 PUSH1 0x0 KECCAK256 PUSH1 0x1F DUP5 ADD PUSH1 0x5 SHR DUP2 ADD SWAP2 PUSH1 0x20 DUP6 LT PUSH2 0xAD0 JUMPI JUMPDEST SWAP1 PUSH1 0x1F DUP6 SWAP5 SWAP4 SWAP3 ADD PUSH1 0x5 SHR ADD SWAP1 JUMPDEST DUP2 DUP2 LT PUSH2 0xAC1 JUMPI POP PUSH2 0x517 JUMP JUMPDEST PUSH1 0x0 DUP2 SSTORE DUP5 SWAP4 POP PUSH1 0x1 ADD PUSH2 0xAB4 JUMP JUMPDEST SWAP1 SWAP2 POP DUP2 SWAP1 PUSH2 0xAA6 JUMP JUMPDEST ADD MLOAD SWAP1 POP CODESIZE DUP1 PUSH2 0x4D3 JUMP JUMPDEST PUSH1 0x0 DUP6 DUP2 MSTORE DUP3 DUP2 KECCAK256 SWAP4 POP PUSH1 0x1F NOT DUP6 AND SWAP1 JUMPDEST DUP2 DUP2 LT PUSH2 0xB32 JUMPI POP SWAP1 DUP5 PUSH1 0x1 SWAP6 SWAP5 SWAP4 SWAP3 LT PUSH2 0xB19 JUMPI JUMPDEST POP POP POP DUP2 SHL ADD SWAP1 SSTORE PUSH2 0x4E8 JUMP JUMPDEST ADD MLOAD PUSH1 0x0 NOT PUSH1 0xF8 DUP5 PUSH1 0x3 SHL AND SHR NOT AND SWAP1 SSTORE CODESIZE DUP1 DUP1 PUSH2 0xB0C JUMP JUMPDEST SWAP3 SWAP4 PUSH1 0x20 PUSH1 0x1 DUP2 SWAP3 DUP8 DUP7 ADD MLOAD DUP2 SSTORE ADD SWAP6 ADD SWAP4 ADD PUSH2 0xAF6 JUMP JUMPDEST SWAP1 SWAP2 POP DUP4 PUSH1 0x0 MSTORE PUSH1 0x20 PUSH1 0x0 KECCAK256 PUSH1 0x1F DUP5 ADD PUSH1 0x5 SHR DUP2 ADD SWAP2 PUSH1 0x20 DUP6 LT PUSH2 0xB93 JUMPI JUMPDEST SWAP1 PUSH1 0x1F DUP6 SWAP5 SWAP4 SWAP3 ADD PUSH1 0x5 SHR ADD SWAP1 JUMPDEST DUP2 DUP2 LT PUSH2 0xB84 JUMPI POP PUSH2 0x4BC JUMP JUMPDEST PUSH1 0x0 DUP2 SSTORE DUP5 SWAP4 POP PUSH1 0x1 ADD PUSH2 0xB77 JUMP JUMPDEST SWAP1 SWAP2 POP DUP2 SWAP1 PUSH2 0xB69 JUMP JUMPDEST ADD MLOAD SWAP1 POP CODESIZE DUP1 PUSH2 0x47C JUMP JUMPDEST PUSH1 0x0 DUP6 DUP2 MSTORE DUP3 DUP2 KECCAK256 SWAP4 POP PUSH1 0x1F NOT DUP6 AND SWAP1 JUMPDEST DUP2 DUP2 LT PUSH2 0xBF5 JUMPI POP SWAP1 DUP5 PUSH1 0x1 SWAP6 SWAP5 SWAP4 SWAP3 LT PUSH2 0xBDC JUMPI JUMPDEST POP POP POP DUP2 SHL ADD SWAP1 SSTORE PUSH2 0x491 JUMP JUMPDEST ADD MLOAD PUSH1 0x0 NOT PUSH1 0xF8 DUP5 PUSH1 0x3 SHL AND SHR NOT AND SWAP1 SSTORE CODESIZE DUP1 DUP1 PUSH2 0xBCF JUMP JUMPDEST SWAP3 SWAP4 PUSH1 0x20 PUSH1 0x1 DUP2 SWAP3 DUP8 DUP7 ADD MLOAD DUP2 SSTORE ADD SWAP6 ADD SWAP4 ADD PUSH2 0xBB9 JUMP JUMPDEST SWAP1 SWAP2 POP DUP4 PUSH1 0x0 MSTORE PUSH1 0x20 PUSH1 0x0 KECCAK256 PUSH1 0x1F DUP5 ADD PUSH1 0x5 SHR DUP2 ADD SWAP2 PUSH1 0x20 DUP6 LT PUSH2 0xC56 JUMPI JUMPDEST SWAP1 PUSH1 0x1F DUP6 SWAP5 SWAP4 SWAP3 ADD PUSH1 0x5 SHR ADD SWAP1 JUMPDEST DUP2 DUP2 LT PUSH2 0xC47 JUMPI POP PUSH2 0x465 JUMP JUMPDEST PUSH1 0x0 DUP2 SSTORE DUP5 SWAP4 POP PUSH1 0x1 ADD PUSH2 0xC3A JUMP JUMPDEST SWAP1 SWAP2 POP DUP2 SWAP1 PUSH2 0xC2C JUMP JUMPDEST ADD MLOAD SWAP1 POP CODESIZE DUP1 PUSH2 0x425 JUMP JUMPDEST PUSH1 0x0 DUP6 DUP2 MSTORE DUP3 DUP2 KECCAK256 SWAP4 POP PUSH1 0x1F NOT DUP6 AND SWAP1 JUMPDEST DUP2 DUP2 LT PUSH2 0xCB8 JUMPI POP SWAP1 DUP5 PUSH1 0x1 SWAP6 SWAP5 SWAP4 SWAP3 LT PUSH2 0xC9F JUMPI JUMPDEST POP POP POP DUP2 SHL ADD SWAP1 SSTORE PUSH2 0x43A JUMP JUMPDEST ADD MLOAD PUSH1 0x0 NOT PUSH1 0xF8 DUP5 PUSH1 0x3 SHL AND SHR NOT AND SWAP1 SSTORE CODESIZE DUP1 DUP1 PUSH2 0xC92 JUMP JUMPDEST SWAP3 SWAP4 PUSH1 0x20 PUSH1 0x1 DUP2 SWAP3 DUP8 DUP7 ADD MLOAD DUP2 SSTORE ADD SWAP6 ADD SWAP4 ADD PUSH2 0xC7C JUMP JUMPDEST SWAP1 SWAP2 POP DUP4 PUSH1 0x0 MSTORE PUSH1 0x20 PUSH1 0x0 KECCAK256 PUSH1 0x1F DUP5 ADD PUSH1 0x5 SHR DUP2 ADD SWAP2 PUSH1 0x20 DUP6 LT PUSH2 0xD19 JUMPI JUMPDEST SWAP1 PUSH1 0x1F DUP6 SWAP5 SWAP4 SWAP3 ADD PUSH1 0x5 SHR ADD SWAP1 JUMPDEST DUP2 DUP2 LT PUSH2 0xD0A JUMPI POP PUSH2 0x40E JUMP JUMPDEST PUSH1 0x0 DUP2 SSTORE DUP5 SWAP4 POP PUSH1 0x1 ADD PUSH2 0xCFD JUMP JUMPDEST SWAP1 SWAP2 POP DUP2 SWAP1 PUSH2 0xCEF JUMP JUMPDEST ADD MLOAD SWAP1 POP CODESIZE DUP1 PUSH2 0x3CE JUMP JUMPDEST PUSH1 0x0 DUP6 DUP2 MSTORE DUP3 DUP2 KECCAK256 SWAP4 POP PUSH1 0x1F NOT DUP6 AND SWAP1 JUMPDEST DUP2 DUP2 LT PUSH2 0xD7B JUMPI POP SWAP1 DUP5 PUSH1 0x1 SWAP6 SWAP5 SWAP4 SWAP3 LT PUSH2 0xD62 JUMPI JUMPDEST POP POP POP DUP2 SHL ADD SWAP1 SSTORE PUSH2 0x3E3 JUMP JUMPDEST ADD MLOAD PUSH1 0x0 NOT PUSH1 0xF8 DUP5 PUSH1 0x3 SHL AND SHR NOT AND SWAP1 SSTORE CODESIZE DUP1 DUP1 PUSH2 0xD55 JUMP JUMPDEST SWAP3 SWAP4 PUSH1 0x20 PUSH1 0x1 DUP2 SWAP3 DUP8 DUP7 ADD MLOAD DUP2 SSTORE ADD SWAP6 ADD SWAP4 ADD PUSH2 0xD3F JUMP JUMPDEST SWAP1 SWAP2 POP DUP4 PUSH1 0x0 MSTORE PUSH1 0x20 PUSH1 0x0 KECCAK256 PUSH1 0x1F DUP5 ADD PUSH1 0x5 SHR DUP2 ADD SWAP2 PUSH1 0x20 DUP6 LT PUSH2 0xDDC JUMPI JUMPDEST SWAP1 PUSH1 0x1F DUP6 SWAP5 SWAP4 SWAP3 ADD PUSH1 0x5 SHR ADD SWAP1 JUMPDEST DUP2 DUP2 LT PUSH2 0xDCD JUMPI POP PUSH2 0x3B7 JUMP JUMPDEST PUSH1 0x0 DUP2 SSTORE DUP5 SWAP4 POP PUSH1 0x1 ADD PUSH2 0xDC0 JUMP JUMPDEST SWAP1 SWAP2 POP DUP2 SWAP1 PUSH2 0xDB2 JUMP JUMPDEST ADD MLOAD SWAP1 POP CODESIZE DUP1 PUSH2 0x377 JUMP JUMPDEST PUSH1 0x0 DUP6 DUP2 MSTORE DUP3 DUP2 KECCAK256 SWAP4 POP PUSH1 0x1F NOT DUP6 AND SWAP1 JUMPDEST DUP2 DUP2 LT PUSH2 0xE3E JUMPI POP SWAP1 DUP5 PUSH1 0x1 SWAP6 SWAP5 SWAP4 SWAP3 LT PUSH2 0xE25 JUMPI JUMPDEST POP POP POP DUP2 SHL ADD SWAP1 SSTORE PUSH2 0x38C JUMP JUMPDEST ADD MLOAD PUSH1 0x0 NOT PUSH1 0xF8 DUP5 PUSH1 0x3 SHL AND SHR NOT AND SWAP1 SSTORE CODESIZE DUP1 DUP1 PUSH2 0xE18 JUMP JUMPDEST SWAP3 SWAP4 PUSH1 0x20 PUSH1 0x1 DUP2 SWAP3 DUP8 DUP7 ADD MLOAD DUP2 SSTORE ADD SWAP6 ADD SWAP4 ADD PUSH2 0xE02 JUMP JUMPDEST SWAP1 SWAP2 POP DUP4 PUSH1 0x0 MSTORE PUSH1 0x20 PUSH1 0x0 KECCAK256 PUSH1 0x1F DUP5 ADD PUSH1 0x5 SHR DUP2 ADD SWAP2 PUSH1 0x20 DUP6 LT PUSH2 0xE9F JUMPI JUMPDEST SWAP1 PUSH1 0x1F DUP6 SWAP5 SWAP4 SWAP3 ADD PUSH1 0x5 SHR ADD SWAP1 JUMPDEST DUP2 DUP2 LT PUSH2 0xE90 JUMPI POP PUSH2 0x360 JUMP JUMPDEST PUSH1 0x0 DUP2 SSTORE DUP5 SWAP4 POP PUSH1 0x1 ADD PUSH2 0xE83 JUMP JUMPDEST SWAP1 SWAP2 POP DUP2 SWAP1 PUSH2 0xE75 JUMP JUMPDEST ADD MLOAD SWAP1 POP CODESIZE DUP1 PUSH2 0x320 JUMP JUMPDEST PUSH1 0x0 DUP6 DUP2 MSTORE DUP3 DUP2 KECCAK256 SWAP4 POP PUSH1 0x1F NOT DUP6 AND SWAP1 JUMPDEST DUP2 DUP2 LT PUSH2 0xF01 JUMPI POP SWAP1 DUP5 PUSH1 0x1 SWAP6 SWAP5 SWAP4 SWAP3 LT PUSH2 0xEE8 JUMPI JUMPDEST POP POP POP DUP2 SHL ADD SWAP1 SSTORE PUSH2 0x335 JUMP JUMPDEST ADD MLOAD PUSH1 0x0 NOT PUSH1 0xF8 DUP5 PUSH1 0x3 SHL AND SHR NOT AND SWAP1 SSTORE CODESIZE DUP1 DUP1 PUSH2 0xEDB JUMP JUMPDEST SWAP3 SWAP4 PUSH1 0x20 PUSH1 0x1 DUP2 SWAP3 DUP8 DUP7 ADD MLOAD DUP2 SSTORE ADD SWAP6 ADD SWAP4 ADD PUSH2 0xEC5 JUMP JUMPDEST SWAP1 SWAP2 POP DUP4 PUSH1 0x0 MSTORE PUSH1 0x20 PUSH1 0x0 KECCAK256 PUSH1 0x1F DUP5 ADD PUSH1 0x5 SHR DUP2 ADD SWAP2 PUSH1 0x20 DUP6 LT PUSH2 0xF62 JUMPI JUMPDEST SWAP1 PUSH1 0x1F DUP6 SWAP5 SWAP4 SWAP3 ADD PUSH1 0x5 SHR ADD SWAP1 JUMPDEST DUP2 DUP2 LT PUSH2 0xF53 JUMPI POP PUSH2 0x309 JUMP JUMPDEST PUSH1 0x0 DUP2 SSTORE DUP5 SWAP4 POP PUSH1 0x1 ADD PUSH2 0xF46 JUMP JUMPDEST SWAP1 SWAP2 POP DUP2 SWAP1 PUSH2 0xF38 JUMP JUMPDEST ADD MLOAD SWAP1 POP CODESIZE DUP1 PUSH2 0x2C9 JUMP JUMPDEST PUSH1 0x0 DUP13 DUP2 MSTORE DUP3 DUP2 KECCAK256 SWAP4 POP PUSH1 0x1F NOT DUP6 AND SWAP1 JUMPDEST DUP2 DUP2 LT PUSH2 0xFC4 JUMPI POP SWAP1 DUP5 PUSH1 0x1 SWAP6 SWAP5 SWAP4 SWAP3 LT PUSH2 0xFAB JUMPI JUMPDEST POP POP POP DUP2 SHL ADD DUP9 SSTORE PUSH2 0x2DE JUMP JUMPDEST ADD MLOAD PUSH1 0x0 NOT PUSH1 0xF8 DUP5 PUSH1 0x3 SHL AND SHR NOT AND SWAP1 SSTORE CODESIZE DUP1 DUP1 PUSH2 0xF9E JUMP JUMPDEST SWAP3 SWAP4 PUSH1 0x20 PUSH1 0x1 DUP2 SWAP3 DUP8 DUP7 ADD MLOAD DUP2 SSTORE ADD SWAP6 ADD SWAP4 ADD PUSH2 0xF88 JUMP JUMPDEST SWAP1 SWAP2 POP DUP11 PUSH1 0x0 MSTORE PUSH1 0x20 PUSH1 0x0 KECCAK256 PUSH1 0x1F DUP5 ADD PUSH1 0x5 SHR DUP2 ADD SWAP2 PUSH1 0x20 DUP6 LT PUSH2 0x1025 JUMPI JUMPDEST SWAP1 PUSH1 0x1F DUP6 SWAP5 SWAP4 SWAP3 ADD PUSH1 0x5 SHR ADD SWAP1 JUMPDEST DUP2 DUP2 LT PUSH2 0x1016 JUMPI POP PUSH2 0x2B2 JUMP JUMPDEST PUSH1 0x0 DUP2 SSTORE DUP5 SWAP4 POP PUSH1 0x1 ADD PUSH2 0x1009 JUMP JUMPDEST SWAP1 SWAP2 POP DUP2 SWAP1 PUSH2 0xFFB JUMP JUMPDEST PUSH1 0x40 MLOAD PUSH3 0x461BCD PUSH1 0xE5 SHL DUP2 MSTORE PUSH1 0x20 PUSH1 0x4 DUP3 ADD MSTORE PUSH1 0x17 PUSH1 0x24 DUP3 ADD MSTORE PUSH32 0x5573657220616C72656164792072656769737465726564000000000000000000 PUSH1 0x44 DUP3 ADD MSTORE PUSH1 0x64 SWAP1 REVERT JUMPDEST PUSH1 0x0 DUP1 REVERT JUMPDEST CALLVALUE PUSH2 0x1074 JUMPI PUSH1 0x20 CALLDATASIZE PUSH1 0x3 NOT ADD SLT PUSH2 0x1074 JUMPI PUSH1 0x1 PUSH1 0x1 PUSH1 0xA0 SHL SUB PUSH2 0x109A PUSH2 0x13D6 JUMP JUMPDEST AND PUSH1 0x0 MSTORE PUSH1 0x0 PUSH1 0x20 MSTORE PUSH1 0x20 PUSH1 0xFF PUSH1 0xC PUSH1 0x40 PUSH1 0x0 KECCAK256 ADD SLOAD PUSH1 0x8 SHR AND PUSH1 0x40 MLOAD SWAP1 ISZERO ISZERO DUP2 MSTORE RETURN JUMPDEST CALLVALUE PUSH2 0x1074 JUMPI PUSH1 0x20 CALLDATASIZE PUSH1 0x3 NOT ADD SLT PUSH2 0x1074 JUMPI PUSH2 0x10D7 PUSH2 0x13D6 JUMP JUMPDEST SWAP1 PUSH2 0x10E1 DUP2 PUSH2 0x142D JUMP JUMPDEST PUSH1 0x60 DUP2 MSTORE PUSH1 0x20 DUP2 ADD PUSH1 0x60 SWAP1 MSTORE PUSH1 0x40 DUP2 ADD PUSH1 0x60 SWAP1 MSTORE PUSH1 0x60 DUP2 ADD PUSH1 0x60 SWAP1 MSTORE PUSH1 0x80 DUP2 ADD PUSH1 0x60 SWAP1 MSTORE PUSH1 0xA0 DUP2 ADD PUSH1 0x60 SWAP1 MSTORE PUSH1 0xC0 DUP2 ADD PUSH1 0x60 SWAP1 MSTORE PUSH1 0xE0 DUP2 ADD PUSH1 0x60 SWAP1 MSTORE PUSH2 0x100 DUP2 ADD PUSH1 0x60 SWAP1 MSTORE PUSH2 0x120 DUP2 ADD PUSH1 0x60 SWAP1 MSTORE PUSH2 0x140 DUP2 ADD PUSH1 0x60 SWAP1 MSTORE PUSH2 0x160 DUP2 ADD PUSH1 0x60 SWAP1 MSTORE PUSH2 0x180 DUP2 ADD PUSH1 0x0 SWAP1 MSTORE PUSH2 0x1A0 ADD PUSH1 0x0 SWAP1 MSTORE PUSH1 0x1 PUSH1 0xA0 SHL PUSH1 0x1 SWAP1 SUB AND PUSH1 0x0 MSTORE PUSH1 0x0 PUSH1 0x20 MSTORE PUSH1 0x40 PUSH1 0x0 KECCAK256 PUSH1 0x40 MLOAD SWAP1 PUSH2 0x1176 DUP3 PUSH2 0x142D JUMP JUMPDEST PUSH2 0x117F DUP2 PUSH2 0x14FA JUMP JUMPDEST DUP3 MSTORE PUSH2 0x118D PUSH1 0x1 DUP3 ADD PUSH2 0x14FA JUMP JUMPDEST PUSH1 0x20 DUP4 ADD SWAP1 DUP2 MSTORE SWAP2 PUSH2 0x11A1 PUSH1 0x2 DUP4 ADD PUSH2 0x14FA JUMP JUMPDEST PUSH1 0x40 DUP3 ADD SWAP1 DUP2 MSTORE SWAP2 PUSH2 0x11B5 PUSH1 0x3 DUP3 ADD PUSH2 0x14FA JUMP JUMPDEST PUSH1 0x60 DUP4 ADD SWAP1 DUP2 MSTORE PUSH2 0x11C8 PUSH1 0x4 DUP4 ADD PUSH2 0x14FA JUMP JUMPDEST PUSH1 0x80 DUP5 ADD SWAP1 DUP2 MSTORE PUSH2 0x11DB PUSH1 0x5 DUP5 ADD PUSH2 0x14FA JUMP JUMPDEST PUSH1 0xA0 DUP6 ADD SWAP1 DUP2 MSTORE PUSH2 0x11EE PUSH1 0x6 DUP6 ADD PUSH2 0x14FA JUMP JUMPDEST PUSH1 0xC0 DUP7 ADD SWAP1 DUP2 MSTORE PUSH2 0x1201 PUSH1 0x7 DUP7 ADD PUSH2 0x14FA JUMP JUMPDEST PUSH1 0xE0 DUP8 ADD SWAP1 DUP2 MSTORE SWAP1 PUSH2 0x1215 PUSH1 0x8 DUP8 ADD PUSH2 0x14FA JUMP JUMPDEST PUSH2 0x100 DUP9 ADD SWAP1 DUP2 MSTORE SWAP3 PUSH2 0x122A PUSH1 0x9 DUP9 ADD PUSH2 0x14FA JUMP JUMPDEST PUSH2 0x120 DUP10 ADD SWAP1 DUP2 MSTORE SWAP5 PUSH2 0x123F PUSH1 0xA DUP10 ADD PUSH2 0x14FA JUMP JUMPDEST PUSH2 0x140 DUP11 ADD SWAP1 DUP2 MSTORE SWAP7 PUSH2 0x1254 PUSH1 0xB DUP11 ADD PUSH2 0x14FA JUMP JUMPDEST SWAP9 PUSH2 0x160 DUP12 ADD SWAP10 DUP11 MSTORE PUSH1 0xC ADD SLOAD SWAP11 PUSH2 0x180 DUP12 ADD SWAP11 PUSH1 0xFF DUP14 AND PUSH2 0x1276 SWAP1 DUP14 PUSH2 0x159E JUMP JUMPDEST PUSH2 0x1A0 DUP2 ADD SWAP13 PUSH1 0x8 SHR PUSH1 0xFF AND ISZERO ISZERO DUP14 MSTORE PUSH1 0x40 MLOAD SWAP14 DUP15 SWAP2 PUSH1 0x20 DUP4 MSTORE MLOAD PUSH1 0x20 DUP4 ADD PUSH2 0x1C0 SWAP1 MSTORE PUSH2 0x1E0 DUP4 ADD PUSH2 0x12A8 SWAP2 PUSH2 0x13EC JUMP JUMPDEST SWAP1 MLOAD SWAP2 PUSH1 0x1F NOT DUP2 DUP4 SUB ADD SWAP1 PUSH1 0x40 ADD MSTORE PUSH2 0x12C0 SWAP2 PUSH2 0x13EC JUMP JUMPDEST SWAP1 MLOAD DUP14 DUP3 SUB PUSH1 0x1F NOT ADD PUSH1 0x60 DUP16 ADD MSTORE PUSH2 0x12D8 SWAP2 SWAP1 PUSH2 0x13EC JUMP JUMPDEST SWAP1 MLOAD DUP13 DUP3 SUB PUSH1 0x1F NOT ADD PUSH1 0x80 DUP15 ADD MSTORE PUSH2 0x12F0 SWAP2 SWAP1 PUSH2 0x13EC JUMP JUMPDEST SWAP1 MLOAD DUP12 DUP3 SUB PUSH1 0x1F NOT ADD PUSH1 0xA0 DUP14 ADD MSTORE PUSH2 0x1308 SWAP2 SWAP1 PUSH2 0x13EC JUMP JUMPDEST SWAP1 MLOAD DUP11 DUP3 SUB PUSH1 0x1F NOT ADD PUSH1 0xC0 DUP13 ADD MSTORE PUSH2 0x1320 SWAP2 SWAP1 PUSH2 0x13EC JUMP JUMPDEST SWAP1 MLOAD DUP10 DUP3 SUB PUSH1 0x1F NOT ADD PUSH1 0xE0 DUP12 ADD MSTORE PUSH2 0x1338 SWAP2 SWAP1 PUSH2 0x13EC JUMP JUMPDEST SWAP1 MLOAD DUP9 DUP3 SUB PUSH1 0x1F NOT ADD PUSH2 0x100 DUP11 ADD MSTORE PUSH2 0x1351 SWAP2 SWAP1 PUSH2 0x13EC JUMP JUMPDEST SWAP1 MLOAD DUP8 DUP3 SUB PUSH1 0x1F NOT ADD PUSH2 0x120 DUP10 ADD MSTORE PUSH2 0x136A SWAP2 SWAP1 PUSH2 0x13EC JUMP JUMPDEST SWAP1 MLOAD DUP7 DUP3 SUB PUSH1 0x1F NOT ADD PUSH2 0x140 DUP9 ADD MSTORE PUSH2 0x1383 SWAP2 SWAP1 PUSH2 0x13EC JUMP JUMPDEST SWAP1 MLOAD DUP6 DUP3 SUB PUSH1 0x1F NOT ADD PUSH2 0x160 DUP8 ADD MSTORE PUSH2 0x139C SWAP2 SWAP1 PUSH2 0x13EC JUMP JUMPDEST SWAP1 MLOAD DUP5 DUP3 SUB PUSH1 0x1F NOT ADD PUSH2 0x180 DUP7 ADD MSTORE PUSH2 0x13B5 SWAP2 SWAP1 PUSH2 0x13EC JUMP JUMPDEST SWAP1 MLOAD SWAP2 PUSH1 0x4 DUP4 LT ISZERO PUSH2 0x6E4 JUMPI DUP4 SWAP3 PUSH2 0x1A0 DUP5 ADD MSTORE MLOAD ISZERO ISZERO PUSH2 0x1C0 DUP4 ADD MSTORE SUB SWAP1 RETURN JUMPDEST PUSH1 0x4 CALLDATALOAD SWAP1 PUSH1 0x1 PUSH1 0x1 PUSH1 0xA0 SHL SUB DUP3 AND DUP3 SUB PUSH2 0x1074 JUMPI JUMP JUMPDEST SWAP2 SWAP1 DUP3 MLOAD SWAP3 DUP4 DUP3 MSTORE PUSH1 0x0 JUMPDEST DUP5 DUP2 LT PUSH2 0x1418 JUMPI POP POP DUP3 PUSH1 0x0 PUSH1 0x20 DUP1 SWAP5 SWAP6 DUP5 ADD ADD MSTORE PUSH1 0x1F DUP1 NOT SWAP2 ADD AND ADD ADD SWAP1 JUMP JUMPDEST DUP1 PUSH1 0x20 DUP1 SWAP3 DUP5 ADD ADD MLOAD DUP3 DUP3 DUP7 ADD ADD MSTORE ADD PUSH2 0x13F7 JUMP JUMPDEST PUSH2 0x1C0 DUP2 ADD SWAP1 DUP2 LT PUSH1 0x1 PUSH1 0x1 PUSH1 0x40 SHL SUB DUP3 GT OR PUSH2 0x7B8 JUMPI PUSH1 0x40 MSTORE JUMP JUMPDEST SWAP1 PUSH1 0x1F DUP1 NOT SWAP2 ADD AND DUP2 ADD SWAP1 DUP2 LT PUSH1 0x1 PUSH1 0x1 PUSH1 0x40 SHL SUB DUP3 GT OR PUSH2 0x7B8 JUMPI PUSH1 0x40 MSTORE JUMP JUMPDEST DUP2 PUSH1 0x1F DUP3 ADD SLT ISZERO PUSH2 0x1074 JUMPI DUP1 CALLDATALOAD SWAP1 PUSH1 0x1 PUSH1 0x1 PUSH1 0x40 SHL SUB DUP3 GT PUSH2 0x7B8 JUMPI PUSH1 0x40 MLOAD SWAP3 PUSH2 0x149E PUSH1 0x1F DUP5 ADD PUSH1 0x1F NOT AND PUSH1 0x20 ADD DUP6 PUSH2 0x1449 JUMP JUMPDEST DUP3 DUP5 MSTORE PUSH1 0x20 DUP4 DUP4 ADD ADD GT PUSH2 0x1074 JUMPI DUP2 PUSH1 0x0 SWAP3 PUSH1 0x20 DUP1 SWAP4 ADD DUP4 DUP7 ADD CALLDATACOPY DUP4 ADD ADD MSTORE SWAP1 JUMP JUMPDEST SWAP1 PUSH1 0x1 DUP3 DUP2 SHR SWAP3 AND DUP1 ISZERO PUSH2 0x14F0 JUMPI JUMPDEST PUSH1 0x20 DUP4 LT EQ PUSH2 0x14DA JUMPI JUMP JUMPDEST PUSH4 0x4E487B71 PUSH1 0xE0 SHL PUSH1 0x0 MSTORE PUSH1 0x22 PUSH1 0x4 MSTORE PUSH1 0x24 PUSH1 0x0 REVERT JUMPDEST SWAP2 PUSH1 0x7F AND SWAP2 PUSH2 0x14CF JUMP JUMPDEST SWAP1 PUSH1 0x40 MLOAD SWAP2 DUP3 PUSH1 0x0 DUP3 SLOAD SWAP3 PUSH2 0x150E DUP5 PUSH2 0x14C0 JUMP JUMPDEST DUP1 DUP5 MSTORE SWAP4 PUSH1 0x1 DUP2 AND SWAP1 DUP2 ISZERO PUSH2 0x157C JUMPI POP PUSH1 0x1 EQ PUSH2 0x1535 JUMPI JUMPDEST POP PUSH2 0x1533 SWAP3 POP SUB DUP4 PUSH2 0x1449 JUMP JUMPDEST JUMP JUMPDEST SWAP1 POP PUSH1 0x0 SWAP3 SWAP2 SWAP3 MSTORE PUSH1 0x20 PUSH1 0x0 KECCAK256 SWAP1 PUSH1 0x0 SWAP2 JUMPDEST DUP2 DUP4 LT PUSH2 0x1560 JUMPI POP POP SWAP1 PUSH1 0x20 PUSH2 0x1533 SWAP3 DUP3 ADD ADD CODESIZE PUSH2 0x1526 JUMP JUMPDEST PUSH1 0x20 SWAP2 SWAP4 POP DUP1 PUSH1 0x1 SWAP2 SLOAD DUP4 DUP6 DUP10 ADD ADD MSTORE ADD SWAP2 ADD SWAP1 SWAP2 DUP5 SWAP3 PUSH2 0x1547 JUMP JUMPDEST SWAP1 POP PUSH1 0x20 SWAP3 POP PUSH2 0x1533 SWAP5 SWAP2 POP PUSH1 0xFF NOT AND DUP3 DUP5 ADD MSTORE ISZERO ISZERO PUSH1 0x5 SHL DUP3 ADD ADD CODESIZE PUSH2 0x1526 JUMP JUMPDEST PUSH1 0x4 DUP3 LT ISZERO PUSH2 0x6E4 JUMPI MSTORE JUMP INVALID LOG2 PUSH5 0x6970667358 0x22 SLT KECCAK256 MUL PUSH6 0xB758F7C41ACA DUP10 0xE8 0xC2 MOD SUB 0xF7 SWAP16 0xBB 0xEE 0x4E 0xEF 0xEF LOG1 MULMOD SWAP7 SELFBALANCE SLOAD PUSH14 0x776F0ADDB92E64736F6C63430008 SHR STOP CALLER "},"methodIdentifiers":{"getUser(address)":"6f77926b","isRegistered(address)":"c3c5a547","registerUser(address,string,string,string,string,string,string,string,string,string,string,string,string,uint8)":"ecefde75"}}}}}