{"contracts/CertificateRegistry.sol":{"CertificateRegistry":{"abi":[{"anonymous":false,"inputs":[{"indexed":true,"internalType":"address","name":"institution","type":"address"},{"indexed":true,"internalType":"address","name":"student","type":"address"},{"indexed":false,"internalType":"string","name":"nameOfCert","type":"string"},{"indexed":false,"internalType":"uint256","name":"dateIssued","type":"uint256"}],"name":"CertificateIssued","type":"event"},{"inputs":[{"internalType":"address","name":"_studentWallet","type":"address"},{"internalType":"string","name":"_certHash","type":"string"}],"name":"getCertificateByHash","outputs":[{"components":[{"internalType":"string","name":"nameOfInstitution","type":"string"},{"internalType":"string","name":"nameOfCert","type":"string"},{"internalType":"string","name":"nameOfStudent","type":"string"},{"internalType":"string","name":"college","type":"string"},{"internalType":"string","name":"course","type":"string"},{"internalType":"string","name":"major","type":"string"},{"internalType":"string","name":"certStatus","type":"string"},{"internalType":"string","name":"certHash","type":"string"},{"internalType":"address","name":"walletAddressOfStudent","type":"address"},{"internalType":"address","name":"walletAddressOfInstitution","type":"address"},{"internalType":"string","name":"imageOfCertificate","type":"string"},{"internalType":"uint256","name":"dateIssued","type":"uint256"}],"internalType":"struct CertificateRegistry.Certificate","name":"","type":"tuple"}],"stateMutability":"view","type":"function"},{"inputs":[{"internalType":"address","name":"_studentWallet","type":"address"},{"internalType":"uint256","name":"index","type":"uint256"}],"name":"getCertificateByIndex","outputs":[{"components":[{"internalType":"string","name":"nameOfInstitution","type":"string"},{"internalType":"string","name":"nameOfCert","type":"string"},{"internalType":"string","name":"nameOfStudent","type":"string"},{"internalType":"string","name":"college","type":"string"},{"internalType":"string","name":"course","type":"string"},{"internalType":"string","name":"major","type":"string"},{"internalType":"string","name":"certStatus","type":"string"},{"internalType":"string","name":"certHash","type":"string"},{"internalType":"address","name":"walletAddressOfStudent","type":"address"},{"internalType":"address","name":"walletAddressOfInstitution","type":"address"},{"internalType":"string","name":"imageOfCertificate","type":"string"},{"internalType":"uint256","name":"dateIssued","type":"uint256"}],"internalType":"struct CertificateRegistry.Certificate","name":"","type":"tuple"}],"stateMutability":"view","type":"function"},{"inputs":[{"internalType":"address","name":"_studentWallet","type":"address"}],"name":"getCertificateCount","outputs":[{"internalType":"uint256","name":"","type":"uint256"}],"stateMutability":"view","type":"function"},{"inputs":[{"internalType":"address","name":"_studentWallet","type":"address"}],"name":"getCertificates","outputs":[{"components":[{"internalType":"string","name":"nameOfInstitution","type":"string"},{"internalType":"string","name":"nameOfCert","type":"string"},{"internalType":"string","name":"nameOfStudent","type":"string"},{"internalType":"string","name":"college","type":"string"},{"internalType":"string","name":"course","type":"string"},{"internalType":"string","name":"major","type":"string"},{"internalType":"string","name":"certStatus","type":"string"},{"internalType":"string","name":"certHash","type":"string"},{"internalType":"address","name":"walletAddressOfStudent","type":"address"},{"internalType":"address","name":"walletAddressOfInstitution","type":"address"},{"internalType":"string","name":"imageOfCertificate","type":"string"},{"internalType":"uint256","name":"dateIssued","type":"uint256"}],"internalType":"struct CertificateRegistry.Certificate[]","name":"","type":"tuple[]"}],"stateMutability":"view","type":"function"},{"inputs":[{"internalType":"address","name":"_studentWallet","type":"address"},{"internalType":"string","name":"_nameOfInstitution","type":"string"},{"internalType":"string","name":"_nameOfCert","type":"string"},{"internalType":"string","name":"_nameOfStudent","type":"string"},{"internalType":"string","name":"_college","type":"string"},{"internalType":"string","name":"_course","type":"string"},{"internalType":"string","name":"_major","type":"string"},{"internalType":"string","name":"_certStatus","type":"string"},{"internalType":"string","name":"_certHash","type":"string"},{"internalType":"string","name":"_imageOfCertificate","type":"string"}],"name":"issueCertificate","outputs":[],"stateMutability":"nonpayable","type":"function"}],"evm":{"bytecode":{"linkReferences":{},"object":"608080604052346015576114c5908161001b8239f35b600080fdfe6080604052600436101561001257600080fd5b60003560e01c80634e39e69814610f09578063a29bad4d14610258578063b1d5ccf81461021e578063c50ae471146101635763f1c49c621461005357600080fd5b3461015e57602036600319011261015e576001600160a01b03610074610f4e565b16600052600060205260406000208054906001600160401b03821161014857604051916100a760208260051b0184610f80565b80835260208301809260005260206000206000915b83831061012a57848660405191829160208301906020845251809152604083019060408160051b85010192916000905b8282106100fb57505050500390f35b9193600191939550602061011a8192603f198a82030186528851611038565b96019201920185949391926100ec565b600c602060019261013a8561126d565b8152019201920191906100bc565b634e487b7160e01b600052604160045260246000fd5b600080fd5b3461015e57604036600319011261015e5761017c610f4e565b6024359061018861112e565b5060018060a01b0316908160005260006020526040600020548110156101e3576101c56101cb916101df9360005260006020526040600020611473565b5061126d565b604051918291602083526020830190611038565b0390f35b60405162461bcd60e51b8152602060048201526013602482015272496e646578206f7574206f6620626f756e647360681b6044820152606490fd5b3461015e57602036600319011261015e576001600160a01b0361023f610f4e565b1660005260006020526020604060002054604051908152f35b3461015e5761014036600319011261015e57610272610f4e565b6024356001600160401b03811161015e57610291903690600401610fa1565b6044356001600160401b03811161015e576102b0903690600401610fa1565b906064356001600160401b03811161015e576102d0903690600401610fa1565b906084356001600160401b03811161015e576102f0903690600401610fa1565b60a4356001600160401b03811161015e5761030f903690600401610fa1565b60c4356001600160401b03811161015e5761032e903690600401610fa1565b9060e4356001600160401b03811161015e5761034e903690600401610fa1565b92610104356001600160401b03811161015e5761036f903690600401610fa1565b95610124356001600160401b03811161015e57610390903690600401610fa1565b983315610ec457604051966103a488610f64565b8752602087019789895260408801928352606088019384526080880194855260a0880195865260c0880196875260e088015260018060a01b03169889610100880152336101208801526101408701524261016087015288600052600060205260406000208054680100000000000000008110156101485761042a91600182018155611473565b979097610eae5786518051906001600160401b0382116101485781906104508b5461118f565b601f8111610e5b575b50602090601f8311600114610df657600092610deb575b50508160011b916000199060031b1c19161788555b51805160018901916001600160401b0382116101485781906104a7845461118f565b601f8111610d98575b50602090601f8311600114610d3357600092610d28575b50508160011b916000199060031b1c19161790555b51805160028801916001600160401b0382116101485781906104fe845461118f565b601f8111610cd5575b50602090601f8311600114610c7057600092610c65575b50508160011b916000199060031b1c19161790555b51805160038701916001600160401b038211610148578190610555845461118f565b601f8111610c12575b50602090601f8311600114610bad57600092610ba2575b50508160011b916000199060031b1c19161790555b51805160048601916001600160401b0382116101485781906105ac845461118f565b601f8111610b4f575b50602090601f8311600114610aea57600092610adf575b50508160011b916000199060031b1c19161790555b51805160058501916001600160401b038211610148578190610603845461118f565b601f8111610a8c575b50602090601f8311600114610a2757600092610a1c575b50508160011b916000199060031b1c19161790555b51805160068401916001600160401b03821161014857819061065a845461118f565b601f81116109c9575b50602090601f831160011461096457600092610959575b50508160011b916000199060031b1c19161790555b6007820160e08201518051906001600160401b0382116101485781906106b5845461118f565b601f8111610906575b50602090601f83116001146108a157600092610896575b50508160011b916000199060031b1c19161790555b6101008101516008830180546001600160a01b039283166001600160a01b0319918216179091556101208301516009850180549190931691161790556101408101518051600a8401916001600160401b0382116101485761074b835461118f565b601f811161084e575b50602090601f83116001146107e05791806101609492600b96946000926107d5575b50508160011b916000199060031b1c19161790555b01519101557f0d4c8b54bb811347956d50e4e7ada18786723b008c84b0d9be92f77312c8d4a86107c660405192604084526040840190610ff7565b914260208201528033930390a3005b015190508980610776565b90601f1983169184600052816000209260005b8181106108365750926001928592600b989661016098961061081d575b505050811b01905561078b565b015160001960f88460031b161c19169055898080610810565b929360206001819287860151815501950193016107f3565b836000526020600020601f840160051c8101916020851061088c575b601f0160051c01905b8181106108805750610754565b60008155600101610873565b909150819061086a565b0151905087806106d5565b60008581528281209350601f198516905b8181106108ee57509084600195949392106108d5575b505050811b0190556106ea565b015160001960f88460031b161c191690558780806108c8565b929360206001819287860151815501950193016108b2565b909150836000526020600020601f840160051c8101916020851061094f575b90601f859493920160051c01905b81811061094057506106be565b60008155849350600101610933565b9091508190610925565b01519050878061067a565b60008581528281209350601f198516905b8181106109b15750908460019594939210610998575b505050811b01905561068f565b015160001960f88460031b161c1916905587808061098b565b92936020600181928786015181550195019301610975565b909150836000526020600020601f840160051c81019160208510610a12575b90601f859493920160051c01905b818110610a035750610663565b600081558493506001016109f6565b90915081906109e8565b015190508880610623565b60008581528281209350601f198516905b818110610a745750908460019594939210610a5b575b505050811b019055610638565b015160001960f88460031b161c19169055888080610a4e565b92936020600181928786015181550195019301610a38565b909150836000526020600020601f840160051c81019160208510610ad5575b90601f859493920160051c01905b818110610ac6575061060c565b60008155849350600101610ab9565b9091508190610aab565b0151905089806105cc565b60008581528281209350601f198516905b818110610b375750908460019594939210610b1e575b505050811b0190556105e1565b015160001960f88460031b161c19169055898080610b11565b92936020600181928786015181550195019301610afb565b909150836000526020600020601f840160051c81019160208510610b98575b90601f859493920160051c01905b818110610b8957506105b5565b60008155849350600101610b7c565b9091508190610b6e565b015190508a80610575565b60008581528281209350601f198516905b818110610bfa5750908460019594939210610be1575b505050811b01905561058a565b015160001960f88460031b161c191690558a8080610bd4565b92936020600181928786015181550195019301610bbe565b909150836000526020600020601f840160051c81019160208510610c5b575b90601f859493920160051c01905b818110610c4c575061055e565b60008155849350600101610c3f565b9091508190610c31565b015190508b8061051e565b60008581528281209350601f198516905b818110610cbd5750908460019594939210610ca4575b505050811b019055610533565b015160001960f88460031b161c191690558b8080610c97565b92936020600181928786015181550195019301610c81565b909150836000526020600020601f840160051c81019160208510610d1e575b90601f859493920160051c01905b818110610d0f5750610507565b60008155849350600101610d02565b9091508190610cf4565b015190508c806104c7565b60008581528281209350601f198516905b818110610d805750908460019594939210610d67575b505050811b0190556104dc565b015160001960f88460031b161c191690558c8080610d5a565b92936020600181928786015181550195019301610d44565b909150836000526020600020601f840160051c81019160208510610de1575b90601f859493920160051c01905b818110610dd257506104b0565b60008155849350600101610dc5565b9091508190610db7565b015190508c80610470565b60008c81528281209350601f198516905b818110610e435750908460019594939210610e2a575b505050811b018855610485565b015160001960f88460031b161c191690558c8080610e1d565b92936020600181928786015181550195019301610e07565b9091508a6000526020600020601f840160051c81019160208510610ea4575b90601f859493920160051c01905b818110610e955750610459565b60008155849350600101610e88565b9091508190610e7a565b634e487b7160e01b600052600060045260246000fd5b60405162461bcd60e51b815260206004820152601b60248201527f496e76616c696420696e737469747574696f6e206164647265737300000000006044820152606490fd5b3461015e57604036600319011261015e57610f22610f4e565b6024356001600160401b03811161015e576101df91610f486101cb923690600401610fa1565b90611368565b600435906001600160a01b038216820361015e57565b61018081019081106001600160401b0382111761014857604052565b90601f801991011681019081106001600160401b0382111761014857604052565b81601f8201121561015e578035906001600160401b0382116101485760405192610fd5601f8401601f191660200185610f80565b8284526020838301011161015e57816000926020809301838601378301015290565b919082519283825260005b848110611023575050826000602080949584010152601f8019910116010190565b80602080928401015182828601015201611002565b90610160806111256110e96110d76110c56110b36110a161108f61107d61106a8c516101808d526101808d0190610ff7565b60208d01518c6020818403910152610ff7565b60408c01518b820360408d0152610ff7565b60608b01518a820360608c0152610ff7565b60808a015189820360808b0152610ff7565b60a089015188820360a08a0152610ff7565b60c088015187820360c0890152610ff7565b60e087015186820360e0880152610ff7565b60018060a01b036101008701511661010086015260018060a01b0361012087015116610120860152610140860151858203610140870152610ff7565b93015191015290565b6040519061113b82610f64565b60006101608360608152606060208201526060604082015260608082015260606080820152606060a0820152606060c0820152606060e0820152826101008201528261012082015260606101408201520152565b90600182811c921680156111bf575b60208310146111a957565b634e487b7160e01b600052602260045260246000fd5b91607f169161119e565b90604051918260008254926111dd8461118f565b808452936001811690811561124b5750600114611204575b5061120292500383610f80565b565b90506000929192526020600020906000915b81831061122f57505090602061120292820101386111f5565b6020919350806001915483858901015201910190918492611216565b90506020925061120294915060ff191682840152151560051b820101386111f5565b9060405161127a81610f64565b610160600b829461128a816111c9565b8452611298600182016111c9565b60208501526112a9600282016111c9565b60408501526112ba600382016111c9565b60608501526112cb600482016111c9565b60808501526112dc600582016111c9565b60a08501526112ed600682016111c9565b60c08501526112fe600782016111c9565b60e085015260088101546001600160a01b03908116610100860152600982015416610120850152611331600a82016111c9565b6101408501520154910152565b80518210156113525760209160051b010190565b634e487b7160e01b600052603260045260246000fd5b61137061112e565b506001600160a01b0316600090815260208190526040902080546001600160401b03811161014857604051916113ac60208360051b0184610f80565b818352602083019060005260206000206000915b838310611455575050505060005b81518110156114105760e06113e3828461133e565b510151602081519101208351602085012014611401576001016113ce565b9061140c925061133e565b5190565b60405162461bcd60e51b815260206004820152601a60248201527f436572746966696361746520646f6573206e6f742065786973740000000000006044820152606490fd5b600c60206001926114658561126d565b8152019201920191906113c0565b805482101561135257600052600c60206000209102019060009056fea264697066735822122031316e3176ca6fa2eca7f2a028484efe4b1b0cc0851c45122465b3b0cab36d6f64736f6c634300081c0033","opcodes":"PUSH1 0x80 DUP1 PUSH1 0x40 MSTORE CALLVALUE PUSH1 0x15 JUMPI PUSH2 0x14C5 SWAP1 DUP2 PUSH2 0x1B DUP3 CODECOPY RETURN JUMPDEST PUSH1 0x0 DUP1 REVERT INVALID PUSH1 0x80 PUSH1 0x40 MSTORE PUSH1 0x4 CALLDATASIZE LT ISZERO PUSH2 0x12 JUMPI PUSH1 0x0 DUP1 REVERT JUMPDEST PUSH1 0x0 CALLDATALOAD PUSH1 0xE0 SHR DUP1 PUSH4 0x4E39E698 EQ PUSH2 0xF09 JUMPI DUP1 PUSH4 0xA29BAD4D EQ PUSH2 0x258 JUMPI DUP1 PUSH4 0xB1D5CCF8 EQ PUSH2 0x21E JUMPI DUP1 PUSH4 0xC50AE471 EQ PUSH2 0x163 JUMPI PUSH4 0xF1C49C62 EQ PUSH2 0x53 JUMPI PUSH1 0x0 DUP1 REVERT JUMPDEST CALLVALUE PUSH2 0x15E JUMPI PUSH1 0x20 CALLDATASIZE PUSH1 0x3 NOT ADD SLT PUSH2 0x15E JUMPI PUSH1 0x1 PUSH1 0x1 PUSH1 0xA0 SHL SUB PUSH2 0x74 PUSH2 0xF4E JUMP JUMPDEST AND PUSH1 0x0 MSTORE PUSH1 0x0 PUSH1 0x20 MSTORE PUSH1 0x40 PUSH1 0x0 KECCAK256 DUP1 SLOAD SWAP1 PUSH1 0x1 PUSH1 0x1 PUSH1 0x40 SHL SUB DUP3 GT PUSH2 0x148 JUMPI PUSH1 0x40 MLOAD SWAP2 PUSH2 0xA7 PUSH1 0x20 DUP3 PUSH1 0x5 SHL ADD DUP5 PUSH2 0xF80 JUMP JUMPDEST DUP1 DUP4 MSTORE PUSH1 0x20 DUP4 ADD DUP1 SWAP3 PUSH1 0x0 MSTORE PUSH1 0x20 PUSH1 0x0 KECCAK256 PUSH1 0x0 SWAP2 JUMPDEST DUP4 DUP4 LT PUSH2 0x12A JUMPI DUP5 DUP7 PUSH1 0x40 MLOAD SWAP2 DUP3 SWAP2 PUSH1 0x20 DUP4 ADD SWAP1 PUSH1 0x20 DUP5 MSTORE MLOAD DUP1 SWAP2 MSTORE PUSH1 0x40 DUP4 ADD SWAP1 PUSH1 0x40 DUP2 PUSH1 0x5 SHL DUP6 ADD ADD SWAP3 SWAP2 PUSH1 0x0 SWAP1 JUMPDEST DUP3 DUP3 LT PUSH2 0xFB JUMPI POP POP POP POP SUB SWAP1 RETURN JUMPDEST SWAP2 SWAP4 PUSH1 0x1 SWAP2 SWAP4 SWAP6 POP PUSH1 0x20 PUSH2 0x11A DUP2 SWAP3 PUSH1 0x3F NOT DUP11 DUP3 SUB ADD DUP7 MSTORE DUP9 MLOAD PUSH2 0x1038 JUMP JUMPDEST SWAP7 ADD SWAP3 ADD SWAP3 ADD DUP6 SWAP5 SWAP4 SWAP2 SWAP3 PUSH2 0xEC JUMP JUMPDEST PUSH1 0xC PUSH1 0x20 PUSH1 0x1 SWAP3 PUSH2 0x13A DUP6 PUSH2 0x126D JUMP JUMPDEST DUP2 MSTORE ADD SWAP3 ADD SWAP3 ADD SWAP2 SWAP1 PUSH2 0xBC JUMP JUMPDEST PUSH4 0x4E487B71 PUSH1 0xE0 SHL PUSH1 0x0 MSTORE PUSH1 0x41 PUSH1 0x4 MSTORE PUSH1 0x24 PUSH1 0x0 REVERT JUMPDEST PUSH1 0x0 DUP1 REVERT JUMPDEST CALLVALUE PUSH2 0x15E JUMPI PUSH1 0x40 CALLDATASIZE PUSH1 0x3 NOT ADD SLT PUSH2 0x15E JUMPI PUSH2 0x17C PUSH2 0xF4E JUMP JUMPDEST PUSH1 0x24 CALLDATALOAD SWAP1 PUSH2 0x188 PUSH2 0x112E JUMP JUMPDEST POP PUSH1 0x1 DUP1 PUSH1 0xA0 SHL SUB AND SWAP1 DUP2 PUSH1 0x0 MSTORE PUSH1 0x0 PUSH1 0x20 MSTORE PUSH1 0x40 PUSH1 0x0 KECCAK256 SLOAD DUP2 LT ISZERO PUSH2 0x1E3 JUMPI PUSH2 0x1C5 PUSH2 0x1CB SWAP2 PUSH2 0x1DF SWAP4 PUSH1 0x0 MSTORE PUSH1 0x0 PUSH1 0x20 MSTORE PUSH1 0x40 PUSH1 0x0 KECCAK256 PUSH2 0x1473 JUMP JUMPDEST POP PUSH2 0x126D JUMP JUMPDEST PUSH1 0x40 MLOAD SWAP2 DUP3 SWAP2 PUSH1 0x20 DUP4 MSTORE PUSH1 0x20 DUP4 ADD SWAP1 PUSH2 0x1038 JUMP JUMPDEST SUB SWAP1 RETURN JUMPDEST PUSH1 0x40 MLOAD PUSH3 0x461BCD PUSH1 0xE5 SHL DUP2 MSTORE PUSH1 0x20 PUSH1 0x4 DUP3 ADD MSTORE PUSH1 0x13 PUSH1 0x24 DUP3 ADD MSTORE PUSH19 0x496E646578206F7574206F6620626F756E6473 PUSH1 0x68 SHL PUSH1 0x44 DUP3 ADD MSTORE PUSH1 0x64 SWAP1 REVERT JUMPDEST CALLVALUE PUSH2 0x15E JUMPI PUSH1 0x20 CALLDATASIZE PUSH1 0x3 NOT ADD SLT PUSH2 0x15E JUMPI PUSH1 0x1 PUSH1 0x1 PUSH1 0xA0 SHL SUB PUSH2 0x23F PUSH2 0xF4E JUMP JUMPDEST AND PUSH1 0x0 MSTORE PUSH1 0x0 PUSH1 0x20 MSTORE PUSH1 0x20 PUSH1 0x40 PUSH1 0x0 KECCAK256 SLOAD PUSH1 0x40 MLOAD SWAP1 DUP2 MSTORE RETURN JUMPDEST CALLVALUE PUSH2 0x15E JUMPI PUSH2 0x140 CALLDATASIZE PUSH1 0x3 NOT ADD SLT PUSH2 0x15E JUMPI PUSH2 0x272 PUSH2 0xF4E JUMP JUMPDEST PUSH1 0x24 CALLDATALOAD PUSH1 0x1 PUSH1 0x1 PUSH1 0x40 SHL SUB DUP2 GT PUSH2 0x15E JUMPI PUSH2 0x291 SWAP1 CALLDATASIZE SWAP1 PUSH1 0x4 ADD PUSH2 0xFA1 JUMP JUMPDEST PUSH1 0x44 CALLDATALOAD PUSH1 0x1 PUSH1 0x1 PUSH1 0x40 SHL SUB DUP2 GT PUSH2 0x15E JUMPI PUSH2 0x2B0 SWAP1 CALLDATASIZE SWAP1 PUSH1 0x4 ADD PUSH2 0xFA1 JUMP JUMPDEST SWAP1 PUSH1 0x64 CALLDATALOAD PUSH1 0x1 PUSH1 0x1 PUSH1 0x40 SHL SUB DUP2 GT PUSH2 0x15E JUMPI PUSH2 0x2D0 SWAP1 CALLDATASIZE SWAP1 PUSH1 0x4 ADD PUSH2 0xFA1 JUMP JUMPDEST SWAP1 PUSH1 0x84 CALLDATALOAD PUSH1 0x1 PUSH1 0x1 PUSH1 0x40 SHL SUB DUP2 GT PUSH2 0x15E JUMPI PUSH2 0x2F0 SWAP1 CALLDATASIZE SWAP1 PUSH1 0x4 ADD PUSH2 0xFA1 JUMP JUMPDEST PUSH1 0xA4 CALLDATALOAD PUSH1 0x1 PUSH1 0x1 PUSH1 0x40 SHL SUB DUP2 GT PUSH2 0x15E JUMPI PUSH2 0x30F SWAP1 CALLDATASIZE SWAP1 PUSH1 0x4 ADD PUSH2 0xFA1 JUMP JUMPDEST PUSH1 0xC4 CALLDATALOAD PUSH1 0x1 PUSH1 0x1 PUSH1 0x40 SHL SUB DUP2 GT PUSH2 0x15E JUMPI PUSH2 0x32E SWAP1 CALLDATASIZE SWAP1 PUSH1 0x4 ADD PUSH2 0xFA1 JUMP JUMPDEST SWAP1 PUSH1 0xE4 CALLDATALOAD PUSH1 0x1 PUSH1 0x1 PUSH1 0x40 SHL SUB DUP2 GT PUSH2 0x15E JUMPI PUSH2 0x34E SWAP1 CALLDATASIZE SWAP1 PUSH1 0x4 ADD PUSH2 0xFA1 JUMP JUMPDEST SWAP3 PUSH2 0x104 CALLDATALOAD PUSH1 0x1 PUSH1 0x1 PUSH1 0x40 SHL SUB DUP2 GT PUSH2 0x15E JUMPI PUSH2 0x36F SWAP1 CALLDATASIZE SWAP1 PUSH1 0x4 ADD PUSH2 0xFA1 JUMP JUMPDEST SWAP6 PUSH2 0x124 CALLDATALOAD PUSH1 0x1 PUSH1 0x1 PUSH1 0x40 SHL SUB DUP2 GT PUSH2 0x15E JUMPI PUSH2 0x390 SWAP1 CALLDATASIZE SWAP1 PUSH1 0x4 ADD PUSH2 0xFA1 JUMP JUMPDEST SWAP9 CALLER ISZERO PUSH2 0xEC4 JUMPI PUSH1 0x40 MLOAD SWAP7 PUSH2 0x3A4 DUP9 PUSH2 0xF64 JUMP JUMPDEST DUP8 MSTORE PUSH1 0x20 DUP8 ADD SWAP8 DUP10 DUP10 MSTORE PUSH1 0x40 DUP9 ADD SWAP3 DUP4 MSTORE PUSH1 0x60 DUP9 ADD SWAP4 DUP5 MSTORE PUSH1 0x80 DUP9 ADD SWAP5 DUP6 MSTORE PUSH1 0xA0 DUP9 ADD SWAP6 DUP7 MSTORE PUSH1 0xC0 DUP9 ADD SWAP7 DUP8 MSTORE PUSH1 0xE0 DUP9 ADD MSTORE PUSH1 0x1 DUP1 PUSH1 0xA0 SHL SUB AND SWAP9 DUP10 PUSH2 0x100 DUP9 ADD MSTORE CALLER PUSH2 0x120 DUP9 ADD MSTORE PUSH2 0x140 DUP8 ADD MSTORE TIMESTAMP PUSH2 0x160 DUP8 ADD MSTORE DUP9 PUSH1 0x0 MSTORE PUSH1 0x0 PUSH1 0x20 MSTORE PUSH1 0x40 PUSH1 0x0 KECCAK256 DUP1 SLOAD PUSH9 0x10000000000000000 DUP2 LT ISZERO PUSH2 0x148 JUMPI PUSH2 0x42A SWAP2 PUSH1 0x1 DUP3 ADD DUP2 SSTORE PUSH2 0x1473 JUMP JUMPDEST SWAP8 SWAP1 SWAP8 PUSH2 0xEAE JUMPI DUP7 MLOAD DUP1 MLOAD SWAP1 PUSH1 0x1 PUSH1 0x1 PUSH1 0x40 SHL SUB DUP3 GT PUSH2 0x148 JUMPI DUP2 SWAP1 PUSH2 0x450 DUP12 SLOAD PUSH2 0x118F JUMP JUMPDEST PUSH1 0x1F DUP2 GT PUSH2 0xE5B JUMPI JUMPDEST POP PUSH1 0x20 SWAP1 PUSH1 0x1F DUP4 GT PUSH1 0x1 EQ PUSH2 0xDF6 JUMPI PUSH1 0x0 SWAP3 PUSH2 0xDEB JUMPI JUMPDEST POP POP DUP2 PUSH1 0x1 SHL SWAP2 PUSH1 0x0 NOT SWAP1 PUSH1 0x3 SHL SHR NOT AND OR DUP9 SSTORE JUMPDEST MLOAD DUP1 MLOAD PUSH1 0x1 DUP10 ADD SWAP2 PUSH1 0x1 PUSH1 0x1 PUSH1 0x40 SHL SUB DUP3 GT PUSH2 0x148 JUMPI DUP2 SWAP1 PUSH2 0x4A7 DUP5 SLOAD PUSH2 0x118F JUMP JUMPDEST PUSH1 0x1F DUP2 GT PUSH2 0xD98 JUMPI JUMPDEST POP PUSH1 0x20 SWAP1 PUSH1 0x1F DUP4 GT PUSH1 0x1 EQ PUSH2 0xD33 JUMPI PUSH1 0x0 SWAP3 PUSH2 0xD28 JUMPI JUMPDEST POP POP DUP2 PUSH1 0x1 SHL SWAP2 PUSH1 0x0 NOT SWAP1 PUSH1 0x3 SHL SHR NOT AND OR SWAP1 SSTORE JUMPDEST MLOAD DUP1 MLOAD PUSH1 0x2 DUP9 ADD SWAP2 PUSH1 0x1 PUSH1 0x1 PUSH1 0x40 SHL SUB DUP3 GT PUSH2 0x148 JUMPI DUP2 SWAP1 PUSH2 0x4FE DUP5 SLOAD PUSH2 0x118F JUMP JUMPDEST PUSH1 0x1F DUP2 GT PUSH2 0xCD5 JUMPI JUMPDEST POP PUSH1 0x20 SWAP1 PUSH1 0x1F DUP4 GT PUSH1 0x1 EQ PUSH2 0xC70 JUMPI PUSH1 0x0 SWAP3 PUSH2 0xC65 JUMPI JUMPDEST POP POP DUP2 PUSH1 0x1 SHL SWAP2 PUSH1 0x0 NOT SWAP1 PUSH1 0x3 SHL SHR NOT AND OR SWAP1 SSTORE JUMPDEST MLOAD DUP1 MLOAD PUSH1 0x3 DUP8 ADD SWAP2 PUSH1 0x1 PUSH1 0x1 PUSH1 0x40 SHL SUB DUP3 GT PUSH2 0x148 JUMPI DUP2 SWAP1 PUSH2 0x555 DUP5 SLOAD PUSH2 0x118F JUMP JUMPDEST PUSH1 0x1F DUP2 GT PUSH2 0xC12 JUMPI JUMPDEST POP PUSH1 0x20 SWAP1 PUSH1 0x1F DUP4 GT PUSH1 0x1 EQ PUSH2 0xBAD JUMPI PUSH1 0x0 SWAP3 PUSH2 0xBA2 JUMPI JUMPDEST POP POP DUP2 PUSH1 0x1 SHL SWAP2 PUSH1 0x0 NOT SWAP1 PUSH1 0x3 SHL SHR NOT AND OR SWAP1 SSTORE JUMPDEST MLOAD DUP1 MLOAD PUSH1 0x4 DUP7 ADD SWAP2 PUSH1 0x1 PUSH1 0x1 PUSH1 0x40 SHL SUB DUP3 GT PUSH2 0x148 JUMPI DUP2 SWAP1 PUSH2 0x5AC DUP5 SLOAD PUSH2 0x118F JUMP JUMPDEST PUSH1 0x1F DUP2 GT PUSH2 0xB4F JUMPI JUMPDEST POP PUSH1 0x20 SWAP1 PUSH1 0x1F DUP4 GT PUSH1 0x1 EQ PUSH2 0xAEA JUMPI PUSH1 0x0 SWAP3 PUSH2 0xADF JUMPI JUMPDEST POP POP DUP2 PUSH1 0x1 SHL SWAP2 PUSH1 0x0 NOT SWAP1 PUSH1 0x3 SHL SHR NOT AND OR SWAP1 SSTORE JUMPDEST MLOAD DUP1 MLOAD PUSH1 0x5 DUP6 ADD SWAP2 PUSH1 0x1 PUSH1 0x1 PUSH1 0x40 SHL SUB DUP3 GT PUSH2 0x148 JUMPI DUP2 SWAP1 PUSH2 0x603 DUP5 SLOAD PUSH2 0x118F JUMP JUMPDEST PUSH1 0x1F DUP2 GT PUSH2 0xA8C JUMPI JUMPDEST POP PUSH1 0x20 SWAP1 PUSH1 0x1F DUP4 GT PUSH1 0x1 EQ PUSH2 0xA27 JUMPI PUSH1 0x0 SWAP3 PUSH2 0xA1C JUMPI JUMPDEST POP POP DUP2 PUSH1 0x1 SHL SWAP2 PUSH1 0x0 NOT SWAP1 PUSH1 0x3 SHL SHR NOT AND OR SWAP1 SSTORE JUMPDEST MLOAD DUP1 MLOAD PUSH1 0x6 DUP5 ADD SWAP2 PUSH1 0x1 PUSH1 0x1 PUSH1 0x40 SHL SUB DUP3 GT PUSH2 0x148 JUMPI DUP2 SWAP1 PUSH2 0x65A DUP5 SLOAD PUSH2 0x118F JUMP JUMPDEST PUSH1 0x1F DUP2 GT PUSH2 0x9C9 JUMPI JUMPDEST POP PUSH1 0x20 SWAP1 PUSH1 0x1F DUP4 GT PUSH1 0x1 EQ PUSH2 0x964 JUMPI PUSH1 0x0 SWAP3 PUSH2 0x959 JUMPI JUMPDEST POP POP DUP2 PUSH1 0x1 SHL SWAP2 PUSH1 0x0 NOT SWAP1 PUSH1 0x3 SHL SHR NOT AND OR SWAP1 SSTORE JUMPDEST PUSH1 0x7 DUP3 ADD PUSH1 0xE0 DUP3 ADD MLOAD DUP1 MLOAD SWAP1 PUSH1 0x1 PUSH1 0x1 PUSH1 0x40 SHL SUB DUP3 GT PUSH2 0x148 JUMPI DUP2 SWAP1 PUSH2 0x6B5 DUP5 SLOAD PUSH2 0x118F JUMP JUMPDEST PUSH1 0x1F DUP2 GT PUSH2 0x906 JUMPI JUMPDEST POP PUSH1 0x20 SWAP1 PUSH1 0x1F DUP4 GT PUSH1 0x1 EQ PUSH2 0x8A1 JUMPI PUSH1 0x0 SWAP3 PUSH2 0x896 JUMPI JUMPDEST POP POP DUP2 PUSH1 0x1 SHL SWAP2 PUSH1 0x0 NOT SWAP1 PUSH1 0x3 SHL SHR NOT AND OR SWAP1 SSTORE JUMPDEST PUSH2 0x100 DUP2 ADD MLOAD PUSH1 0x8 DUP4 ADD DUP1 SLOAD PUSH1 0x1 PUSH1 0x1 PUSH1 0xA0 SHL SUB SWAP3 DUP4 AND PUSH1 0x1 PUSH1 0x1 PUSH1 0xA0 SHL SUB NOT SWAP2 DUP3 AND OR SWAP1 SWAP2 SSTORE PUSH2 0x120 DUP4 ADD MLOAD PUSH1 0x9 DUP6 ADD DUP1 SLOAD SWAP2 SWAP1 SWAP4 AND SWAP2 AND OR SWAP1 SSTORE PUSH2 0x140 DUP2 ADD MLOAD DUP1 MLOAD PUSH1 0xA DUP5 ADD SWAP2 PUSH1 0x1 PUSH1 0x1 PUSH1 0x40 SHL SUB DUP3 GT PUSH2 0x148 JUMPI PUSH2 0x74B DUP4 SLOAD PUSH2 0x118F JUMP JUMPDEST PUSH1 0x1F DUP2 GT PUSH2 0x84E JUMPI JUMPDEST POP PUSH1 0x20 SWAP1 PUSH1 0x1F DUP4 GT PUSH1 0x1 EQ PUSH2 0x7E0 JUMPI SWAP2 DUP1 PUSH2 0x160 SWAP5 SWAP3 PUSH1 0xB SWAP7 SWAP5 PUSH1 0x0 SWAP3 PUSH2 0x7D5 JUMPI JUMPDEST POP POP DUP2 PUSH1 0x1 SHL SWAP2 PUSH1 0x0 NOT SWAP1 PUSH1 0x3 SHL SHR NOT AND OR SWAP1 SSTORE JUMPDEST ADD MLOAD SWAP2 ADD SSTORE PUSH32 0xD4C8B54BB811347956D50E4E7ADA18786723B008C84B0D9BE92F77312C8D4A8 PUSH2 0x7C6 PUSH1 0x40 MLOAD SWAP3 PUSH1 0x40 DUP5 MSTORE PUSH1 0x40 DUP5 ADD SWAP1 PUSH2 0xFF7 JUMP JUMPDEST SWAP2 TIMESTAMP PUSH1 0x20 DUP3 ADD MSTORE DUP1 CALLER SWAP4 SUB SWAP1 LOG3 STOP JUMPDEST ADD MLOAD SWAP1 POP DUP10 DUP1 PUSH2 0x776 JUMP JUMPDEST SWAP1 PUSH1 0x1F NOT DUP4 AND SWAP2 DUP5 PUSH1 0x0 MSTORE DUP2 PUSH1 0x0 KECCAK256 SWAP3 PUSH1 0x0 JUMPDEST DUP2 DUP2 LT PUSH2 0x836 JUMPI POP SWAP3 PUSH1 0x1 SWAP3 DUP6 SWAP3 PUSH1 0xB SWAP9 SWAP7 PUSH2 0x160 SWAP9 SWAP7 LT PUSH2 0x81D JUMPI JUMPDEST POP POP POP DUP2 SHL ADD SWAP1 SSTORE PUSH2 0x78B JUMP JUMPDEST ADD MLOAD PUSH1 0x0 NOT PUSH1 0xF8 DUP5 PUSH1 0x3 SHL AND SHR NOT AND SWAP1 SSTORE DUP10 DUP1 DUP1 PUSH2 0x810 JUMP JUMPDEST SWAP3 SWAP4 PUSH1 0x20 PUSH1 0x1 DUP2 SWAP3 DUP8 DUP7 ADD MLOAD DUP2 SSTORE ADD SWAP6 ADD SWAP4 ADD PUSH2 0x7F3 JUMP JUMPDEST DUP4 PUSH1 0x0 MSTORE PUSH1 0x20 PUSH1 0x0 KECCAK256 PUSH1 0x1F DUP5 ADD PUSH1 0x5 SHR DUP2 ADD SWAP2 PUSH1 0x20 DUP6 LT PUSH2 0x88C JUMPI JUMPDEST PUSH1 0x1F ADD PUSH1 0x5 SHR ADD SWAP1 JUMPDEST DUP2 DUP2 LT PUSH2 0x880 JUMPI POP PUSH2 0x754 JUMP JUMPDEST PUSH1 0x0 DUP2 SSTORE PUSH1 0x1 ADD PUSH2 0x873 JUMP JUMPDEST SWAP1 SWAP2 POP DUP2 SWAP1 PUSH2 0x86A JUMP JUMPDEST ADD MLOAD SWAP1 POP DUP8 DUP1 PUSH2 0x6D5 JUMP JUMPDEST PUSH1 0x0 DUP6 DUP2 MSTORE DUP3 DUP2 KECCAK256 SWAP4 POP PUSH1 0x1F NOT DUP6 AND SWAP1 JUMPDEST DUP2 DUP2 LT PUSH2 0x8EE JUMPI POP SWAP1 DUP5 PUSH1 0x1 SWAP6 SWAP5 SWAP4 SWAP3 LT PUSH2 0x8D5 JUMPI JUMPDEST POP POP POP DUP2 SHL ADD SWAP1 SSTORE PUSH2 0x6EA JUMP JUMPDEST ADD MLOAD PUSH1 0x0 NOT PUSH1 0xF8 DUP5 PUSH1 0x3 SHL AND SHR NOT AND SWAP1 SSTORE DUP8 DUP1 DUP1 PUSH2 0x8C8 JUMP JUMPDEST SWAP3 SWAP4 PUSH1 0x20 PUSH1 0x1 DUP2 SWAP3 DUP8 DUP7 ADD MLOAD DUP2 SSTORE ADD SWAP6 ADD SWAP4 ADD PUSH2 0x8B2 JUMP JUMPDEST SWAP1 SWAP2 POP DUP4 PUSH1 0x0 MSTORE PUSH1 0x20 PUSH1 0x0 KECCAK256 PUSH1 0x1F DUP5 ADD PUSH1 0x5 SHR DUP2 ADD SWAP2 PUSH1 0x20 DUP6 LT PUSH2 0x94F JUMPI JUMPDEST SWAP1 PUSH1 0x1F DUP6 SWAP5 SWAP4 SWAP3 ADD PUSH1 0x5 SHR ADD SWAP1 JUMPDEST DUP2 DUP2 LT PUSH2 0x940 JUMPI POP PUSH2 0x6BE JUMP JUMPDEST PUSH1 0x0 DUP2 SSTORE DUP5 SWAP4 POP PUSH1 0x1 ADD PUSH2 0x933 JUMP JUMPDEST SWAP1 SWAP2 POP DUP2 SWAP1 PUSH2 0x925 JUMP JUMPDEST ADD MLOAD SWAP1 POP DUP8 DUP1 PUSH2 0x67A JUMP JUMPDEST PUSH1 0x0 DUP6 DUP2 MSTORE DUP3 DUP2 KECCAK256 SWAP4 POP PUSH1 0x1F NOT DUP6 AND SWAP1 JUMPDEST DUP2 DUP2 LT PUSH2 0x9B1 JUMPI POP SWAP1 DUP5 PUSH1 0x1 SWAP6 SWAP5 SWAP4 SWAP3 LT PUSH2 0x998 JUMPI JUMPDEST POP POP POP DUP2 SHL ADD SWAP1 SSTORE PUSH2 0x68F JUMP JUMPDEST ADD MLOAD PUSH1 0x0 NOT PUSH1 0xF8 DUP5 PUSH1 0x3 SHL AND SHR NOT AND SWAP1 SSTORE DUP8 DUP1 DUP1 PUSH2 0x98B JUMP JUMPDEST SWAP3 SWAP4 PUSH1 0x20 PUSH1 0x1 DUP2 SWAP3 DUP8 DUP7 ADD MLOAD DUP2 SSTORE ADD SWAP6 ADD SWAP4 ADD PUSH2 0x975 JUMP JUMPDEST SWAP1 SWAP2 POP DUP4 PUSH1 0x0 MSTORE PUSH1 0x20 PUSH1 0x0 KECCAK256 PUSH1 0x1F DUP5 ADD PUSH1 0x5 SHR DUP2 ADD SWAP2 PUSH1 0x20 DUP6 LT PUSH2 0xA12 JUMPI JUMPDEST SWAP1 PUSH1 0x1F DUP6 SWAP5 SWAP4 SWAP3 ADD PUSH1 0x5 SHR ADD SWAP1 JUMPDEST DUP2 DUP2 LT PUSH2 0xA03 JUMPI POP PUSH2 0x663 JUMP JUMPDEST PUSH1 0x0 DUP2 SSTORE DUP5 SWAP4 POP PUSH1 0x1 ADD PUSH2 0x9F6 JUMP JUMPDEST SWAP1 SWAP2 POP DUP2 SWAP1 PUSH2 0x9E8 JUMP JUMPDEST ADD MLOAD SWAP1 POP DUP9 DUP1 PUSH2 0x623 JUMP JUMPDEST PUSH1 0x0 DUP6 DUP2 MSTORE DUP3 DUP2 KECCAK256 SWAP4 POP PUSH1 0x1F NOT DUP6 AND SWAP1 JUMPDEST DUP2 DUP2 LT PUSH2 0xA74 JUMPI POP SWAP1 DUP5 PUSH1 0x1 SWAP6 SWAP5 SWAP4 SWAP3 LT PUSH2 0xA5B JUMPI JUMPDEST POP POP POP DUP2 SHL ADD SWAP1 SSTORE PUSH2 0x638 JUMP JUMPDEST ADD MLOAD PUSH1 0x0 NOT PUSH1 0xF8 DUP5 PUSH1 0x3 SHL AND SHR NOT AND SWAP1 SSTORE DUP9 DUP1 DUP1 PUSH2 0xA4E JUMP JUMPDEST SWAP3 SWAP4 PUSH1 0x20 PUSH1 0x1 DUP2 SWAP3 DUP8 DUP7 ADD MLOAD DUP2 SSTORE ADD SWAP6 ADD SWAP4 ADD PUSH2 0xA38 JUMP JUMPDEST SWAP1 SWAP2 POP DUP4 PUSH1 0x0 MSTORE PUSH1 0x20 PUSH1 0x0 KECCAK256 PUSH1 0x1F DUP5 ADD PUSH1 0x5 SHR DUP2 ADD SWAP2 PUSH1 0x20 DUP6 LT PUSH2 0xAD5 JUMPI JUMPDEST SWAP1 PUSH1 0x1F DUP6 SWAP5 SWAP4 SWAP3 ADD PUSH1 0x5 SHR ADD SWAP1 JUMPDEST DUP2 DUP2 LT PUSH2 0xAC6 JUMPI POP PUSH2 0x60C JUMP JUMPDEST PUSH1 0x0 DUP2 SSTORE DUP5 SWAP4 POP PUSH1 0x1 ADD PUSH2 0xAB9 JUMP JUMPDEST SWAP1 SWAP2 POP DUP2 SWAP1 PUSH2 0xAAB JUMP JUMPDEST ADD MLOAD SWAP1 POP DUP10 DUP1 PUSH2 0x5CC JUMP JUMPDEST PUSH1 0x0 DUP6 DUP2 MSTORE DUP3 DUP2 KECCAK256 SWAP4 POP PUSH1 0x1F NOT DUP6 AND SWAP1 JUMPDEST DUP2 DUP2 LT PUSH2 0xB37 JUMPI POP SWAP1 DUP5 PUSH1 0x1 SWAP6 SWAP5 SWAP4 SWAP3 LT PUSH2 0xB1E JUMPI JUMPDEST POP POP POP DUP2 SHL ADD SWAP1 SSTORE PUSH2 0x5E1 JUMP JUMPDEST ADD MLOAD PUSH1 0x0 NOT PUSH1 0xF8 DUP5 PUSH1 0x3 SHL AND SHR NOT AND SWAP1 SSTORE DUP10 DUP1 DUP1 PUSH2 0xB11 JUMP JUMPDEST SWAP3 SWAP4 PUSH1 0x20 PUSH1 0x1 DUP2 SWAP3 DUP8 DUP7 ADD MLOAD DUP2 SSTORE ADD SWAP6 ADD SWAP4 ADD PUSH2 0xAFB JUMP JUMPDEST SWAP1 SWAP2 POP DUP4 PUSH1 0x0 MSTORE PUSH1 0x20 PUSH1 0x0 KECCAK256 PUSH1 0x1F DUP5 ADD PUSH1 0x5 SHR DUP2 ADD SWAP2 PUSH1 0x20 DUP6 LT PUSH2 0xB98 JUMPI JUMPDEST SWAP1 PUSH1 0x1F DUP6 SWAP5 SWAP4 SWAP3 ADD PUSH1 0x5 SHR ADD SWAP1 JUMPDEST DUP2 DUP2 LT PUSH2 0xB89 JUMPI POP PUSH2 0x5B5 JUMP JUMPDEST PUSH1 0x0 DUP2 SSTORE DUP5 SWAP4 POP PUSH1 0x1 ADD PUSH2 0xB7C JUMP JUMPDEST SWAP1 SWAP2 POP DUP2 SWAP1 PUSH2 0xB6E JUMP JUMPDEST ADD MLOAD SWAP1 POP DUP11 DUP1 PUSH2 0x575 JUMP JUMPDEST PUSH1 0x0 DUP6 DUP2 MSTORE DUP3 DUP2 KECCAK256 SWAP4 POP PUSH1 0x1F NOT DUP6 AND SWAP1 JUMPDEST DUP2 DUP2 LT PUSH2 0xBFA JUMPI POP SWAP1 DUP5 PUSH1 0x1 SWAP6 SWAP5 SWAP4 SWAP3 LT PUSH2 0xBE1 JUMPI JUMPDEST POP POP POP DUP2 SHL ADD SWAP1 SSTORE PUSH2 0x58A JUMP JUMPDEST ADD MLOAD PUSH1 0x0 NOT PUSH1 0xF8 DUP5 PUSH1 0x3 SHL AND SHR NOT AND SWAP1 SSTORE DUP11 DUP1 DUP1 PUSH2 0xBD4 JUMP JUMPDEST SWAP3 SWAP4 PUSH1 0x20 PUSH1 0x1 DUP2 SWAP3 DUP8 DUP7 ADD MLOAD DUP2 SSTORE ADD SWAP6 ADD SWAP4 ADD PUSH2 0xBBE JUMP JUMPDEST SWAP1 SWAP2 POP DUP4 PUSH1 0x0 MSTORE PUSH1 0x20 PUSH1 0x0 KECCAK256 PUSH1 0x1F DUP5 ADD PUSH1 0x5 SHR DUP2 ADD SWAP2 PUSH1 0x20 DUP6 LT PUSH2 0xC5B JUMPI JUMPDEST SWAP1 PUSH1 0x1F DUP6 SWAP5 SWAP4 SWAP3 ADD PUSH1 0x5 SHR ADD SWAP1 JUMPDEST DUP2 DUP2 LT PUSH2 0xC4C JUMPI POP PUSH2 0x55E JUMP JUMPDEST PUSH1 0x0 DUP2 SSTORE DUP5 SWAP4 POP PUSH1 0x1 ADD PUSH2 0xC3F JUMP JUMPDEST SWAP1 SWAP2 POP DUP2 SWAP1 PUSH2 0xC31 JUMP JUMPDEST ADD MLOAD SWAP1 POP DUP12 DUP1 PUSH2 0x51E JUMP JUMPDEST PUSH1 0x0 DUP6 DUP2 MSTORE DUP3 DUP2 KECCAK256 SWAP4 POP PUSH1 0x1F NOT DUP6 AND SWAP1 JUMPDEST DUP2 DUP2 LT PUSH2 0xCBD JUMPI POP SWAP1 DUP5 PUSH1 0x1 SWAP6 SWAP5 SWAP4 SWAP3 LT PUSH2 0xCA4 JUMPI JUMPDEST POP POP POP DUP2 SHL ADD SWAP1 SSTORE PUSH2 0x533 JUMP JUMPDEST ADD MLOAD PUSH1 0x0 NOT PUSH1 0xF8 DUP5 PUSH1 0x3 SHL AND SHR NOT AND SWAP1 SSTORE DUP12 DUP1 DUP1 PUSH2 0xC97 JUMP JUMPDEST SWAP3 SWAP4 PUSH1 0x20 PUSH1 0x1 DUP2 SWAP3 DUP8 DUP7 ADD MLOAD DUP2 SSTORE ADD SWAP6 ADD SWAP4 ADD PUSH2 0xC81 JUMP JUMPDEST SWAP1 SWAP2 POP DUP4 PUSH1 0x0 MSTORE PUSH1 0x20 PUSH1 0x0 KECCAK256 PUSH1 0x1F DUP5 ADD PUSH1 0x5 SHR DUP2 ADD SWAP2 PUSH1 0x20 DUP6 LT PUSH2 0xD1E JUMPI JUMPDEST SWAP1 PUSH1 0x1F DUP6 SWAP5 SWAP4 SWAP3 ADD PUSH1 0x5 SHR ADD SWAP1 JUMPDEST DUP2 DUP2 LT PUSH2 0xD0F JUMPI POP PUSH2 0x507 JUMP JUMPDEST PUSH1 0x0 DUP2 SSTORE DUP5 SWAP4 POP PUSH1 0x1 ADD PUSH2 0xD02 JUMP JUMPDEST SWAP1 SWAP2 POP DUP2 SWAP1 PUSH2 0xCF4 JUMP JUMPDEST ADD MLOAD SWAP1 POP DUP13 DUP1 PUSH2 0x4C7 JUMP JUMPDEST PUSH1 0x0 DUP6 DUP2 MSTORE DUP3 DUP2 KECCAK256 SWAP4 POP PUSH1 0x1F NOT DUP6 AND SWAP1 JUMPDEST DUP2 DUP2 LT PUSH2 0xD80 JUMPI POP SWAP1 DUP5 PUSH1 0x1 SWAP6 SWAP5 SWAP4 SWAP3 LT PUSH2 0xD67 JUMPI JUMPDEST POP POP POP DUP2 SHL ADD SWAP1 SSTORE PUSH2 0x4DC JUMP JUMPDEST ADD MLOAD PUSH1 0x0 NOT PUSH1 0xF8 DUP5 PUSH1 0x3 SHL AND SHR NOT AND SWAP1 SSTORE DUP13 DUP1 DUP1 PUSH2 0xD5A JUMP JUMPDEST SWAP3 SWAP4 PUSH1 0x20 PUSH1 0x1 DUP2 SWAP3 DUP8 DUP7 ADD MLOAD DUP2 SSTORE ADD SWAP6 ADD SWAP4 ADD PUSH2 0xD44 JUMP JUMPDEST SWAP1 SWAP2 POP DUP4 PUSH1 0x0 MSTORE PUSH1 0x20 PUSH1 0x0 KECCAK256 PUSH1 0x1F DUP5 ADD PUSH1 0x5 SHR DUP2 ADD SWAP2 PUSH1 0x20 DUP6 LT PUSH2 0xDE1 JUMPI JUMPDEST SWAP1 PUSH1 0x1F DUP6 SWAP5 SWAP4 SWAP3 ADD PUSH1 0x5 SHR ADD SWAP1 JUMPDEST DUP2 DUP2 LT PUSH2 0xDD2 JUMPI POP PUSH2 0x4B0 JUMP JUMPDEST PUSH1 0x0 DUP2 SSTORE DUP5 SWAP4 POP PUSH1 0x1 ADD PUSH2 0xDC5 JUMP JUMPDEST SWAP1 SWAP2 POP DUP2 SWAP1 PUSH2 0xDB7 JUMP JUMPDEST ADD MLOAD SWAP1 POP DUP13 DUP1 PUSH2 0x470 JUMP JUMPDEST PUSH1 0x0 DUP13 DUP2 MSTORE DUP3 DUP2 KECCAK256 SWAP4 POP PUSH1 0x1F NOT DUP6 AND SWAP1 JUMPDEST DUP2 DUP2 LT PUSH2 0xE43 JUMPI POP SWAP1 DUP5 PUSH1 0x1 SWAP6 SWAP5 SWAP4 SWAP3 LT PUSH2 0xE2A JUMPI JUMPDEST POP POP POP DUP2 SHL ADD DUP9 SSTORE PUSH2 0x485 JUMP JUMPDEST ADD MLOAD PUSH1 0x0 NOT PUSH1 0xF8 DUP5 PUSH1 0x3 SHL AND SHR NOT AND SWAP1 SSTORE DUP13 DUP1 DUP1 PUSH2 0xE1D JUMP JUMPDEST SWAP3 SWAP4 PUSH1 0x20 PUSH1 0x1 DUP2 SWAP3 DUP8 DUP7 ADD MLOAD DUP2 SSTORE ADD SWAP6 ADD SWAP4 ADD PUSH2 0xE07 JUMP JUMPDEST SWAP1 SWAP2 POP DUP11 PUSH1 0x0 MSTORE PUSH1 0x20 PUSH1 0x0 KECCAK256 PUSH1 0x1F DUP5 ADD PUSH1 0x5 SHR DUP2 ADD SWAP2 PUSH1 0x20 DUP6 LT PUSH2 0xEA4 JUMPI JUMPDEST SWAP1 PUSH1 0x1F DUP6 SWAP5 SWAP4 SWAP3 ADD PUSH1 0x5 SHR ADD SWAP1 JUMPDEST DUP2 DUP2 LT PUSH2 0xE95 JUMPI POP PUSH2 0x459 JUMP JUMPDEST PUSH1 0x0 DUP2 SSTORE DUP5 SWAP4 POP PUSH1 0x1 ADD PUSH2 0xE88 JUMP JUMPDEST SWAP1 SWAP2 POP DUP2 SWAP1 PUSH2 0xE7A JUMP JUMPDEST PUSH4 0x4E487B71 PUSH1 0xE0 SHL PUSH1 0x0 MSTORE PUSH1 0x0 PUSH1 0x4 MSTORE PUSH1 0x24 PUSH1 0x0 REVERT JUMPDEST PUSH1 0x40 MLOAD PUSH3 0x461BCD PUSH1 0xE5 SHL DUP2 MSTORE PUSH1 0x20 PUSH1 0x4 DUP3 ADD MSTORE PUSH1 0x1B PUSH1 0x24 DUP3 ADD MSTORE PUSH32 0x496E76616C696420696E737469747574696F6E20616464726573730000000000 PUSH1 0x44 DUP3 ADD MSTORE PUSH1 0x64 SWAP1 REVERT JUMPDEST CALLVALUE PUSH2 0x15E JUMPI PUSH1 0x40 CALLDATASIZE PUSH1 0x3 NOT ADD SLT PUSH2 0x15E JUMPI PUSH2 0xF22 PUSH2 0xF4E JUMP JUMPDEST PUSH1 0x24 CALLDATALOAD PUSH1 0x1 PUSH1 0x1 PUSH1 0x40 SHL SUB DUP2 GT PUSH2 0x15E JUMPI PUSH2 0x1DF SWAP2 PUSH2 0xF48 PUSH2 0x1CB SWAP3 CALLDATASIZE SWAP1 PUSH1 0x4 ADD PUSH2 0xFA1 JUMP JUMPDEST SWAP1 PUSH2 0x1368 JUMP JUMPDEST PUSH1 0x4 CALLDATALOAD SWAP1 PUSH1 0x1 PUSH1 0x1 PUSH1 0xA0 SHL SUB DUP3 AND DUP3 SUB PUSH2 0x15E JUMPI JUMP JUMPDEST PUSH2 0x180 DUP2 ADD SWAP1 DUP2 LT PUSH1 0x1 PUSH1 0x1 PUSH1 0x40 SHL SUB DUP3 GT OR PUSH2 0x148 JUMPI PUSH1 0x40 MSTORE JUMP JUMPDEST SWAP1 PUSH1 0x1F DUP1 NOT SWAP2 ADD AND DUP2 ADD SWAP1 DUP2 LT PUSH1 0x1 PUSH1 0x1 PUSH1 0x40 SHL SUB DUP3 GT OR PUSH2 0x148 JUMPI PUSH1 0x40 MSTORE JUMP JUMPDEST DUP2 PUSH1 0x1F DUP3 ADD SLT ISZERO PUSH2 0x15E JUMPI DUP1 CALLDATALOAD SWAP1 PUSH1 0x1 PUSH1 0x1 PUSH1 0x40 SHL SUB DUP3 GT PUSH2 0x148 JUMPI PUSH1 0x40 MLOAD SWAP3 PUSH2 0xFD5 PUSH1 0x1F DUP5 ADD PUSH1 0x1F NOT AND PUSH1 0x20 ADD DUP6 PUSH2 0xF80 JUMP JUMPDEST DUP3 DUP5 MSTORE PUSH1 0x20 DUP4 DUP4 ADD ADD GT PUSH2 0x15E JUMPI DUP2 PUSH1 0x0 SWAP3 PUSH1 0x20 DUP1 SWAP4 ADD DUP4 DUP7 ADD CALLDATACOPY DUP4 ADD ADD MSTORE SWAP1 JUMP JUMPDEST SWAP2 SWAP1 DUP3 MLOAD SWAP3 DUP4 DUP3 MSTORE PUSH1 0x0 JUMPDEST DUP5 DUP2 LT PUSH2 0x1023 JUMPI POP POP DUP3 PUSH1 0x0 PUSH1 0x20 DUP1 SWAP5 SWAP6 DUP5 ADD ADD MSTORE PUSH1 0x1F DUP1 NOT SWAP2 ADD AND ADD ADD SWAP1 JUMP JUMPDEST DUP1 PUSH1 0x20 DUP1 SWAP3 DUP5 ADD ADD MLOAD DUP3 DUP3 DUP7 ADD ADD MSTORE ADD PUSH2 0x1002 JUMP JUMPDEST SWAP1 PUSH2 0x160 DUP1 PUSH2 0x1125 PUSH2 0x10E9 PUSH2 0x10D7 PUSH2 0x10C5 PUSH2 0x10B3 PUSH2 0x10A1 PUSH2 0x108F PUSH2 0x107D PUSH2 0x106A DUP13 MLOAD PUSH2 0x180 DUP14 MSTORE PUSH2 0x180 DUP14 ADD SWAP1 PUSH2 0xFF7 JUMP JUMPDEST PUSH1 0x20 DUP14 ADD MLOAD DUP13 PUSH1 0x20 DUP2 DUP5 SUB SWAP2 ADD MSTORE PUSH2 0xFF7 JUMP JUMPDEST PUSH1 0x40 DUP13 ADD MLOAD DUP12 DUP3 SUB PUSH1 0x40 DUP14 ADD MSTORE PUSH2 0xFF7 JUMP JUMPDEST PUSH1 0x60 DUP12 ADD MLOAD DUP11 DUP3 SUB PUSH1 0x60 DUP13 ADD MSTORE PUSH2 0xFF7 JUMP JUMPDEST PUSH1 0x80 DUP11 ADD MLOAD DUP10 DUP3 SUB PUSH1 0x80 DUP12 ADD MSTORE PUSH2 0xFF7 JUMP JUMPDEST PUSH1 0xA0 DUP10 ADD MLOAD DUP9 DUP3 SUB PUSH1 0xA0 DUP11 ADD MSTORE PUSH2 0xFF7 JUMP JUMPDEST PUSH1 0xC0 DUP9 ADD MLOAD DUP8 DUP3 SUB PUSH1 0xC0 DUP10 ADD MSTORE PUSH2 0xFF7 JUMP JUMPDEST PUSH1 0xE0 DUP8 ADD MLOAD DUP7 DUP3 SUB PUSH1 0xE0 DUP9 ADD MSTORE PUSH2 0xFF7 JUMP JUMPDEST PUSH1 0x1 DUP1 PUSH1 0xA0 SHL SUB PUSH2 0x100 DUP8 ADD MLOAD AND PUSH2 0x100 DUP7 ADD MSTORE PUSH1 0x1 DUP1 PUSH1 0xA0 SHL SUB PUSH2 0x120 DUP8 ADD MLOAD AND PUSH2 0x120 DUP7 ADD MSTORE PUSH2 0x140 DUP7 ADD MLOAD DUP6 DUP3 SUB PUSH2 0x140 DUP8 ADD MSTORE PUSH2 0xFF7 JUMP JUMPDEST SWAP4 ADD MLOAD SWAP2 ADD MSTORE SWAP1 JUMP JUMPDEST PUSH1 0x40 MLOAD SWAP1 PUSH2 0x113B DUP3 PUSH2 0xF64 JUMP JUMPDEST PUSH1 0x0 PUSH2 0x160 DUP4 PUSH1 0x60 DUP2 MSTORE PUSH1 0x60 PUSH1 0x20 DUP3 ADD MSTORE PUSH1 0x60 PUSH1 0x40 DUP3 ADD MSTORE PUSH1 0x60 DUP1 DUP3 ADD MSTORE PUSH1 0x60 PUSH1 0x80 DUP3 ADD MSTORE PUSH1 0x60 PUSH1 0xA0 DUP3 ADD MSTORE PUSH1 0x60 PUSH1 0xC0 DUP3 ADD MSTORE PUSH1 0x60 PUSH1 0xE0 DUP3 ADD MSTORE DUP3 PUSH2 0x100 DUP3 ADD MSTORE DUP3 PUSH2 0x120 DUP3 ADD MSTORE PUSH1 0x60 PUSH2 0x140 DUP3 ADD MSTORE ADD MSTORE JUMP JUMPDEST SWAP1 PUSH1 0x1 DUP3 DUP2 SHR SWAP3 AND DUP1 ISZERO PUSH2 0x11BF JUMPI JUMPDEST PUSH1 0x20 DUP4 LT EQ PUSH2 0x11A9 JUMPI JUMP JUMPDEST PUSH4 0x4E487B71 PUSH1 0xE0 SHL PUSH1 0x0 MSTORE PUSH1 0x22 PUSH1 0x4 MSTORE PUSH1 0x24 PUSH1 0x0 REVERT JUMPDEST SWAP2 PUSH1 0x7F AND SWAP2 PUSH2 0x119E JUMP JUMPDEST SWAP1 PUSH1 0x40 MLOAD SWAP2 DUP3 PUSH1 0x0 DUP3 SLOAD SWAP3 PUSH2 0x11DD DUP5 PUSH2 0x118F JUMP JUMPDEST DUP1 DUP5 MSTORE SWAP4 PUSH1 0x1 DUP2 AND SWAP1 DUP2 ISZERO PUSH2 0x124B JUMPI POP PUSH1 0x1 EQ PUSH2 0x1204 JUMPI JUMPDEST POP PUSH2 0x1202 SWAP3 POP SUB DUP4 PUSH2 0xF80 JUMP JUMPDEST JUMP JUMPDEST SWAP1 POP PUSH1 0x0 SWAP3 SWAP2 SWAP3 MSTORE PUSH1 0x20 PUSH1 0x0 KECCAK256 SWAP1 PUSH1 0x0 SWAP2 JUMPDEST DUP2 DUP4 LT PUSH2 0x122F JUMPI POP POP SWAP1 PUSH1 0x20 PUSH2 0x1202 SWAP3 DUP3 ADD ADD CODESIZE PUSH2 0x11F5 JUMP JUMPDEST PUSH1 0x20 SWAP2 SWAP4 POP DUP1 PUSH1 0x1 SWAP2 SLOAD DUP4 DUP6 DUP10 ADD ADD MSTORE ADD SWAP2 ADD SWAP1 SWAP2 DUP5 SWAP3 PUSH2 0x1216 JUMP JUMPDEST SWAP1 POP PUSH1 0x20 SWAP3 POP PUSH2 0x1202 SWAP5 SWAP2 POP PUSH1 0xFF NOT AND DUP3 DUP5 ADD MSTORE ISZERO ISZERO PUSH1 0x5 SHL DUP3 ADD ADD CODESIZE PUSH2 0x11F5 JUMP JUMPDEST SWAP1 PUSH1 0x40 MLOAD PUSH2 0x127A DUP2 PUSH2 0xF64 JUMP JUMPDEST PUSH2 0x160 PUSH1 0xB DUP3 SWAP5 PUSH2 0x128A DUP2 PUSH2 0x11C9 JUMP JUMPDEST DUP5 MSTORE PUSH2 0x1298 PUSH1 0x1 DUP3 ADD PUSH2 0x11C9 JUMP JUMPDEST PUSH1 0x20 DUP6 ADD MSTORE PUSH2 0x12A9 PUSH1 0x2 DUP3 ADD PUSH2 0x11C9 JUMP JUMPDEST PUSH1 0x40 DUP6 ADD MSTORE PUSH2 0x12BA PUSH1 0x3 DUP3 ADD PUSH2 0x11C9 JUMP JUMPDEST PUSH1 0x60 DUP6 ADD MSTORE PUSH2 0x12CB PUSH1 0x4 DUP3 ADD PUSH2 0x11C9 JUMP JUMPDEST PUSH1 0x80 DUP6 ADD MSTORE PUSH2 0x12DC PUSH1 0x5 DUP3 ADD PUSH2 0x11C9 JUMP JUMPDEST PUSH1 0xA0 DUP6 ADD MSTORE PUSH2 0x12ED PUSH1 0x6 DUP3 ADD PUSH2 0x11C9 JUMP JUMPDEST PUSH1 0xC0 DUP6 ADD MSTORE PUSH2 0x12FE PUSH1 0x7 DUP3 ADD PUSH2 0x11C9 JUMP JUMPDEST PUSH1 0xE0 DUP6 ADD MSTORE PUSH1 0x8 DUP2 ADD SLOAD PUSH1 0x1 PUSH1 0x1 PUSH1 0xA0 SHL SUB SWAP1 DUP2 AND PUSH2 0x100 DUP7 ADD MSTORE PUSH1 0x9 DUP3 ADD SLOAD AND PUSH2 0x120 DUP6 ADD MSTORE PUSH2 0x1331 PUSH1 0xA DUP3 ADD PUSH2 0x11C9 JUMP JUMPDEST PUSH2 0x140 DUP6 ADD MSTORE ADD SLOAD SWAP2 ADD MSTORE JUMP JUMPDEST DUP1 MLOAD DUP3 LT ISZERO PUSH2 0x1352 JUMPI PUSH1 0x20 SWAP2 PUSH1 0x5 SHL ADD ADD SWAP1 JUMP JUMPDEST PUSH4 0x4E487B71 PUSH1 0xE0 SHL PUSH1 0x0 MSTORE PUSH1 0x32 PUSH1 0x4 MSTORE PUSH1 0x24 PUSH1 0x0 REVERT JUMPDEST PUSH2 0x1370 PUSH2 0x112E JUMP JUMPDEST POP PUSH1 0x1 PUSH1 0x1 PUSH1 0xA0 SHL SUB AND PUSH1 0x0 SWAP1 DUP2 MSTORE PUSH1 0x20 DUP2 SWAP1 MSTORE PUSH1 0x40 SWAP1 KECCAK256 DUP1 SLOAD PUSH1 0x1 PUSH1 0x1 PUSH1 0x40 SHL SUB DUP2 GT PUSH2 0x148 JUMPI PUSH1 0x40 MLOAD SWAP2 PUSH2 0x13AC PUSH1 0x20 DUP4 PUSH1 0x5 SHL ADD DUP5 PUSH2 0xF80 JUMP JUMPDEST DUP2 DUP4 MSTORE PUSH1 0x20 DUP4 ADD SWAP1 PUSH1 0x0 MSTORE PUSH1 0x20 PUSH1 0x0 KECCAK256 PUSH1 0x0 SWAP2 JUMPDEST DUP4 DUP4 LT PUSH2 0x1455 JUMPI POP POP POP POP PUSH1 0x0 JUMPDEST DUP2 MLOAD DUP2 LT ISZERO PUSH2 0x1410 JUMPI PUSH1 0xE0 PUSH2 0x13E3 DUP3 DUP5 PUSH2 0x133E JUMP JUMPDEST MLOAD ADD MLOAD PUSH1 0x20 DUP2 MLOAD SWAP2 ADD KECCAK256 DUP4 MLOAD PUSH1 0x20 DUP6 ADD KECCAK256 EQ PUSH2 0x1401 JUMPI PUSH1 0x1 ADD PUSH2 0x13CE JUMP JUMPDEST SWAP1 PUSH2 0x140C SWAP3 POP PUSH2 0x133E JUMP JUMPDEST MLOAD SWAP1 JUMP JUMPDEST PUSH1 0x40 MLOAD PUSH3 0x461BCD PUSH1 0xE5 SHL DUP2 MSTORE PUSH1 0x20 PUSH1 0x4 DUP3 ADD MSTORE PUSH1 0x1A PUSH1 0x24 DUP3 ADD MSTORE PUSH32 0x436572746966696361746520646F6573206E6F74206578697374000000000000 PUSH1 0x44 DUP3 ADD MSTORE PUSH1 0x64 SWAP1 REVERT JUMPDEST PUSH1 0xC PUSH1 0x20 PUSH1 0x1 SWAP3 PUSH2 0x1465 DUP6 PUSH2 0x126D JUMP JUMPDEST DUP2 MSTORE ADD SWAP3 ADD SWAP3 ADD SWAP2 SWAP1 PUSH2 0x13C0 JUMP JUMPDEST DUP1 SLOAD DUP3 LT ISZERO PUSH2 0x1352 JUMPI PUSH1 0x0 MSTORE PUSH1 0xC PUSH1 0x20 PUSH1 0x0 KECCAK256 SWAP2 MUL ADD SWAP1 PUSH1 0x0 SWAP1 JUMP INVALID LOG2 PUSH5 0x6970667358 0x22 SLT KECCAK256 BALANCE BALANCE PUSH15 0x3176CA6FA2ECA7F2A028484EFE4B1B 0xC 0xC0 DUP6 SHR GASLIMIT SLT 0x24 PUSH6 0xB3B0CAB36D6F PUSH5 0x736F6C6343 STOP ADDMOD SHR STOP CALLER "},"methodIdentifiers":{"getCertificateByHash(address,string)":"4e39e698","getCertificateByIndex(address,uint256)":"c50ae471","getCertificateCount(address)":"b1d5ccf8","getCertificates(address)":"f1c49c62","issueCertificate(address,string,string,string,string,string,string,string,string,string)":"a29bad4d"}}}}}