{
  "_format": "hh-sol-artifact-1",
  "contractName": "CertificateRegistry",
  "sourceName": "contracts/CertificateRegistry.sol",
  "abi": [
    {
      "anonymous": false,
      "inputs": [
        {
          "indexed": true,
          "internalType": "address",
          "name": "institution",
          "type": "address"
        },
        {
          "indexed": false,
          "internalType": "uint256",
          "name": "totalIssued",
          "type": "uint256"
        },
        {
          "indexed": false,
          "internalType": "uint256",
          "name": "dateIssued",
          "type": "uint256"
        }
      ],
      "name": "CertificateBulkIssued",
      "type": "event"
    },
    {
      "anonymous": false,
      "inputs": [
        {
          "indexed": true,
          "internalType": "address",
          "name": "institution",
          "type": "address"
        },
        {
          "indexed": true,
          "internalType": "address",
          "name": "student",
          "type": "address"
        },
        {
          "indexed": false,
          "internalType": "string",
          "name": "nameOfCert",
          "type": "string"
        },
        {
          "indexed": false,
          "internalType": "uint256",
          "name": "dateIssued",
          "type": "uint256"
        }
      ],
      "name": "CertificateIssued",
      "type": "event"
    },
    {
      "inputs": [
        {
          "internalType": "address",
          "name": "_studentWallet",
          "type": "address"
        },
        {
          "internalType": "string",
          "name": "_certHash",
          "type": "string"
        }
      ],
      "name": "getCertificateByHash",
      "outputs": [
        {
          "components": [
            {
              "internalType": "string",
              "name": "nameOfInstitution",
              "type": "string"
            },
            {
              "internalType": "string",
              "name": "nameOfCert",
              "type": "string"
            },
            {
              "internalType": "string",
              "name": "nameOfStudent",
              "type": "string"
            },
            {
              "internalType": "string",
              "name": "college",
              "type": "string"
            },
            {
              "internalType": "string",
              "name": "course",
              "type": "string"
            },
            {
              "internalType": "string",
              "name": "major",
              "type": "string"
            },
            {
              "internalType": "string",
              "name": "certStatus",
              "type": "string"
            },
            {
              "internalType": "string",
              "name": "certHash",
              "type": "string"
            },
            {
              "internalType": "address",
              "name": "walletAddressOfStudent",
              "type": "address"
            },
            {
              "internalType": "address",
              "name": "walletAddressOfInstitution",
              "type": "address"
            },
            {
              "internalType": "string",
              "name": "imageOfCertificate",
              "type": "string"
            },
            {
              "internalType": "uint256",
              "name": "dateIssued",
              "type": "uint256"
            }
          ],
          "internalType": "struct CertificateRegistry.Certificate",
          "name": "",
          "type": "tuple"
        }
      ],
      "stateMutability": "view",
      "type": "function"
    },
    {
      "inputs": [
        {
          "internalType": "address",
          "name": "_studentWallet",
          "type": "address"
        },
        {
          "internalType": "uint256",
          "name": "index",
          "type": "uint256"
        }
      ],
      "name": "getCertificateByIndex",
      "outputs": [
        {
          "components": [
            {
              "internalType": "string",
              "name": "nameOfInstitution",
              "type": "string"
            },
            {
              "internalType": "string",
              "name": "nameOfCert",
              "type": "string"
            },
            {
              "internalType": "string",
              "name": "nameOfStudent",
              "type": "string"
            },
            {
              "internalType": "string",
              "name": "college",
              "type": "string"
            },
            {
              "internalType": "string",
              "name": "course",
              "type": "string"
            },
            {
              "internalType": "string",
              "name": "major",
              "type": "string"
            },
            {
              "internalType": "string",
              "name": "certStatus",
              "type": "string"
            },
            {
              "internalType": "string",
              "name": "certHash",
              "type": "string"
            },
            {
              "internalType": "address",
              "name": "walletAddressOfStudent",
              "type": "address"
            },
            {
              "internalType": "address",
              "name": "walletAddressOfInstitution",
              "type": "address"
            },
            {
              "internalType": "string",
              "name": "imageOfCertificate",
              "type": "string"
            },
            {
              "internalType": "uint256",
              "name": "dateIssued",
              "type": "uint256"
            }
          ],
          "internalType": "struct CertificateRegistry.Certificate",
          "name": "",
          "type": "tuple"
        }
      ],
      "stateMutability": "view",
      "type": "function"
    },
    {
      "inputs": [
        {
          "internalType": "address",
          "name": "_studentWallet",
          "type": "address"
        }
      ],
      "name": "getCertificateCount",
      "outputs": [
        {
          "internalType": "uint256",
          "name": "",
          "type": "uint256"
        }
      ],
      "stateMutability": "view",
      "type": "function"
    },
    {
      "inputs": [
        {
          "internalType": "address",
          "name": "_studentWallet",
          "type": "address"
        }
      ],
      "name": "getCertificates",
      "outputs": [
        {
          "components": [
            {
              "internalType": "string",
              "name": "nameOfInstitution",
              "type": "string"
            },
            {
              "internalType": "string",
              "name": "nameOfCert",
              "type": "string"
            },
            {
              "internalType": "string",
              "name": "nameOfStudent",
              "type": "string"
            },
            {
              "internalType": "string",
              "name": "college",
              "type": "string"
            },
            {
              "internalType": "string",
              "name": "course",
              "type": "string"
            },
            {
              "internalType": "string",
              "name": "major",
              "type": "string"
            },
            {
              "internalType": "string",
              "name": "certStatus",
              "type": "string"
            },
            {
              "internalType": "string",
              "name": "certHash",
              "type": "string"
            },
            {
              "internalType": "address",
              "name": "walletAddressOfStudent",
              "type": "address"
            },
            {
              "internalType": "address",
              "name": "walletAddressOfInstitution",
              "type": "address"
            },
            {
              "internalType": "string",
              "name": "imageOfCertificate",
              "type": "string"
            },
            {
              "internalType": "uint256",
              "name": "dateIssued",
              "type": "uint256"
            }
          ],
          "internalType": "struct CertificateRegistry.Certificate[]",
          "name": "",
          "type": "tuple[]"
        }
      ],
      "stateMutability": "view",
      "type": "function"
    },
    {
      "inputs": [
        {
          "internalType": "address",
          "name": "_studentWallet",
          "type": "address"
        },
        {
          "internalType": "string",
          "name": "_nameOfInstitution",
          "type": "string"
        },
        {
          "internalType": "string",
          "name": "_nameOfCert",
          "type": "string"
        },
        {
          "internalType": "string",
          "name": "_nameOfStudent",
          "type": "string"
        },
        {
          "internalType": "string",
          "name": "_college",
          "type": "string"
        },
        {
          "internalType": "string",
          "name": "_course",
          "type": "string"
        },
        {
          "internalType": "string",
          "name": "_major",
          "type": "string"
        },
        {
          "internalType": "string",
          "name": "_certStatus",
          "type": "string"
        },
        {
          "internalType": "string",
          "name": "_certHash",
          "type": "string"
        },
        {
          "internalType": "string",
          "name": "_imageOfCertificate",
          "type": "string"
        }
      ],
      "name": "issueCertificate",
      "outputs": [],
      "stateMutability": "nonpayable",
      "type": "function"
    },
    {
      "inputs": [
        {
          "internalType": "address[]",
          "name": "_studentWallets",
          "type": "address[]"
        },
        {
          "internalType": "string",
          "name": "_nameOfInstitution",
          "type": "string"
        },
        {
          "internalType": "string",
          "name": "_nameOfCert",
          "type": "string"
        },
        {
          "internalType": "string[]",
          "name": "_nameOfStudents",
          "type": "string[]"
        },
        {
          "internalType": "string",
          "name": "_college",
          "type": "string"
        },
        {
          "internalType": "string",
          "name": "_course",
          "type": "string"
        },
        {
          "internalType": "string",
          "name": "_major",
          "type": "string"
        },
        {
          "internalType": "string",
          "name": "_certStatus",
          "type": "string"
        },
        {
          "internalType": "string[]",
          "name": "_certHashes",
          "type": "string[]"
        },
        {
          "internalType": "string[]",
          "name": "_imageOfCertificates",
          "type": "string[]"
        }
      ],
      "name": "issueCertificatesBulk",
      "outputs": [],
      "stateMutability": "nonpayable",
      "type": "function"
    }
  ],
  "bytecode": "0x608080604052346015576118e7908161001b8239f35b600080fdfe6080604052600436101561001257600080fd5b60003560e01c80630886f007146104715780634e39e6981461042c578063a29bad4d14610242578063b1d5ccf814610208578063c50ae4711461014d5763f1c49c621461005e57600080fd5b34610148576020366003190112610148576001600160a01b0361007f610848565b166000526000602052604060002080549061009982610831565b916100a76040519384610810565b80835260208301809260005260206000206000915b83831061012a57848660405191829160208301906020845251809152604083019060408160051b85010192916000905b8282106100fb57505050500390f35b9193600191939550602061011a8192603f198a82030186528851610973565b96019201920185949391926100ec565b600c602060019261013a856116e0565b8152019201920191906100bc565b600080fd5b3461014857604036600319011261014857610166610848565b602435906101726115db565b5060018060a01b0316908160005260006020526040600020548110156101cd576101af6101b5916101c99360005260006020526040600020610adf565b506116e0565b604051918291602083526020830190610973565b0390f35b60405162461bcd60e51b8152602060048201526013602482015272496e646578206f7574206f6620626f756e647360681b6044820152606490fd5b34610148576020366003190112610148576001600160a01b03610229610848565b1660005260006020526020604060002054604051908152f35b34610148576101403660031901126101485761025c610848565b6024356001600160401b0381116101485761027b90369060040161085e565b906044356001600160401b0381116101485761029b90369060040161085e565b906064356001600160401b038111610148576102bb90369060040161085e565b926084356001600160401b038111610148576102db90369060040161085e565b9160a4356001600160401b038111610148576102fb90369060040161085e565b60c4356001600160401b0381116101485761031a90369060040161085e565b60e4356001600160401b0381116101485761033990369060040161085e565b90610104356001600160401b0381116101485761035a90369060040161085e565b9261012435966001600160401b0388116101485761037f6103f598369060040161085e565b9961038b331515610a69565b60405197610398896107de565b885289602089015260408801526060870152608086015260a085015260c084015260e083015260018060a01b0316938461010083015233610120830152610140820152426101608201528360005260006020526040600020610b35565b7f0d4c8b54bb811347956d50e4e7ada18786723b008c84b0d9be92f77312c8d4a86040518061042733944290836115bf565b0390a3005b3461014857604036600319011261014857610445610848565b6024356001600160401b038111610148576101c99161046b6101b592369060040161085e565b906117b1565b3461014857610140366003190112610148576004356001600160401b03811161014857366023820112156101485780600401356104ad81610831565b916104bb6040519384610810565b8183526024602084019260051b8201019036821161014857602401915b8183106107be57836024356001600160401b038111610148576104ff90369060040161085e565b906044356001600160401b0381116101485761051f90369060040161085e565b916064356001600160401b0381116101485761053f9036906004016108b4565b926084356001600160401b0381116101485761055f90369060040161085e565b9260a4356001600160401b0381116101485761057f90369060040161085e565b9260c4356001600160401b0381116101485761059f90369060040161085e565b9460e4356001600160401b038111610148576105bf90369060040161085e565b610104356001600160401b038111610148576105df9036906004016108b4565b91610124356001600160401b038111610148576106009036906004016108b4565b9161060c331515610a69565b85518a51811490816107b3575b816107a8575b501561076b5785519860005b8a8110610667578a6040519081524260208201527faa4d034a3afc743ea3d35836e771f0693bd6c9386f7cf4a42c56b246c4dc12e160403392a2005b8061071d888b8f8c8f8c6106a88861068e8f969b6106878160019e610ab5565b5194610ab5565b51946106a0828d8060a01b0392610ab5565b511695610ab5565b5194604051966106b7886107de565b8752602087015260408601528a606086015260808501528760a08501528860c085015260e08401526101008301523361012083015261014082015242610160820152838060a01b03610709848d610ab5565b511660005260006020526040600020610b35565b818060a01b0361072d828b610ab5565b51168a7f0d4c8b54bb811347956d50e4e7ada18786723b008c84b0d9be92f77312c8d4a86040518061076233944290836115bf565b0390a30161062b565b60405162461bcd60e51b8152602060048201526015602482015274082e4e4c2f240d8cadccee8d040dad2e6dac2e8c6d605b1b6044820152606490fd5b90508351148b61061f565b855181149150610619565b82356001600160a01b0381168103610148578152602092830192016104d8565b61018081019081106001600160401b038211176107fa57604052565b634e487b7160e01b600052604160045260246000fd5b90601f801991011681019081106001600160401b038211176107fa57604052565b6001600160401b0381116107fa5760051b60200190565b600435906001600160a01b038216820361014857565b81601f82011215610148578035906001600160401b0382116107fa5760405192610892601f8401601f191660200185610810565b8284526020838301011161014857816000926020809301838601378301015290565b9080601f830112156101485781356108cb81610831565b926108d96040519485610810565b81845260208085019260051b820101918383116101485760208201905b83821061090557505050505090565b81356001600160401b038111610148576020916109278784809488010161085e565b8152019101906108f6565b919082519283825260005b84811061095e575050826000602080949584010152601f8019910116010190565b8060208092840101518282860101520161093d565b9061016080610a60610a24610a12610a006109ee6109dc6109ca6109b86109a58c516101808d526101808d0190610932565b60208d01518c6020818403910152610932565b60408c01518b820360408d0152610932565b60608b01518a820360608c0152610932565b60808a015189820360808b0152610932565b60a089015188820360a08a0152610932565b60c088015187820360c0890152610932565b60e087015186820360e0880152610932565b60018060a01b036101008701511661010086015260018060a01b0361012087015116610120860152610140860151858203610140870152610932565b93015191015290565b15610a7057565b60405162461bcd60e51b815260206004820152601b60248201527f496e76616c696420696e737469747574696f6e206164647265737300000000006044820152606490fd5b8051821015610ac95760209160051b010190565b634e487b7160e01b600052603260045260246000fd5b8054821015610ac957600052600c602060002091020190600090565b90600182811c92168015610b2b575b6020831014610b1557565b634e487b7160e01b600052602260045260246000fd5b91607f1691610b0a565b9190918054680100000000000000008110156107fa57610b5a91600182018155610adf565b6115a95782519283516001600160401b0381116107fa57610b7b8354610afb565b601f8111611561575b50602094601f82116001146114fc579481929394956000926114f1575b50508160011b916000199060031b1c19161782555b6001820160208201518051906001600160401b0382116107fa578190610bdc8454610afb565b601f811161149e575b50602090601f83116001146114395760009261142e575b50508160011b916000199060031b1c19161790555b6002820160408201518051906001600160401b0382116107fa578190610c378454610afb565b601f81116113db575b50602090601f83116001146113765760009261136b575b50508160011b916000199060031b1c19161790555b6003820160608201518051906001600160401b0382116107fa578190610c928454610afb565b601f8111611318575b50602090601f83116001146112b3576000926112a8575b50508160011b916000199060031b1c19161790555b6004820160808201518051906001600160401b0382116107fa578190610ced8454610afb565b601f8111611255575b50602090601f83116001146111f0576000926111e5575b50508160011b916000199060031b1c19161790555b6005820160a08201518051906001600160401b0382116107fa578190610d488454610afb565b601f8111611192575b50602090601f831160011461112d57600092611122575b50508160011b916000199060031b1c19161790555b6006820160c08201518051906001600160401b0382116107fa578190610da38454610afb565b601f81116110cf575b50602090601f831160011461106a5760009261105f575b50508160011b916000199060031b1c19161790555b6007820160e08201518051906001600160401b0382116107fa578190610dfe8454610afb565b601f811161100c575b50602090601f8311600114610fa757600092610f9c575b50508160011b916000199060031b1c19161790555b6101008101516008830180546001600160a01b039283166001600160a01b0319918216179091556101208301516009850180549190931691161790556101408101518051600a8401916001600160401b0382116107fa57610e948354610afb565b601f8111610f54575b50602090601f8311600114610ee65791806101609492600b9694600092610edb575b50508160011b916000199060031b1c19161790555b0151910155565b015190503880610ebf565b90601f1983169184600052816000209260005b818110610f3c5750926001928592600b9896610160989610610f23575b505050811b019055610ed4565b015160001960f88460031b161c19169055388080610f16565b92936020600181928786015181550195019301610ef9565b836000526020600020601f840160051c81019160208510610f92575b601f0160051c01905b818110610f865750610e9d565b60008155600101610f79565b9091508190610f70565b015190503880610e1e565b60008581528281209350601f198516905b818110610ff45750908460019594939210610fdb575b505050811b019055610e33565b015160001960f88460031b161c19169055388080610fce565b92936020600181928786015181550195019301610fb8565b909150836000526020600020601f840160051c81019160208510611055575b90601f859493920160051c01905b8181106110465750610e07565b60008155849350600101611039565b909150819061102b565b015190503880610dc3565b60008581528281209350601f198516905b8181106110b7575090846001959493921061109e575b505050811b019055610dd8565b015160001960f88460031b161c19169055388080611091565b9293602060018192878601518155019501930161107b565b909150836000526020600020601f840160051c81019160208510611118575b90601f859493920160051c01905b8181106111095750610dac565b600081558493506001016110fc565b90915081906110ee565b015190503880610d68565b60008581528281209350601f198516905b81811061117a5750908460019594939210611161575b505050811b019055610d7d565b015160001960f88460031b161c19169055388080611154565b9293602060018192878601518155019501930161113e565b909150836000526020600020601f840160051c810191602085106111db575b90601f859493920160051c01905b8181106111cc5750610d51565b600081558493506001016111bf565b90915081906111b1565b015190503880610d0d565b60008581528281209350601f198516905b81811061123d5750908460019594939210611224575b505050811b019055610d22565b015160001960f88460031b161c19169055388080611217565b92936020600181928786015181550195019301611201565b909150836000526020600020601f840160051c8101916020851061129e575b90601f859493920160051c01905b81811061128f5750610cf6565b60008155849350600101611282565b9091508190611274565b015190503880610cb2565b60008581528281209350601f198516905b81811061130057509084600195949392106112e7575b505050811b019055610cc7565b015160001960f88460031b161c191690553880806112da565b929360206001819287860151815501950193016112c4565b909150836000526020600020601f840160051c81019160208510611361575b90601f859493920160051c01905b8181106113525750610c9b565b60008155849350600101611345565b9091508190611337565b015190503880610c57565b60008581528281209350601f198516905b8181106113c357509084600195949392106113aa575b505050811b019055610c6c565b015160001960f88460031b161c1916905538808061139d565b92936020600181928786015181550195019301611387565b909150836000526020600020601f840160051c81019160208510611424575b90601f859493920160051c01905b8181106114155750610c40565b60008155849350600101611408565b90915081906113fa565b015190503880610bfc565b60008581528281209350601f198516905b818110611486575090846001959493921061146d575b505050811b019055610c11565b015160001960f88460031b161c19169055388080611460565b9293602060018192878601518155019501930161144a565b909150836000526020600020601f840160051c810191602085106114e7575b90601f859493920160051c01905b8181106114d85750610be5565b600081558493506001016114cb565b90915081906114bd565b015190503880610ba1565b601f1982169584600052806000209160005b88811061154957508360019596979810611530575b505050811b018255610bb6565b015160001960f88460031b161c19169055388080611523565b9192602060018192868501518155019401920161150e565b836000526020600020601f830160051c8101916020841061159f575b601f0160051c01905b8181106115935750610b84565b60008155600101611586565b909150819061157d565b634e487b7160e01b600052600060045260246000fd5b9291906115d6602091604086526040860190610932565b930152565b604051906115e8826107de565b60006101608360608152606060208201526060604082015260608082015260606080820152606060a0820152606060c0820152606060e0820152826101008201528261012082015260606101408201520152565b906040519182600082549261165084610afb565b80845293600181169081156116be5750600114611677575b5061167592500383610810565b565b90506000929192526020600020906000915b8183106116a25750509060206116759282010138611668565b6020919350806001915483858901015201910190918492611689565b90506020925061167594915060ff191682840152151560051b82010138611668565b906040516116ed816107de565b610160600b82946116fd8161163c565b845261170b6001820161163c565b602085015261171c6002820161163c565b604085015261172d6003820161163c565b606085015261173e6004820161163c565b608085015261174f6005820161163c565b60a08501526117606006820161163c565b60c08501526117716007820161163c565b60e085015260088101546001600160a01b039081166101008601526009820154166101208501526117a4600a820161163c565b6101408501520154910152565b6117b96115db565b506001600160a01b0316600090815260208190526040902080546117dc81610831565b916117ea6040519384610810565b818352602083019060005260206000206000915b838310611893575050505060005b815181101561184e5760e06118218284610ab5565b51015160208151910120835160208501201461183f5760010161180c565b9061184a9250610ab5565b5190565b60405162461bcd60e51b815260206004820152601a60248201527f436572746966696361746520646f6573206e6f742065786973740000000000006044820152606490fd5b600c60206001926118a3856116e0565b8152019201920191906117fe56fea2646970667358221220dbf08b39d46f46233c05003b64d24b9efacff5f3589b39856dce9cef59f54cd164736f6c634300081c0033",
  "linkReferences": {},
  "deployedLinkReferences": {}
}