{
  "_format": "hh-sol-artifact-1",
  "contractName": "CertificateRegistry",
  "sourceName": "contracts/CertificateRegistry.sol",
  "abi": [
    {
      "anonymous": false,
      "inputs": [
        {
          "indexed": true,
          "internalType": "address",
          "name": "institution",
          "type": "address"
        },
        {
          "indexed": true,
          "internalType": "address",
          "name": "student",
          "type": "address"
        },
        {
          "indexed": false,
          "internalType": "string",
          "name": "nameOfCert",
          "type": "string"
        },
        {
          "indexed": false,
          "internalType": "uint256",
          "name": "dateIssued",
          "type": "uint256"
        }
      ],
      "name": "CertificateIssued",
      "type": "event"
    },
    {
      "inputs": [
        {
          "internalType": "address",
          "name": "_studentWallet",
          "type": "address"
        },
        {
          "internalType": "string",
          "name": "_certHash",
          "type": "string"
        }
      ],
      "name": "getCertificateByHash",
      "outputs": [
        {
          "components": [
            {
              "internalType": "string",
              "name": "nameOfInstitution",
              "type": "string"
            },
            {
              "internalType": "string",
              "name": "nameOfCert",
              "type": "string"
            },
            {
              "internalType": "string",
              "name": "nameOfStudent",
              "type": "string"
            },
            {
              "internalType": "string",
              "name": "college",
              "type": "string"
            },
            {
              "internalType": "string",
              "name": "course",
              "type": "string"
            },
            {
              "internalType": "string",
              "name": "major",
              "type": "string"
            },
            {
              "internalType": "string",
              "name": "certStatus",
              "type": "string"
            },
            {
              "internalType": "string",
              "name": "certHash",
              "type": "string"
            },
            {
              "internalType": "address",
              "name": "walletAddressOfStudent",
              "type": "address"
            },
            {
              "internalType": "address",
              "name": "walletAddressOfInstitution",
              "type": "address"
            },
            {
              "internalType": "string",
              "name": "imageOfCertificate",
              "type": "string"
            },
            {
              "internalType": "uint256",
              "name": "dateIssued",
              "type": "uint256"
            }
          ],
          "internalType": "struct CertificateRegistry.Certificate",
          "name": "",
          "type": "tuple"
        }
      ],
      "stateMutability": "view",
      "type": "function"
    },
    {
      "inputs": [
        {
          "internalType": "address",
          "name": "_studentWallet",
          "type": "address"
        },
        {
          "internalType": "uint256",
          "name": "index",
          "type": "uint256"
        }
      ],
      "name": "getCertificateByIndex",
      "outputs": [
        {
          "components": [
            {
              "internalType": "string",
              "name": "nameOfInstitution",
              "type": "string"
            },
            {
              "internalType": "string",
              "name": "nameOfCert",
              "type": "string"
            },
            {
              "internalType": "string",
              "name": "nameOfStudent",
              "type": "string"
            },
            {
              "internalType": "string",
              "name": "college",
              "type": "string"
            },
            {
              "internalType": "string",
              "name": "course",
              "type": "string"
            },
            {
              "internalType": "string",
              "name": "major",
              "type": "string"
            },
            {
              "internalType": "string",
              "name": "certStatus",
              "type": "string"
            },
            {
              "internalType": "string",
              "name": "certHash",
              "type": "string"
            },
            {
              "internalType": "address",
              "name": "walletAddressOfStudent",
              "type": "address"
            },
            {
              "internalType": "address",
              "name": "walletAddressOfInstitution",
              "type": "address"
            },
            {
              "internalType": "string",
              "name": "imageOfCertificate",
              "type": "string"
            },
            {
              "internalType": "uint256",
              "name": "dateIssued",
              "type": "uint256"
            }
          ],
          "internalType": "struct CertificateRegistry.Certificate",
          "name": "",
          "type": "tuple"
        }
      ],
      "stateMutability": "view",
      "type": "function"
    },
    {
      "inputs": [
        {
          "internalType": "address",
          "name": "_studentWallet",
          "type": "address"
        }
      ],
      "name": "getCertificateCount",
      "outputs": [
        {
          "internalType": "uint256",
          "name": "",
          "type": "uint256"
        }
      ],
      "stateMutability": "view",
      "type": "function"
    },
    {
      "inputs": [
        {
          "internalType": "address",
          "name": "_studentWallet",
          "type": "address"
        }
      ],
      "name": "getCertificates",
      "outputs": [
        {
          "components": [
            {
              "internalType": "string",
              "name": "nameOfInstitution",
              "type": "string"
            },
            {
              "internalType": "string",
              "name": "nameOfCert",
              "type": "string"
            },
            {
              "internalType": "string",
              "name": "nameOfStudent",
              "type": "string"
            },
            {
              "internalType": "string",
              "name": "college",
              "type": "string"
            },
            {
              "internalType": "string",
              "name": "course",
              "type": "string"
            },
            {
              "internalType": "string",
              "name": "major",
              "type": "string"
            },
            {
              "internalType": "string",
              "name": "certStatus",
              "type": "string"
            },
            {
              "internalType": "string",
              "name": "certHash",
              "type": "string"
            },
            {
              "internalType": "address",
              "name": "walletAddressOfStudent",
              "type": "address"
            },
            {
              "internalType": "address",
              "name": "walletAddressOfInstitution",
              "type": "address"
            },
            {
              "internalType": "string",
              "name": "imageOfCertificate",
              "type": "string"
            },
            {
              "internalType": "uint256",
              "name": "dateIssued",
              "type": "uint256"
            }
          ],
          "internalType": "struct CertificateRegistry.Certificate[]",
          "name": "",
          "type": "tuple[]"
        }
      ],
      "stateMutability": "view",
      "type": "function"
    },
    {
      "inputs": [
        {
          "internalType": "address",
          "name": "_studentWallet",
          "type": "address"
        },
        {
          "internalType": "string",
          "name": "_nameOfInstitution",
          "type": "string"
        },
        {
          "internalType": "string",
          "name": "_nameOfCert",
          "type": "string"
        },
        {
          "internalType": "string",
          "name": "_nameOfStudent",
          "type": "string"
        },
        {
          "internalType": "string",
          "name": "_college",
          "type": "string"
        },
        {
          "internalType": "string",
          "name": "_course",
          "type": "string"
        },
        {
          "internalType": "string",
          "name": "_major",
          "type": "string"
        },
        {
          "internalType": "string",
          "name": "_certStatus",
          "type": "string"
        },
        {
          "internalType": "string",
          "name": "_certHash",
          "type": "string"
        },
        {
          "internalType": "string",
          "name": "_imageOfCertificate",
          "type": "string"
        }
      ],
      "name": "issueCertificate",
      "outputs": [],
      "stateMutability": "nonpayable",
      "type": "function"
    }
  ],
  "bytecode": "0x608080604052346015576114c5908161001b8239f35b600080fdfe6080604052600436101561001257600080fd5b60003560e01c80634e39e69814610f09578063a29bad4d14610258578063b1d5ccf81461021e578063c50ae471146101635763f1c49c621461005357600080fd5b3461015e57602036600319011261015e576001600160a01b03610074610f4e565b16600052600060205260406000208054906001600160401b03821161014857604051916100a760208260051b0184610f80565b80835260208301809260005260206000206000915b83831061012a57848660405191829160208301906020845251809152604083019060408160051b85010192916000905b8282106100fb57505050500390f35b9193600191939550602061011a8192603f198a82030186528851611038565b96019201920185949391926100ec565b600c602060019261013a8561126d565b8152019201920191906100bc565b634e487b7160e01b600052604160045260246000fd5b600080fd5b3461015e57604036600319011261015e5761017c610f4e565b6024359061018861112e565b5060018060a01b0316908160005260006020526040600020548110156101e3576101c56101cb916101df9360005260006020526040600020611473565b5061126d565b604051918291602083526020830190611038565b0390f35b60405162461bcd60e51b8152602060048201526013602482015272496e646578206f7574206f6620626f756e647360681b6044820152606490fd5b3461015e57602036600319011261015e576001600160a01b0361023f610f4e565b1660005260006020526020604060002054604051908152f35b3461015e5761014036600319011261015e57610272610f4e565b6024356001600160401b03811161015e57610291903690600401610fa1565b6044356001600160401b03811161015e576102b0903690600401610fa1565b906064356001600160401b03811161015e576102d0903690600401610fa1565b906084356001600160401b03811161015e576102f0903690600401610fa1565b60a4356001600160401b03811161015e5761030f903690600401610fa1565b60c4356001600160401b03811161015e5761032e903690600401610fa1565b9060e4356001600160401b03811161015e5761034e903690600401610fa1565b92610104356001600160401b03811161015e5761036f903690600401610fa1565b95610124356001600160401b03811161015e57610390903690600401610fa1565b983315610ec457604051966103a488610f64565b8752602087019789895260408801928352606088019384526080880194855260a0880195865260c0880196875260e088015260018060a01b03169889610100880152336101208801526101408701524261016087015288600052600060205260406000208054680100000000000000008110156101485761042a91600182018155611473565b979097610eae5786518051906001600160401b0382116101485781906104508b5461118f565b601f8111610e5b575b50602090601f8311600114610df657600092610deb575b50508160011b916000199060031b1c19161788555b51805160018901916001600160401b0382116101485781906104a7845461118f565b601f8111610d98575b50602090601f8311600114610d3357600092610d28575b50508160011b916000199060031b1c19161790555b51805160028801916001600160401b0382116101485781906104fe845461118f565b601f8111610cd5575b50602090601f8311600114610c7057600092610c65575b50508160011b916000199060031b1c19161790555b51805160038701916001600160401b038211610148578190610555845461118f565b601f8111610c12575b50602090601f8311600114610bad57600092610ba2575b50508160011b916000199060031b1c19161790555b51805160048601916001600160401b0382116101485781906105ac845461118f565b601f8111610b4f575b50602090601f8311600114610aea57600092610adf575b50508160011b916000199060031b1c19161790555b51805160058501916001600160401b038211610148578190610603845461118f565b601f8111610a8c575b50602090601f8311600114610a2757600092610a1c575b50508160011b916000199060031b1c19161790555b51805160068401916001600160401b03821161014857819061065a845461118f565b601f81116109c9575b50602090601f831160011461096457600092610959575b50508160011b916000199060031b1c19161790555b6007820160e08201518051906001600160401b0382116101485781906106b5845461118f565b601f8111610906575b50602090601f83116001146108a157600092610896575b50508160011b916000199060031b1c19161790555b6101008101516008830180546001600160a01b039283166001600160a01b0319918216179091556101208301516009850180549190931691161790556101408101518051600a8401916001600160401b0382116101485761074b835461118f565b601f811161084e575b50602090601f83116001146107e05791806101609492600b96946000926107d5575b50508160011b916000199060031b1c19161790555b01519101557f0d4c8b54bb811347956d50e4e7ada18786723b008c84b0d9be92f77312c8d4a86107c660405192604084526040840190610ff7565b914260208201528033930390a3005b015190508980610776565b90601f1983169184600052816000209260005b8181106108365750926001928592600b989661016098961061081d575b505050811b01905561078b565b015160001960f88460031b161c19169055898080610810565b929360206001819287860151815501950193016107f3565b836000526020600020601f840160051c8101916020851061088c575b601f0160051c01905b8181106108805750610754565b60008155600101610873565b909150819061086a565b0151905087806106d5565b60008581528281209350601f198516905b8181106108ee57509084600195949392106108d5575b505050811b0190556106ea565b015160001960f88460031b161c191690558780806108c8565b929360206001819287860151815501950193016108b2565b909150836000526020600020601f840160051c8101916020851061094f575b90601f859493920160051c01905b81811061094057506106be565b60008155849350600101610933565b9091508190610925565b01519050878061067a565b60008581528281209350601f198516905b8181106109b15750908460019594939210610998575b505050811b01905561068f565b015160001960f88460031b161c1916905587808061098b565b92936020600181928786015181550195019301610975565b909150836000526020600020601f840160051c81019160208510610a12575b90601f859493920160051c01905b818110610a035750610663565b600081558493506001016109f6565b90915081906109e8565b015190508880610623565b60008581528281209350601f198516905b818110610a745750908460019594939210610a5b575b505050811b019055610638565b015160001960f88460031b161c19169055888080610a4e565b92936020600181928786015181550195019301610a38565b909150836000526020600020601f840160051c81019160208510610ad5575b90601f859493920160051c01905b818110610ac6575061060c565b60008155849350600101610ab9565b9091508190610aab565b0151905089806105cc565b60008581528281209350601f198516905b818110610b375750908460019594939210610b1e575b505050811b0190556105e1565b015160001960f88460031b161c19169055898080610b11565b92936020600181928786015181550195019301610afb565b909150836000526020600020601f840160051c81019160208510610b98575b90601f859493920160051c01905b818110610b8957506105b5565b60008155849350600101610b7c565b9091508190610b6e565b015190508a80610575565b60008581528281209350601f198516905b818110610bfa5750908460019594939210610be1575b505050811b01905561058a565b015160001960f88460031b161c191690558a8080610bd4565b92936020600181928786015181550195019301610bbe565b909150836000526020600020601f840160051c81019160208510610c5b575b90601f859493920160051c01905b818110610c4c575061055e565b60008155849350600101610c3f565b9091508190610c31565b015190508b8061051e565b60008581528281209350601f198516905b818110610cbd5750908460019594939210610ca4575b505050811b019055610533565b015160001960f88460031b161c191690558b8080610c97565b92936020600181928786015181550195019301610c81565b909150836000526020600020601f840160051c81019160208510610d1e575b90601f859493920160051c01905b818110610d0f5750610507565b60008155849350600101610d02565b9091508190610cf4565b015190508c806104c7565b60008581528281209350601f198516905b818110610d805750908460019594939210610d67575b505050811b0190556104dc565b015160001960f88460031b161c191690558c8080610d5a565b92936020600181928786015181550195019301610d44565b909150836000526020600020601f840160051c81019160208510610de1575b90601f859493920160051c01905b818110610dd257506104b0565b60008155849350600101610dc5565b9091508190610db7565b015190508c80610470565b60008c81528281209350601f198516905b818110610e435750908460019594939210610e2a575b505050811b018855610485565b015160001960f88460031b161c191690558c8080610e1d565b92936020600181928786015181550195019301610e07565b9091508a6000526020600020601f840160051c81019160208510610ea4575b90601f859493920160051c01905b818110610e955750610459565b60008155849350600101610e88565b9091508190610e7a565b634e487b7160e01b600052600060045260246000fd5b60405162461bcd60e51b815260206004820152601b60248201527f496e76616c696420696e737469747574696f6e206164647265737300000000006044820152606490fd5b3461015e57604036600319011261015e57610f22610f4e565b6024356001600160401b03811161015e576101df91610f486101cb923690600401610fa1565b90611368565b600435906001600160a01b038216820361015e57565b61018081019081106001600160401b0382111761014857604052565b90601f801991011681019081106001600160401b0382111761014857604052565b81601f8201121561015e578035906001600160401b0382116101485760405192610fd5601f8401601f191660200185610f80565b8284526020838301011161015e57816000926020809301838601378301015290565b919082519283825260005b848110611023575050826000602080949584010152601f8019910116010190565b80602080928401015182828601015201611002565b90610160806111256110e96110d76110c56110b36110a161108f61107d61106a8c516101808d526101808d0190610ff7565b60208d01518c6020818403910152610ff7565b60408c01518b820360408d0152610ff7565b60608b01518a820360608c0152610ff7565b60808a015189820360808b0152610ff7565b60a089015188820360a08a0152610ff7565b60c088015187820360c0890152610ff7565b60e087015186820360e0880152610ff7565b60018060a01b036101008701511661010086015260018060a01b0361012087015116610120860152610140860151858203610140870152610ff7565b93015191015290565b6040519061113b82610f64565b60006101608360608152606060208201526060604082015260608082015260606080820152606060a0820152606060c0820152606060e0820152826101008201528261012082015260606101408201520152565b90600182811c921680156111bf575b60208310146111a957565b634e487b7160e01b600052602260045260246000fd5b91607f169161119e565b90604051918260008254926111dd8461118f565b808452936001811690811561124b5750600114611204575b5061120292500383610f80565b565b90506000929192526020600020906000915b81831061122f57505090602061120292820101386111f5565b6020919350806001915483858901015201910190918492611216565b90506020925061120294915060ff191682840152151560051b820101386111f5565b9060405161127a81610f64565b610160600b829461128a816111c9565b8452611298600182016111c9565b60208501526112a9600282016111c9565b60408501526112ba600382016111c9565b60608501526112cb600482016111c9565b60808501526112dc600582016111c9565b60a08501526112ed600682016111c9565b60c08501526112fe600782016111c9565b60e085015260088101546001600160a01b03908116610100860152600982015416610120850152611331600a82016111c9565b6101408501520154910152565b80518210156113525760209160051b010190565b634e487b7160e01b600052603260045260246000fd5b61137061112e565b506001600160a01b0316600090815260208190526040902080546001600160401b03811161014857604051916113ac60208360051b0184610f80565b818352602083019060005260206000206000915b838310611455575050505060005b81518110156114105760e06113e3828461133e565b510151602081519101208351602085012014611401576001016113ce565b9061140c925061133e565b5190565b60405162461bcd60e51b815260206004820152601a60248201527f436572746966696361746520646f6573206e6f742065786973740000000000006044820152606490fd5b600c60206001926114658561126d565b8152019201920191906113c0565b805482101561135257600052600c60206000209102019060009056fea264697066735822122031316e3176ca6fa2eca7f2a028484efe4b1b0cc0851c45122465b3b0cab36d6f64736f6c634300081c0033",
  "linkReferences": {},
  "deployedLinkReferences": {}
}