{
  "_format": "hh-sol-artifact-1",
  "contractName": "UserRegistry",
  "sourceName": "contracts/UserRegistry.sol",
  "abi": [
    {
      "inputs": [
        {
          "internalType": "address",
          "name": "_user",
          "type": "address"
        }
      ],
      "name": "getUser",
      "outputs": [
        {
          "components": [
            {
              "internalType": "string",
              "name": "firstName",
              "type": "string"
            },
            {
              "internalType": "string",
              "name": "middleName",
              "type": "string"
            },
            {
              "internalType": "string",
              "name": "lastName",
              "type": "string"
            },
            {
              "internalType": "string",
              "name": "sex",
              "type": "string"
            },
            {
              "internalType": "string",
              "name": "email",
              "type": "string"
            },
            {
              "internalType": "string",
              "name": "institutionName",
              "type": "string"
            },
            {
              "internalType": "string",
              "name": "institutionPosition",
              "type": "string"
            },
            {
              "internalType": "string",
              "name": "accreditationInfo",
              "type": "string"
            },
            {
              "internalType": "string",
              "name": "studentId",
              "type": "string"
            },
            {
              "internalType": "string",
              "name": "college",
              "type": "string"
            },
            {
              "internalType": "string",
              "name": "department",
              "type": "string"
            },
            {
              "internalType": "string",
              "name": "major",
              "type": "string"
            },
            {
              "internalType": "enum UserRegistry.Role",
              "name": "role",
              "type": "uint8"
            },
            {
              "internalType": "bool",
              "name": "isRegistered",
              "type": "bool"
            }
          ],
          "internalType": "struct UserRegistry.User",
          "name": "",
          "type": "tuple"
        }
      ],
      "stateMutability": "view",
      "type": "function"
    },
    {
      "inputs": [
        {
          "internalType": "address",
          "name": "_user",
          "type": "address"
        }
      ],
      "name": "isRegistered",
      "outputs": [
        {
          "internalType": "bool",
          "name": "",
          "type": "bool"
        }
      ],
      "stateMutability": "view",
      "type": "function"
    },
    {
      "inputs": [
        {
          "internalType": "address",
          "name": "userAddress",
          "type": "address"
        },
        {
          "internalType": "string",
          "name": "_firstName",
          "type": "string"
        },
        {
          "internalType": "string",
          "name": "_middleName",
          "type": "string"
        },
        {
          "internalType": "string",
          "name": "_lastName",
          "type": "string"
        },
        {
          "internalType": "string",
          "name": "_sex",
          "type": "string"
        },
        {
          "internalType": "string",
          "name": "_email",
          "type": "string"
        },
        {
          "internalType": "string",
          "name": "_institutionName",
          "type": "string"
        },
        {
          "internalType": "string",
          "name": "_institutionPosition",
          "type": "string"
        },
        {
          "internalType": "string",
          "name": "_accreditationInfo",
          "type": "string"
        },
        {
          "internalType": "string",
          "name": "_studentId",
          "type": "string"
        },
        {
          "internalType": "string",
          "name": "_college",
          "type": "string"
        },
        {
          "internalType": "string",
          "name": "_department",
          "type": "string"
        },
        {
          "internalType": "string",
          "name": "_major",
          "type": "string"
        },
        {
          "internalType": "enum UserRegistry.Role",
          "name": "_role",
          "type": "uint8"
        }
      ],
      "name": "registerUser",
      "outputs": [],
      "stateMutability": "nonpayable",
      "type": "function"
    }
  ],
  "bytecode": "0x608080604052346015576115e0908161001b8239f35b600080fdfe608080604052600436101561001357600080fd5b60003560e01c9081636f77926b146110be57508063c3c5a547146110795763ecefde751461004057600080fd5b34611074576101c03660031901126110745761005a6113d6565b6024356001600160401b0381116110745761007990369060040161146a565b906044356001600160401b0381116110745761009990369060040161146a565b6064356001600160401b038111611074576100b890369060040161146a565b926084356001600160401b038111611074576100d890369060040161146a565b60a4356001600160401b038111611074576100f790369060040161146a565b60c4356001600160401b0381116110745761011690369060040161146a565b9060e4356001600160401b0381116110745761013690369060040161146a565b92610104356001600160401b0381116110745761015790369060040161146a565b97610124356001600160401b0381116110745761017890369060040161146a565b98610144356001600160401b0381116110745761019990369060040161146a565b610164356001600160401b038111611074576101b990369060040161146a565b90610184359b6001600160401b038d11611074576101dc60049d36908f0161146a565b936101a4359d8e10156110745733600052600060205260ff600c6040600020015460081c1661102f576040519a6102128c61142d565b8b5260208b019b8c5260408b0195865260608b0196875260808b0197885260a08b0198895260c08b01998a5260e08b01526101008a015261012089015261014088015261016087015261026a6101808701998a61159e565b6101a08601976001895260018060a01b0316600052600060205260406000209686518051906001600160401b0382116107b85781906102a98b546114c0565b601f8111610fdc575b50602090601f8311600114610f7757600092610f6c575b50508160011b916000199060031b1c19161788555b51805160018901916001600160401b0382116107b857819061030084546114c0565b601f8111610f19575b50602090601f8311600114610eb457600092610ea9575b50508160011b916000199060031b1c19161790555b51805160028801916001600160401b0382116107b857819061035784546114c0565b601f8111610e56575b50602090601f8311600114610df157600092610de6575b50508160011b916000199060031b1c19161790555b51805160038701916001600160401b0382116107b85781906103ae84546114c0565b601f8111610d93575b50602090601f8311600114610d2e57600092610d23575b50508160011b916000199060031b1c19161790555b51805160048601916001600160401b0382116107b857819061040584546114c0565b601f8111610cd0575b50602090601f8311600114610c6b57600092610c60575b50508160011b916000199060031b1c19161790555b51805160058501916001600160401b0382116107b857819061045c84546114c0565b601f8111610c0d575b50602090601f8311600114610ba857600092610b9d575b50508160011b916000199060031b1c19161790555b51805160068401916001600160401b0382116107b85781906104b384546114c0565b601f8111610b4a575b50602090601f8311600114610ae557600092610ada575b50508160011b916000199060031b1c19161790555b6007820160e08201518051906001600160401b0382116107b857819061050e84546114c0565b601f8111610a87575b50602090601f8311600114610a2257600092610a17575b50508160011b916000199060031b1c19161790555b600882016101008201518051906001600160401b0382116107b857819061056a84546114c0565b601f81116109c4575b50602090601f831160011461095f57600092610954575b50508160011b916000199060031b1c19161790555b600982016101208201518051906001600160401b0382116107b85781906105c684546114c0565b601f8111610901575b50602090601f831160011461089c57600092610891575b50508160011b916000199060031b1c19161790555b600a82016101408201518051906001600160401b0382116107b857819061062284546114c0565b601f811161083e575b50602090601f83116001146107d9576000926107ce575b50508160011b916000199060031b1c19161790555b61016001518051600b8301916001600160401b0382116107b85761067b83546114c0565b601f8111610770575b50602090601f831160011461070557600c94939291600091836106fa575b50508160011b916000199060031b1c19161790555b0191519060048210156106e45760ff61ff0084549251151560081b1692169061ffff191617179055600080f35b634e487b7160e01b600052602160045260246000fd5b0151905038806106a2565b90601f1983169184600052816000209260005b8181106107585750916001939185600c989796941061073f575b505050811b0190556106b7565b015160001960f88460031b161c19169055388080610732565b92936020600181928786015181550195019301610718565b836000526020600020601f840160051c810191602085106107ae575b601f0160051c01905b8181106107a25750610684565b60008155600101610795565b909150819061078c565b634e487b7160e01b600052604160045260246000fd5b015190503880610642565b60008581528281209350601f198516905b818110610826575090846001959493921061080d575b505050811b019055610657565b015160001960f88460031b161c19169055388080610800565b929360206001819287860151815501950193016107ea565b909150836000526020600020601f840160051c81019160208510610887575b90601f859493920160051c01905b818110610878575061062b565b6000815584935060010161086b565b909150819061085d565b0151905038806105e6565b60008581528281209350601f198516905b8181106108e957509084600195949392106108d0575b505050811b0190556105fb565b015160001960f88460031b161c191690553880806108c3565b929360206001819287860151815501950193016108ad565b909150836000526020600020601f840160051c8101916020851061094a575b90601f859493920160051c01905b81811061093b57506105cf565b6000815584935060010161092e565b9091508190610920565b01519050388061058a565b60008581528281209350601f198516905b8181106109ac5750908460019594939210610993575b505050811b01905561059f565b015160001960f88460031b161c19169055388080610986565b92936020600181928786015181550195019301610970565b909150836000526020600020601f840160051c81019160208510610a0d575b90601f859493920160051c01905b8181106109fe5750610573565b600081558493506001016109f1565b90915081906109e3565b01519050388061052e565b60008581528281209350601f198516905b818110610a6f5750908460019594939210610a56575b505050811b019055610543565b015160001960f88460031b161c19169055388080610a49565b92936020600181928786015181550195019301610a33565b909150836000526020600020601f840160051c81019160208510610ad0575b90601f859493920160051c01905b818110610ac15750610517565b60008155849350600101610ab4565b9091508190610aa6565b0151905038806104d3565b60008581528281209350601f198516905b818110610b325750908460019594939210610b19575b505050811b0190556104e8565b015160001960f88460031b161c19169055388080610b0c565b92936020600181928786015181550195019301610af6565b909150836000526020600020601f840160051c81019160208510610b93575b90601f859493920160051c01905b818110610b8457506104bc565b60008155849350600101610b77565b9091508190610b69565b01519050388061047c565b60008581528281209350601f198516905b818110610bf55750908460019594939210610bdc575b505050811b019055610491565b015160001960f88460031b161c19169055388080610bcf565b92936020600181928786015181550195019301610bb9565b909150836000526020600020601f840160051c81019160208510610c56575b90601f859493920160051c01905b818110610c475750610465565b60008155849350600101610c3a565b9091508190610c2c565b015190503880610425565b60008581528281209350601f198516905b818110610cb85750908460019594939210610c9f575b505050811b01905561043a565b015160001960f88460031b161c19169055388080610c92565b92936020600181928786015181550195019301610c7c565b909150836000526020600020601f840160051c81019160208510610d19575b90601f859493920160051c01905b818110610d0a575061040e565b60008155849350600101610cfd565b9091508190610cef565b0151905038806103ce565b60008581528281209350601f198516905b818110610d7b5750908460019594939210610d62575b505050811b0190556103e3565b015160001960f88460031b161c19169055388080610d55565b92936020600181928786015181550195019301610d3f565b909150836000526020600020601f840160051c81019160208510610ddc575b90601f859493920160051c01905b818110610dcd57506103b7565b60008155849350600101610dc0565b9091508190610db2565b015190503880610377565b60008581528281209350601f198516905b818110610e3e5750908460019594939210610e25575b505050811b01905561038c565b015160001960f88460031b161c19169055388080610e18565b92936020600181928786015181550195019301610e02565b909150836000526020600020601f840160051c81019160208510610e9f575b90601f859493920160051c01905b818110610e905750610360565b60008155849350600101610e83565b9091508190610e75565b015190503880610320565b60008581528281209350601f198516905b818110610f015750908460019594939210610ee8575b505050811b019055610335565b015160001960f88460031b161c19169055388080610edb565b92936020600181928786015181550195019301610ec5565b909150836000526020600020601f840160051c81019160208510610f62575b90601f859493920160051c01905b818110610f535750610309565b60008155849350600101610f46565b9091508190610f38565b0151905038806102c9565b60008c81528281209350601f198516905b818110610fc45750908460019594939210610fab575b505050811b0188556102de565b015160001960f88460031b161c19169055388080610f9e565b92936020600181928786015181550195019301610f88565b9091508a6000526020600020601f840160051c81019160208510611025575b90601f859493920160051c01905b81811061101657506102b2565b60008155849350600101611009565b9091508190610ffb565b60405162461bcd60e51b815260206004820152601760248201527f5573657220616c726561647920726567697374657265640000000000000000006044820152606490fd5b600080fd5b34611074576020366003190112611074576001600160a01b0361109a6113d6565b166000526000602052602060ff600c6040600020015460081c166040519015158152f35b34611074576020366003190112611074576110d76113d6565b906110e18161142d565b60608152602081016060905260408101606090526060810160609052608081016060905260a081016060905260c081016060905260e08101606090526101008101606090526101208101606090526101408101606090526101608101606090526101808101600090526101a00160009052600160a01b600190031660005260006020526040600020604051906111768261142d565b61117f816114fa565b825261118d600182016114fa565b60208301908152916111a1600283016114fa565b60408201908152916111b5600382016114fa565b606083019081526111c8600483016114fa565b608084019081526111db600584016114fa565b60a085019081526111ee600685016114fa565b60c08601908152611201600786016114fa565b60e0870190815290611215600887016114fa565b61010088019081529261122a600988016114fa565b61012089019081529461123f600a89016114fa565b6101408a0190815296611254600b8a016114fa565b986101608b01998a52600c01549a6101808b019a60ff8d16611276908d61159e565b6101a081019c60081c60ff1615158d526040519d8e916020835251602083016101c090526101e083016112a8916113ec565b905191601f198183030190604001526112c0916113ec565b90518d8203601f190160608f01526112d891906113ec565b90518c8203601f190160808e01526112f091906113ec565b90518b8203601f190160a08d015261130891906113ec565b90518a8203601f190160c08c015261132091906113ec565b9051898203601f190160e08b015261133891906113ec565b9051888203601f19016101008a015261135191906113ec565b9051878203601f190161012089015261136a91906113ec565b9051868203601f190161014088015261138391906113ec565b9051858203601f190161016087015261139c91906113ec565b9051848203601f19016101808601526113b591906113ec565b90519160048310156106e45783926101a08401525115156101c08301520390f35b600435906001600160a01b038216820361107457565b919082519283825260005b848110611418575050826000602080949584010152601f8019910116010190565b806020809284010151828286010152016113f7565b6101c081019081106001600160401b038211176107b857604052565b90601f801991011681019081106001600160401b038211176107b857604052565b81601f82011215611074578035906001600160401b0382116107b8576040519261149e601f8401601f191660200185611449565b8284526020838301011161107457816000926020809301838601378301015290565b90600182811c921680156114f0575b60208310146114da57565b634e487b7160e01b600052602260045260246000fd5b91607f16916114cf565b906040519182600082549261150e846114c0565b808452936001811690811561157c5750600114611535575b5061153392500383611449565b565b90506000929192526020600020906000915b8183106115605750509060206115339282010138611526565b6020919350806001915483858901015201910190918492611547565b90506020925061153394915060ff191682840152151560051b82010138611526565b60048210156106e4575256fea26469706673582212200265b758f7c41aca89e8c20603f79fbbee4eefefa1099647546d776f0addb92e64736f6c634300081c0033",
  "linkReferences": {},
  "deployedLinkReferences": {}
}